{
  "_format": "hh-sol-artifact-1",
  "contractName": "SongLicense",
  "sourceName": "contracts/SongLicense.sol",
  "abi": [
    {
      "inputs": [
        {
          "internalType": "address",
          "name": "target",
          "type": "address"
        }
      ],
      "stateMutability": "nonpayable",
      "type": "constructor"
    },
    {
      "anonymous": false,
      "inputs": [
        {
          "indexed": true,
          "internalType": "address",
          "name": "owner",
          "type": "address"
        },
        {
          "indexed": true,
          "internalType": "address",
          "name": "approved",
          "type": "address"
        },
        {
          "indexed": true,
          "internalType": "uint256",
          "name": "tokenId",
          "type": "uint256"
        }
      ],
      "name": "Approval",
      "type": "event"
    },
    {
      "anonymous": false,
      "inputs": [
        {
          "indexed": true,
          "internalType": "address",
          "name": "owner",
          "type": "address"
        },
        {
          "indexed": true,
          "internalType": "address",
          "name": "operator",
          "type": "address"
        },
        {
          "indexed": false,
          "internalType": "bool",
          "name": "approved",
          "type": "bool"
        }
      ],
      "name": "ApprovalForAll",
      "type": "event"
    },
    {
      "anonymous": false,
      "inputs": [
        {
          "indexed": true,
          "internalType": "address",
          "name": "previousOwner",
          "type": "address"
        },
        {
          "indexed": true,
          "internalType": "address",
          "name": "newOwner",
          "type": "address"
        }
      ],
      "name": "OwnershipTransferred",
      "type": "event"
    },
    {
      "anonymous": false,
      "inputs": [
        {
          "indexed": true,
          "internalType": "address",
          "name": "from",
          "type": "address"
        },
        {
          "indexed": true,
          "internalType": "address",
          "name": "to",
          "type": "address"
        },
        {
          "indexed": true,
          "internalType": "uint256",
          "name": "tokenId",
          "type": "uint256"
        }
      ],
      "name": "Transfer",
      "type": "event"
    },
    {
      "inputs": [
        {
          "internalType": "address",
          "name": "to",
          "type": "address"
        },
        {
          "internalType": "uint256",
          "name": "tokenId",
          "type": "uint256"
        }
      ],
      "name": "approve",
      "outputs": [],
      "stateMutability": "nonpayable",
      "type": "function"
    },
    {
      "inputs": [
        {
          "internalType": "address",
          "name": "owner",
          "type": "address"
        }
      ],
      "name": "balanceOf",
      "outputs": [
        {
          "internalType": "uint256",
          "name": "",
          "type": "uint256"
        }
      ],
      "stateMutability": "view",
      "type": "function"
    },
    {
      "inputs": [
        {
          "internalType": "uint256",
          "name": "tokenId",
          "type": "uint256"
        }
      ],
      "name": "getApproved",
      "outputs": [
        {
          "internalType": "address",
          "name": "",
          "type": "address"
        }
      ],
      "stateMutability": "view",
      "type": "function"
    },
    {
      "inputs": [
        {
          "internalType": "uint256",
          "name": "songId",
          "type": "uint256"
        }
      ],
      "name": "getTokenDetails",
      "outputs": [
        {
          "components": [
            {
              "internalType": "uint256",
              "name": "songId",
              "type": "uint256"
            },
            {
              "internalType": "enum SongLicense.LicenseType",
              "name": "licenseType",
              "type": "uint8"
            }
          ],
          "internalType": "struct SongLicense.LicensingInfo[]",
          "name": "",
          "type": "tuple[]"
        }
      ],
      "stateMutability": "view",
      "type": "function"
    },
    {
      "inputs": [
        {
          "internalType": "address",
          "name": "owner",
          "type": "address"
        },
        {
          "internalType": "address",
          "name": "operator",
          "type": "address"
        }
      ],
      "name": "isApprovedForAll",
      "outputs": [
        {
          "internalType": "bool",
          "name": "",
          "type": "bool"
        }
      ],
      "stateMutability": "view",
      "type": "function"
    },
    {
      "inputs": [
        {
          "internalType": "address",
          "name": "recipient",
          "type": "address"
        },
        {
          "internalType": "uint256",
          "name": "songId",
          "type": "uint256"
        },
        {
          "internalType": "uint256",
          "name": "licenseType",
          "type": "uint256"
        }
      ],
      "name": "mintNFT",
      "outputs": [
        {
          "internalType": "uint256",
          "name": "",
          "type": "uint256"
        }
      ],
      "stateMutability": "payable",
      "type": "function"
    },
    {
      "inputs": [],
      "name": "name",
      "outputs": [
        {
          "internalType": "string",
          "name": "",
          "type": "string"
        }
      ],
      "stateMutability": "view",
      "type": "function"
    },
    {
      "inputs": [],
      "name": "owner",
      "outputs": [
        {
          "internalType": "address",
          "name": "",
          "type": "address"
        }
      ],
      "stateMutability": "view",
      "type": "function"
    },
    {
      "inputs": [
        {
          "internalType": "uint256",
          "name": "tokenId",
          "type": "uint256"
        }
      ],
      "name": "ownerOf",
      "outputs": [
        {
          "internalType": "address",
          "name": "",
          "type": "address"
        }
      ],
      "stateMutability": "view",
      "type": "function"
    },
    {
      "inputs": [],
      "name": "renounceOwnership",
      "outputs": [],
      "stateMutability": "nonpayable",
      "type": "function"
    },
    {
      "inputs": [
        {
          "internalType": "address",
          "name": "from",
          "type": "address"
        },
        {
          "internalType": "address",
          "name": "to",
          "type": "address"
        },
        {
          "internalType": "uint256",
          "name": "tokenId",
          "type": "uint256"
        }
      ],
      "name": "safeTransferFrom",
      "outputs": [],
      "stateMutability": "nonpayable",
      "type": "function"
    },
    {
      "inputs": [
        {
          "internalType": "address",
          "name": "from",
          "type": "address"
        },
        {
          "internalType": "address",
          "name": "to",
          "type": "address"
        },
        {
          "internalType": "uint256",
          "name": "tokenId",
          "type": "uint256"
        },
        {
          "internalType": "bytes",
          "name": "data",
          "type": "bytes"
        }
      ],
      "name": "safeTransferFrom",
      "outputs": [],
      "stateMutability": "nonpayable",
      "type": "function"
    },
    {
      "inputs": [
        {
          "internalType": "address",
          "name": "operator",
          "type": "address"
        },
        {
          "internalType": "bool",
          "name": "approved",
          "type": "bool"
        }
      ],
      "name": "setApprovalForAll",
      "outputs": [],
      "stateMutability": "nonpayable",
      "type": "function"
    },
    {
      "inputs": [
        {
          "internalType": "bytes4",
          "name": "interfaceId",
          "type": "bytes4"
        }
      ],
      "name": "supportsInterface",
      "outputs": [
        {
          "internalType": "bool",
          "name": "",
          "type": "bool"
        }
      ],
      "stateMutability": "view",
      "type": "function"
    },
    {
      "inputs": [],
      "name": "symbol",
      "outputs": [
        {
          "internalType": "string",
          "name": "",
          "type": "string"
        }
      ],
      "stateMutability": "view",
      "type": "function"
    },
    {
      "inputs": [
        {
          "internalType": "uint256",
          "name": "tokenId",
          "type": "uint256"
        }
      ],
      "name": "tokenURI",
      "outputs": [
        {
          "internalType": "string",
          "name": "",
          "type": "string"
        }
      ],
      "stateMutability": "view",
      "type": "function"
    },
    {
      "inputs": [
        {
          "internalType": "address",
          "name": "from",
          "type": "address"
        },
        {
          "internalType": "address",
          "name": "to",
          "type": "address"
        },
        {
          "internalType": "uint256",
          "name": "tokenId",
          "type": "uint256"
        }
      ],
      "name": "transferFrom",
      "outputs": [],
      "stateMutability": "nonpayable",
      "type": "function"
    },
    {
      "inputs": [
        {
          "internalType": "address",
          "name": "newOwner",
          "type": "address"
        }
      ],
      "name": "transferOwnership",
      "outputs": [],
      "stateMutability": "nonpayable",
      "type": "function"
    },
    {
      "inputs": [
        {
          "internalType": "uint256",
          "name": "songId",
          "type": "uint256"
        },
        {
          "internalType": "address",
          "name": "owner",
          "type": "address"
        },
        {
          "internalType": "enum SongLicense.LicenseType",
          "name": "license",
          "type": "uint8"
        }
      ],
      "name": "verifyLicenseOwnership",
      "outputs": [
        {
          "internalType": "bool",
          "name": "ok",
          "type": "bool"
        }
      ],
      "stateMutability": "view",
      "type": "function"
    }
  ],
  "bytecode": "0x60806040523480156200001157600080fd5b5060405162003d5b38038062003d5b833981810160405281019062000037919062000269565b6040518060400160405280600b81526020017f536f6e674c6963656e73650000000000000000000000000000000000000000008152506040518060400160405280600381526020017f4e465400000000000000000000000000000000000000000000000000000000008152508160009081620000b4919062000515565b508060019081620000c6919062000515565b505050620000e9620000dd6200013160201b60201c565b6200013960201b60201c565b80600a60006101000a81548173ffffffffffffffffffffffffffffffffffffffff021916908373ffffffffffffffffffffffffffffffffffffffff16021790555050620005fc565b600033905090565b6000600660009054906101000a900473ffffffffffffffffffffffffffffffffffffffff16905081600660006101000a81548173ffffffffffffffffffffffffffffffffffffffff021916908373ffffffffffffffffffffffffffffffffffffffff1602179055508173ffffffffffffffffffffffffffffffffffffffff168173ffffffffffffffffffffffffffffffffffffffff167f8be0079c531659141344cd1fd0a4f28419497f9722a3daafe3b4186f6b6457e060405160405180910390a35050565b600080fd5b600073ffffffffffffffffffffffffffffffffffffffff82169050919050565b6000620002318262000204565b9050919050565b620002438162000224565b81146200024f57600080fd5b50565b600081519050620002638162000238565b92915050565b600060208284031215620002825762000281620001ff565b5b6000620002928482850162000252565b91505092915050565b600081519050919050565b7f4e487b7100000000000000000000000000000000000000000000000000000000600052604160045260246000fd5b7f4e487b7100000000000000000000000000000000000000000000000000000000600052602260045260246000fd5b600060028204905060018216806200031d57607f821691505b602082108103620003335762000332620002d5565b5b50919050565b60008190508160005260206000209050919050565b60006020601f8301049050919050565b600082821b905092915050565b6000600883026200039d7fffffffffffffffffffffffffffffffffffffffffffffffffffffffffffffffff826200035e565b620003a986836200035e565b95508019841693508086168417925050509392505050565b6000819050919050565b6000819050919050565b6000620003f6620003f0620003ea84620003c1565b620003cb565b620003c1565b9050919050565b6000819050919050565b6200041283620003d5565b6200042a6200042182620003fd565b8484546200036b565b825550505050565b600090565b6200044162000432565b6200044e81848462000407565b505050565b5b8181101562000476576200046a60008262000437565b60018101905062000454565b5050565b601f821115620004c5576200048f8162000339565b6200049a846200034e565b81016020851015620004aa578190505b620004c2620004b9856200034e565b83018262000453565b50505b505050565b600082821c905092915050565b6000620004ea60001984600802620004ca565b1980831691505092915050565b6000620005058383620004d7565b9150826002028217905092915050565b62000520826200029b565b67ffffffffffffffff8111156200053c576200053b620002a6565b5b62000548825462000304565b620005558282856200047a565b600060209050601f8311600181146200058d576000841562000578578287015190505b620005848582620004f7565b865550620005f4565b601f1984166200059d8662000339565b60005b82811015620005c757848901518255600182019150602085019450602081019050620005a0565b86831015620005e75784890151620005e3601f891682620004d7565b8355505b6001600288020188555050505b505050505050565b61374f806200060c6000396000f3fe6080604052600436106101145760003560e01c806370a08231116100a0578063b88d4fde11610064578063b88d4fde146103b6578063c1e03728146103df578063c87b56dd1461041c578063e985e9c514610459578063f2fde38b1461049657610114565b806370a08231146102e3578063715018a6146103205780638da5cb5b1461033757806395d89b4114610362578063a22cb4651461038d57610114565b8063095ea7b3116100e7578063095ea7b3146101fb57806323b872dd1461022457806342842e0e1461024d5780635a9d10a2146102765780636352211e146102a657610114565b806301ffc9a71461011957806305eb12051461015657806306fdde0314610193578063081812fc146101be575b600080fd5b34801561012557600080fd5b50610140600480360381019061013b919061239a565b6104bf565b60405161014d91906123e2565b60405180910390f35b34801561016257600080fd5b5061017d600480360381019061017891906124b6565b6105a1565b60405161018a91906123e2565b60405180910390f35b34801561019f57600080fd5b506101a861072b565b6040516101b59190612599565b60405180910390f35b3480156101ca57600080fd5b506101e560048036038101906101e091906125bb565b6107bd565b6040516101f291906125f7565b60405180910390f35b34801561020757600080fd5b50610222600480360381019061021d9190612612565b610803565b005b34801561023057600080fd5b5061024b60048036038101906102469190612652565b61091a565b005b34801561025957600080fd5b50610274600480360381019061026f9190612652565b61097a565b005b610290600480360381019061028b91906126a5565b61099a565b60405161029d9190612707565b60405180910390f35b3480156102b257600080fd5b506102cd60048036038101906102c891906125bb565b610cf0565b6040516102da91906125f7565b60405180910390f35b3480156102ef57600080fd5b5061030a60048036038101906103059190612722565b610d76565b6040516103179190612707565b60405180910390f35b34801561032c57600080fd5b50610335610e2d565b005b34801561034357600080fd5b5061034c610e41565b60405161035991906125f7565b60405180910390f35b34801561036e57600080fd5b50610377610e6b565b6040516103849190612599565b60405180910390f35b34801561039957600080fd5b506103b460048036038101906103af919061277b565b610efd565b005b3480156103c257600080fd5b506103dd60048036038101906103d891906128f0565b610f13565b005b3480156103eb57600080fd5b50610406600480360381019061040191906125bb565b610f75565b6040516104139190612ad7565b60405180910390f35b34801561042857600080fd5b50610443600480360381019061043e91906125bb565b61102c565b6040516104509190612599565b60405180910390f35b34801561046557600080fd5b50610480600480360381019061047b9190612af9565b611094565b60405161048d91906123e2565b60405180910390f35b3480156104a257600080fd5b506104bd60048036038101906104b89190612722565b611128565b005b60007f80ac58cd000000000000000000000000000000000000000000000000000000007bffffffffffffffffffffffffffffffffffffffffffffffffffffffff1916827bffffffffffffffffffffffffffffffffffffffffffffffffffffffff1916148061058a57507f5b5e139f000000000000000000000000000000000000000000000000000000007bffffffffffffffffffffffffffffffffffffffffffffffffffffffff1916827bffffffffffffffffffffffffffffffffffffffffffffffffffffffff1916145b8061059a5750610599826111ab565b5b9050919050565b600080600860008573ffffffffffffffffffffffffffffffffffffffff1673ffffffffffffffffffffffffffffffffffffffff168152602001908152602001600020805480602002602001604051908101604052809291908181526020016000905b8282101561067a5783829060005260206000209060020201604051806040016040529081600082015481526020016001820160009054906101000a900460ff166002811115610655576106546129ae565b5b6002811115610667576106666129ae565b5b8152505081526020019060010190610603565b50505050905060005b815181101561071d57858282815181106106a05761069f612b39565b5b6020026020010151600001511480156106fa57508360028111156106c7576106c66129ae565b5b8282815181106106da576106d9612b39565b5b60200260200101516020015160028111156106f8576106f76129ae565b5b145b1561070a57600192505050610724565b808061071590612b97565b915050610683565b5060009150505b9392505050565b60606000805461073a90612c0e565b80601f016020809104026020016040519081016040528092919081815260200182805461076690612c0e565b80156107b35780601f10610788576101008083540402835291602001916107b3565b820191906000526020600020905b81548152906001019060200180831161079657829003601f168201915b5050505050905090565b60006107c882611215565b6004600083815260200190815260200160002060009054906101000a900473ffffffffffffffffffffffffffffffffffffffff169050919050565b600061080e82610cf0565b90508073ffffffffffffffffffffffffffffffffffffffff168373ffffffffffffffffffffffffffffffffffffffff160361087e576040517f08c379a000000000000000000000000000000000000000000000000000000000815260040161087590612cb1565b60405180910390fd5b8073ffffffffffffffffffffffffffffffffffffffff1661089d611260565b73ffffffffffffffffffffffffffffffffffffffff1614806108cc57506108cb816108c6611260565b611094565b5b61090b576040517f08c379a000000000000000000000000000000000000000000000000000000000815260040161090290612d43565b60405180910390fd5b6109158383611268565b505050565b61092b610925611260565b82611321565b61096a576040517f08c379a000000000000000000000000000000000000000000000000000000000815260040161096190612dd5565b60405180910390fd5b6109758383836113b6565b505050565b61099583838360405180602001604052806000815250610f13565b505050565b6000808260028111156109b0576109af6129ae565b5b90506109bc84826116af565b6109fb576040517f08c379a00000000000000000000000000000000000000000000000000000000081526004016109f290612e67565b60405180910390fd5b6000610a078583611812565b905060008103610a4c576040517f08c379a0000000000000000000000000000000000000000000000000000000008152600401610a4390612ed3565b60405180910390fd5b80341015610a8f576040517f08c379a0000000000000000000000000000000000000000000000000000000008152600401610a8690612f3f565b60405180910390fd5b6000600a60009054906101000a900473ffffffffffffffffffffffffffffffffffffffff1673ffffffffffffffffffffffffffffffffffffffff1663a5cd761f876040518263ffffffff1660e01b8152600401610aec9190612707565b602060405180830381865afa158015610b09573d6000803e3d6000fd5b505050506040513d601f19601f82011682018060405250810190610b2d9190612f74565b90508073ffffffffffffffffffffffffffffffffffffffff166108fc349081150290604051600060405180830381858888f19350505050158015610b75573d6000803e3d6000fd5b506000610b826009611975565b9050610b8e8882611983565b610b986009611ba0565b60006040518060400160405280898152602001866002811115610bbe57610bbd6129ae565b5b8152509050600760008981526020019081526020016000208190806001815401808255809150506001900390600052602060002090600202016000909190919091506000820151816000015560208201518160010160006101000a81548160ff02191690836002811115610c3557610c346129ae565b5b02179055505050600860008a73ffffffffffffffffffffffffffffffffffffffff1673ffffffffffffffffffffffffffffffffffffffff1681526020019081526020016000208190806001815401808255809150506001900390600052602060002090600202016000909190919091506000820151816000015560208201518160010160006101000a81548160ff02191690836002811115610cda57610cd96129ae565b5b0217905550505081955050505050509392505050565b600080610cfc83611bb6565b9050600073ffffffffffffffffffffffffffffffffffffffff168173ffffffffffffffffffffffffffffffffffffffff1603610d6d576040517f08c379a0000000000000000000000000000000000000000000000000000000008152600401610d6490612fed565b60405180910390fd5b80915050919050565b60008073ffffffffffffffffffffffffffffffffffffffff168273ffffffffffffffffffffffffffffffffffffffff1603610de6576040517f08c379a0000000000000000000000000000000000000000000000000000000008152600401610ddd9061307f565b60405180910390fd5b600360008373ffffffffffffffffffffffffffffffffffffffff1673ffffffffffffffffffffffffffffffffffffffff168152602001908152602001600020549050919050565b610e35611bf3565b610e3f6000611c71565b565b6000600660009054906101000a900473ffffffffffffffffffffffffffffffffffffffff16905090565b606060018054610e7a90612c0e565b80601f0160208091040260200160405190810160405280929190818152602001828054610ea690612c0e565b8015610ef35780601f10610ec857610100808354040283529160200191610ef3565b820191906000526020600020905b815481529060010190602001808311610ed657829003601f168201915b5050505050905090565b610f0f610f08611260565b8383611d37565b5050565b610f24610f1e611260565b83611321565b610f63576040517f08c379a0000000000000000000000000000000000000000000000000000000008152600401610f5a90612dd5565b60405180910390fd5b610f6f84848484611ea3565b50505050565b606060076000838152602001908152602001600020805480602002602001604051908101604052809291908181526020016000905b828210156110215783829060005260206000209060020201604051806040016040529081600082015481526020016001820160009054906101000a900460ff166002811115610ffc57610ffb6129ae565b5b600281111561100e5761100d6129ae565b5b8152505081526020019060010190610faa565b505050509050919050565b606061103782611215565b6000611041611eff565b90506000815111611061576040518060200160405280600081525061108c565b8061106b84611f16565b60405160200161107c9291906130db565b6040516020818303038152906040525b915050919050565b6000600560008473ffffffffffffffffffffffffffffffffffffffff1673ffffffffffffffffffffffffffffffffffffffff16815260200190815260200160002060008373ffffffffffffffffffffffffffffffffffffffff1673ffffffffffffffffffffffffffffffffffffffff16815260200190815260200160002060009054906101000a900460ff16905092915050565b611130611bf3565b600073ffffffffffffffffffffffffffffffffffffffff168173ffffffffffffffffffffffffffffffffffffffff160361119f576040517f08c379a000000000000000000000000000000000000000000000000000000000815260040161119690613171565b60405180910390fd5b6111a881611c71565b50565b60007f01ffc9a7000000000000000000000000000000000000000000000000000000007bffffffffffffffffffffffffffffffffffffffffffffffffffffffff1916827bffffffffffffffffffffffffffffffffffffffffffffffffffffffff1916149050919050565b61121e81611fe4565b61125d576040517f08c379a000000000000000000000000000000000000000000000000000000000815260040161125490612fed565b60405180910390fd5b50565b600033905090565b816004600083815260200190815260200160002060006101000a81548173ffffffffffffffffffffffffffffffffffffffff021916908373ffffffffffffffffffffffffffffffffffffffff160217905550808273ffffffffffffffffffffffffffffffffffffffff166112db83610cf0565b73ffffffffffffffffffffffffffffffffffffffff167f8c5be1e5ebec7d5bd14f71427d1e84f3dd0314c0f7b2291e5b200ac8c7c3b92560405160405180910390a45050565b60008061132d83610cf0565b90508073ffffffffffffffffffffffffffffffffffffffff168473ffffffffffffffffffffffffffffffffffffffff16148061136f575061136e8185611094565b5b806113ad57508373ffffffffffffffffffffffffffffffffffffffff16611395846107bd565b73ffffffffffffffffffffffffffffffffffffffff16145b91505092915050565b8273ffffffffffffffffffffffffffffffffffffffff166113d682610cf0565b73ffffffffffffffffffffffffffffffffffffffff161461142c576040517f08c379a000000000000000000000000000000000000000000000000000000000815260040161142390613203565b60405180910390fd5b600073ffffffffffffffffffffffffffffffffffffffff168273ffffffffffffffffffffffffffffffffffffffff160361149b576040517f08c379a000000000000000000000000000000000000000000000000000000000815260040161149290613295565b60405180910390fd5b6114a88383836001612025565b8273ffffffffffffffffffffffffffffffffffffffff166114c882610cf0565b73ffffffffffffffffffffffffffffffffffffffff161461151e576040517f08c379a000000000000000000000000000000000000000000000000000000000815260040161151590613203565b60405180910390fd5b6004600082815260200190815260200160002060006101000a81549073ffffffffffffffffffffffffffffffffffffffff02191690556001600360008573ffffffffffffffffffffffffffffffffffffffff1673ffffffffffffffffffffffffffffffffffffffff168152602001908152602001600020600082825403925050819055506001600360008473ffffffffffffffffffffffffffffffffffffffff1673ffffffffffffffffffffffffffffffffffffffff16815260200190815260200160002060008282540192505081905550816002600083815260200190815260200160002060006101000a81548173ffffffffffffffffffffffffffffffffffffffff021916908373ffffffffffffffffffffffffffffffffffffffff160217905550808273ffffffffffffffffffffffffffffffffffffffff168473ffffffffffffffffffffffffffffffffffffffff167fddf252ad1be2c89b69c2b068fc378daa952ba7f163c4a11628f55a4df523b3ef60405160405180910390a46116aa838383600161202b565b505050565b600080600a60009054906101000a900473ffffffffffffffffffffffffffffffffffffffff1673ffffffffffffffffffffffffffffffffffffffff16631f4429aa856040518263ffffffff1660e01b815260040161170d9190612707565b60c060405180830381865afa15801561172a573d6000803e3d6000fd5b505050506040513d601f19601f8201168201806040525081019061174e9190613398565b905060006002811115611764576117636129ae565b5b836002811115611777576117766129ae565b5b0361178d5780602001516000015191505061180c565b600160028111156117a1576117a06129ae565b5b8360028111156117b4576117b36129ae565b5b036117ca5780600001516000015191505061180c565b6002808111156117dd576117dc6129ae565b5b8360028111156117f0576117ef6129ae565b5b036118065780604001516000015191505061180c565b60009150505b92915050565b600080600a60009054906101000a900473ffffffffffffffffffffffffffffffffffffffff1673ffffffffffffffffffffffffffffffffffffffff16631f4429aa856040518263ffffffff1660e01b81526004016118709190612707565b60c060405180830381865afa15801561188d573d6000803e3d6000fd5b505050506040513d601f19601f820116820180604052508101906118b19190613398565b9050600060028111156118c7576118c66129ae565b5b8360028111156118da576118d96129ae565b5b036118f05780602001516020015191505061196f565b60016002811115611904576119036129ae565b5b836002811115611917576119166129ae565b5b0361192d5780600001516020015191505061196f565b6002808111156119405761193f6129ae565b5b836002811115611953576119526129ae565b5b036119695780604001516020015191505061196f565b60009150505b92915050565b600081600001549050919050565b600073ffffffffffffffffffffffffffffffffffffffff168273ffffffffffffffffffffffffffffffffffffffff16036119f2576040517f08c379a00000000000000000000000000000000000000000000000000000000081526004016119e990613411565b60405180910390fd5b6119fb81611fe4565b15611a3b576040517f08c379a0000000000000000000000000000000000000000000000000000000008152600401611a329061347d565b60405180910390fd5b611a49600083836001612025565b611a5281611fe4565b15611a92576040517f08c379a0000000000000000000000000000000000000000000000000000000008152600401611a899061347d565b60405180910390fd5b6001600360008473ffffffffffffffffffffffffffffffffffffffff1673ffffffffffffffffffffffffffffffffffffffff16815260200190815260200160002060008282540192505081905550816002600083815260200190815260200160002060006101000a81548173ffffffffffffffffffffffffffffffffffffffff021916908373ffffffffffffffffffffffffffffffffffffffff160217905550808273ffffffffffffffffffffffffffffffffffffffff16600073ffffffffffffffffffffffffffffffffffffffff167fddf252ad1be2c89b69c2b068fc378daa952ba7f163c4a11628f55a4df523b3ef60405160405180910390a4611b9c60008383600161202b565b5050565b6001816000016000828254019250508190555050565b60006002600083815260200190815260200160002060009054906101000a900473ffffffffffffffffffffffffffffffffffffffff169050919050565b611bfb611260565b73ffffffffffffffffffffffffffffffffffffffff16611c19610e41565b73ffffffffffffffffffffffffffffffffffffffff1614611c6f576040517f08c379a0000000000000000000000000000000000000000000000000000000008152600401611c66906134e9565b60405180910390fd5b565b6000600660009054906101000a900473ffffffffffffffffffffffffffffffffffffffff16905081600660006101000a81548173ffffffffffffffffffffffffffffffffffffffff021916908373ffffffffffffffffffffffffffffffffffffffff1602179055508173ffffffffffffffffffffffffffffffffffffffff168173ffffffffffffffffffffffffffffffffffffffff167f8be0079c531659141344cd1fd0a4f28419497f9722a3daafe3b4186f6b6457e060405160405180910390a35050565b8173ffffffffffffffffffffffffffffffffffffffff168373ffffffffffffffffffffffffffffffffffffffff1603611da5576040517f08c379a0000000000000000000000000000000000000000000000000000000008152600401611d9c90613555565b60405180910390fd5b80600560008573ffffffffffffffffffffffffffffffffffffffff1673ffffffffffffffffffffffffffffffffffffffff16815260200190815260200160002060008473ffffffffffffffffffffffffffffffffffffffff1673ffffffffffffffffffffffffffffffffffffffff16815260200190815260200160002060006101000a81548160ff0219169083151502179055508173ffffffffffffffffffffffffffffffffffffffff168373ffffffffffffffffffffffffffffffffffffffff167f17307eab39ab6107e8899845ad3d59bd9653f200f220920489ca2b5937696c3183604051611e9691906123e2565b60405180910390a3505050565b611eae8484846113b6565b611eba84848484612031565b611ef9576040517f08c379a0000000000000000000000000000000000000000000000000000000008152600401611ef0906135e7565b60405180910390fd5b50505050565b606060405180602001604052806000815250905090565b606060006001611f25846121b8565b01905060008167ffffffffffffffff811115611f4457611f436127c5565b5b6040519080825280601f01601f191660200182016040528015611f765781602001600182028036833780820191505090505b509050600082602001820190505b600115611fd9578080600190039150507f3031323334353637383961626364656600000000000000000000000000000000600a86061a8153600a8581611fcd57611fcc613607565b5b04945060008503611f84575b819350505050919050565b60008073ffffffffffffffffffffffffffffffffffffffff1661200683611bb6565b73ffffffffffffffffffffffffffffffffffffffff1614159050919050565b50505050565b50505050565b60006120528473ffffffffffffffffffffffffffffffffffffffff1661230b565b156121ab578373ffffffffffffffffffffffffffffffffffffffff1663150b7a0261207b611260565b8786866040518563ffffffff1660e01b815260040161209d949392919061368b565b6020604051808303816000875af19250505080156120d957506040513d601f19601f820116820180604052508101906120d691906136ec565b60015b61215b573d8060008114612109576040519150601f19603f3d011682016040523d82523d6000602084013e61210e565b606091505b506000815103612153576040517f08c379a000000000000000000000000000000000000000000000000000000000815260040161214a906135e7565b60405180910390fd5b805181602001fd5b63150b7a0260e01b7bffffffffffffffffffffffffffffffffffffffffffffffffffffffff1916817bffffffffffffffffffffffffffffffffffffffffffffffffffffffff1916149150506121b0565b600190505b949350505050565b600080600090507a184f03e93ff9f4daa797ed6e38ed64bf6a1f0100000000000000008310612216577a184f03e93ff9f4daa797ed6e38ed64bf6a1f010000000000000000838161220c5761220b613607565b5b0492506040810190505b6d04ee2d6d415b85acef81000000008310612253576d04ee2d6d415b85acef8100000000838161224957612248613607565b5b0492506020810190505b662386f26fc10000831061228257662386f26fc10000838161227857612277613607565b5b0492506010810190505b6305f5e10083106122ab576305f5e10083816122a1576122a0613607565b5b0492506008810190505b61271083106122d05761271083816122c6576122c5613607565b5b0492506004810190505b606483106122f357606483816122e9576122e8613607565b5b0492506002810190505b600a8310612302576001810190505b80915050919050565b6000808273ffffffffffffffffffffffffffffffffffffffff163b119050919050565b6000604051905090565b600080fd5b600080fd5b60007fffffffff0000000000000000000000000000000000000000000000000000000082169050919050565b61237781612342565b811461238257600080fd5b50565b6000813590506123948161236e565b92915050565b6000602082840312156123b0576123af612338565b5b60006123be84828501612385565b91505092915050565b60008115159050919050565b6123dc816123c7565b82525050565b60006020820190506123f760008301846123d3565b92915050565b6000819050919050565b612410816123fd565b811461241b57600080fd5b50565b60008135905061242d81612407565b92915050565b600073ffffffffffffffffffffffffffffffffffffffff82169050919050565b600061245e82612433565b9050919050565b61246e81612453565b811461247957600080fd5b50565b60008135905061248b81612465565b92915050565b6003811061249e57600080fd5b50565b6000813590506124b081612491565b92915050565b6000806000606084860312156124cf576124ce612338565b5b60006124dd8682870161241e565b93505060206124ee8682870161247c565b92505060406124ff868287016124a1565b9150509250925092565b600081519050919050565b600082825260208201905092915050565b60005b83811015612543578082015181840152602081019050612528565b60008484015250505050565b6000601f19601f8301169050919050565b600061256b82612509565b6125758185612514565b9350612585818560208601612525565b61258e8161254f565b840191505092915050565b600060208201905081810360008301526125b38184612560565b905092915050565b6000602082840312156125d1576125d0612338565b5b60006125df8482850161241e565b91505092915050565b6125f181612453565b82525050565b600060208201905061260c60008301846125e8565b92915050565b6000806040838503121561262957612628612338565b5b60006126378582860161247c565b92505060206126488582860161241e565b9150509250929050565b60008060006060848603121561266b5761266a612338565b5b60006126798682870161247c565b935050602061268a8682870161247c565b925050604061269b8682870161241e565b9150509250925092565b6000806000606084860312156126be576126bd612338565b5b60006126cc8682870161247c565b93505060206126dd8682870161241e565b92505060406126ee8682870161241e565b9150509250925092565b612701816123fd565b82525050565b600060208201905061271c60008301846126f8565b92915050565b60006020828403121561273857612737612338565b5b60006127468482850161247c565b91505092915050565b612758816123c7565b811461276357600080fd5b50565b6000813590506127758161274f565b92915050565b6000806040838503121561279257612791612338565b5b60006127a08582860161247c565b92505060206127b185828601612766565b9150509250929050565b600080fd5b600080fd5b7f4e487b7100000000000000000000000000000000000000000000000000000000600052604160045260246000fd5b6127fd8261254f565b810181811067ffffffffffffffff8211171561281c5761281b6127c5565b5b80604052505050565b600061282f61232e565b905061283b82826127f4565b919050565b600067ffffffffffffffff82111561285b5761285a6127c5565b5b6128648261254f565b9050602081019050919050565b82818337600083830152505050565b600061289361288e84612840565b612825565b9050828152602081018484840111156128af576128ae6127c0565b5b6128ba848285612871565b509392505050565b600082601f8301126128d7576128d66127bb565b5b81356128e7848260208601612880565b91505092915050565b6000806000806080858703121561290a57612909612338565b5b60006129188782880161247c565b94505060206129298782880161247c565b935050604061293a8782880161241e565b925050606085013567ffffffffffffffff81111561295b5761295a61233d565b5b612967878288016128c2565b91505092959194509250565b600081519050919050565b600082825260208201905092915050565b6000819050602082019050919050565b6129a8816123fd565b82525050565b7f4e487b7100000000000000000000000000000000000000000000000000000000600052602160045260246000fd5b600381106129ee576129ed6129ae565b5b50565b60008190506129ff826129dd565b919050565b6000612a0f826129f1565b9050919050565b612a1f81612a04565b82525050565b604082016000820151612a3b600085018261299f565b506020820151612a4e6020850182612a16565b50505050565b6000612a608383612a25565b60408301905092915050565b6000602082019050919050565b6000612a8482612973565b612a8e818561297e565b9350612a998361298f565b8060005b83811015612aca578151612ab18882612a54565b9750612abc83612a6c565b925050600181019050612a9d565b5085935050505092915050565b60006020820190508181036000830152612af18184612a79565b905092915050565b60008060408385031215612b1057612b0f612338565b5b6000612b1e8582860161247c565b9250506020612b2f8582860161247c565b9150509250929050565b7f4e487b7100000000000000000000000000000000000000000000000000000000600052603260045260246000fd5b7f4e487b7100000000000000000000000000000000000000000000000000000000600052601160045260246000fd5b6000612ba2826123fd565b91507fffffffffffffffffffffffffffffffffffffffffffffffffffffffffffffffff8203612bd457612bd3612b68565b5b600182019050919050565b7f4e487b7100000000000000000000000000000000000000000000000000000000600052602260045260246000fd5b60006002820490506001821680612c2657607f821691505b602082108103612c3957612c38612bdf565b5b50919050565b7f4552433732313a20617070726f76616c20746f2063757272656e74206f776e6560008201527f7200000000000000000000000000000000000000000000000000000000000000602082015250565b6000612c9b602183612514565b9150612ca682612c3f565b604082019050919050565b60006020820190508181036000830152612cca81612c8e565b9050919050565b7f4552433732313a20617070726f76652063616c6c6572206973206e6f7420746f60008201527f6b656e206f776e6572206f7220617070726f76656420666f7220616c6c000000602082015250565b6000612d2d603d83612514565b9150612d3882612cd1565b604082019050919050565b60006020820190508181036000830152612d5c81612d20565b9050919050565b7f4552433732313a2063616c6c6572206973206e6f7420746f6b656e206f776e6560008201527f72206f7220617070726f76656400000000000000000000000000000000000000602082015250565b6000612dbf602d83612514565b9150612dca82612d63565b604082019050919050565b60006020820190508181036000830152612dee81612db2565b9050919050565b7f476976656e206c6963656e73652074797065206973206e6f7420617661696c6160008201527f626c6520666f72207468697320736f6e67210000000000000000000000000000602082015250565b6000612e51603283612514565b9150612e5c82612df5565b604082019050919050565b60006020820190508181036000830152612e8081612e44565b9050919050565b7f496e76616c696420707269636500000000000000000000000000000000000000600082015250565b6000612ebd600d83612514565b9150612ec882612e87565b602082019050919050565b60006020820190508181036000830152612eec81612eb0565b9050919050565b7f4e6f7420656e6f7567682045746865722073656e742100000000000000000000600082015250565b6000612f29601683612514565b9150612f3482612ef3565b602082019050919050565b60006020820190508181036000830152612f5881612f1c565b9050919050565b600081519050612f6e81612465565b92915050565b600060208284031215612f8a57612f89612338565b5b6000612f9884828501612f5f565b91505092915050565b7f4552433732313a20696e76616c696420746f6b656e2049440000000000000000600082015250565b6000612fd7601883612514565b9150612fe282612fa1565b602082019050919050565b6000602082019050818103600083015261300681612fca565b9050919050565b7f4552433732313a2061646472657373207a65726f206973206e6f74206120766160008201527f6c6964206f776e65720000000000000000000000000000000000000000000000602082015250565b6000613069602983612514565b91506130748261300d565b604082019050919050565b600060208201905081810360008301526130988161305c565b9050919050565b600081905092915050565b60006130b582612509565b6130bf818561309f565b93506130cf818560208601612525565b80840191505092915050565b60006130e782856130aa565b91506130f382846130aa565b91508190509392505050565b7f4f776e61626c653a206e6577206f776e657220697320746865207a65726f206160008201527f6464726573730000000000000000000000000000000000000000000000000000602082015250565b600061315b602683612514565b9150613166826130ff565b604082019050919050565b6000602082019050818103600083015261318a8161314e565b9050919050565b7f4552433732313a207472616e736665722066726f6d20696e636f72726563742060008201527f6f776e6572000000000000000000000000000000000000000000000000000000602082015250565b60006131ed602583612514565b91506131f882613191565b604082019050919050565b6000602082019050818103600083015261321c816131e0565b9050919050565b7f4552433732313a207472616e7366657220746f20746865207a65726f2061646460008201527f7265737300000000000000000000000000000000000000000000000000000000602082015250565b600061327f602483612514565b915061328a82613223565b604082019050919050565b600060208201905081810360008301526132ae81613272565b9050919050565b600080fd5b6000815190506132c98161274f565b92915050565b6000815190506132de81612407565b92915050565b6000604082840312156132fa576132f96132b5565b5b6133046040612825565b90506000613314848285016132ba565b6000830152506020613328848285016132cf565b60208301525092915050565b600060c0828403121561334a576133496132b5565b5b6133546060612825565b90506000613364848285016132e4565b6000830152506040613378848285016132e4565b602083015250608061338c848285016132e4565b60408301525092915050565b600060c082840312156133ae576133ad612338565b5b60006133bc84828501613334565b91505092915050565b7f4552433732313a206d696e7420746f20746865207a65726f2061646472657373600082015250565b60006133fb602083612514565b9150613406826133c5565b602082019050919050565b6000602082019050818103600083015261342a816133ee565b9050919050565b7f4552433732313a20746f6b656e20616c7265616479206d696e74656400000000600082015250565b6000613467601c83612514565b915061347282613431565b602082019050919050565b600060208201905081810360008301526134968161345a565b9050919050565b7f4f776e61626c653a2063616c6c6572206973206e6f7420746865206f776e6572600082015250565b60006134d3602083612514565b91506134de8261349d565b602082019050919050565b60006020820190508181036000830152613502816134c6565b9050919050565b7f4552433732313a20617070726f766520746f2063616c6c657200000000000000600082015250565b600061353f601983612514565b915061354a82613509565b602082019050919050565b6000602082019050818103600083015261356e81613532565b9050919050565b7f4552433732313a207472616e7366657220746f206e6f6e20455243373231526560008201527f63656976657220696d706c656d656e7465720000000000000000000000000000602082015250565b60006135d1603283612514565b91506135dc82613575565b604082019050919050565b60006020820190508181036000830152613600816135c4565b9050919050565b7f4e487b7100000000000000000000000000000000000000000000000000000000600052601260045260246000fd5b600081519050919050565b600082825260208201905092915050565b600061365d82613636565b6136678185613641565b9350613677818560208601612525565b6136808161254f565b840191505092915050565b60006080820190506136a060008301876125e8565b6136ad60208301866125e8565b6136ba60408301856126f8565b81810360608301526136cc8184613652565b905095945050505050565b6000815190506136e68161236e565b92915050565b60006020828403121561370257613701612338565b5b6000613710848285016136d7565b9150509291505056fea2646970667358221220d9c2a89734d88d8fa8f3fbf8cfc659ab80eb70832c78e744d34a6ac0fe8c8b0864736f6c63430008120033",
  "linkReferences": {},
  "deployedLinkReferences": {}
}