{
  "_format": "hh-sol-artifact-1",
  "contractName": "SongLicense",
  "sourceName": "contracts/SongLicense.sol",
  "abi": [
    {
      "inputs": [
        {
          "internalType": "address",
          "name": "target",
          "type": "address"
        }
      ],
      "stateMutability": "nonpayable",
      "type": "constructor"
    },
    {
      "anonymous": false,
      "inputs": [
        {
          "indexed": true,
          "internalType": "address",
          "name": "owner",
          "type": "address"
        },
        {
          "indexed": true,
          "internalType": "address",
          "name": "approved",
          "type": "address"
        },
        {
          "indexed": true,
          "internalType": "uint256",
          "name": "tokenId",
          "type": "uint256"
        }
      ],
      "name": "Approval",
      "type": "event"
    },
    {
      "anonymous": false,
      "inputs": [
        {
          "indexed": true,
          "internalType": "address",
          "name": "owner",
          "type": "address"
        },
        {
          "indexed": true,
          "internalType": "address",
          "name": "operator",
          "type": "address"
        },
        {
          "indexed": false,
          "internalType": "bool",
          "name": "approved",
          "type": "bool"
        }
      ],
      "name": "ApprovalForAll",
      "type": "event"
    },
    {
      "anonymous": false,
      "inputs": [
        {
          "indexed": true,
          "internalType": "address",
          "name": "previousOwner",
          "type": "address"
        },
        {
          "indexed": true,
          "internalType": "address",
          "name": "newOwner",
          "type": "address"
        }
      ],
      "name": "OwnershipTransferred",
      "type": "event"
    },
    {
      "anonymous": false,
      "inputs": [
        {
          "indexed": true,
          "internalType": "address",
          "name": "from",
          "type": "address"
        },
        {
          "indexed": true,
          "internalType": "address",
          "name": "to",
          "type": "address"
        },
        {
          "indexed": true,
          "internalType": "uint256",
          "name": "tokenId",
          "type": "uint256"
        }
      ],
      "name": "Transfer",
      "type": "event"
    },
    {
      "inputs": [
        {
          "internalType": "address",
          "name": "to",
          "type": "address"
        },
        {
          "internalType": "uint256",
          "name": "tokenId",
          "type": "uint256"
        }
      ],
      "name": "approve",
      "outputs": [],
      "stateMutability": "nonpayable",
      "type": "function"
    },
    {
      "inputs": [
        {
          "internalType": "address",
          "name": "owner",
          "type": "address"
        }
      ],
      "name": "balanceOf",
      "outputs": [
        {
          "internalType": "uint256",
          "name": "",
          "type": "uint256"
        }
      ],
      "stateMutability": "view",
      "type": "function"
    },
    {
      "inputs": [
        {
          "internalType": "uint256",
          "name": "tokenId",
          "type": "uint256"
        }
      ],
      "name": "getApproved",
      "outputs": [
        {
          "internalType": "address",
          "name": "",
          "type": "address"
        }
      ],
      "stateMutability": "view",
      "type": "function"
    },
    {
      "inputs": [
        {
          "internalType": "uint256",
          "name": "songId",
          "type": "uint256"
        }
      ],
      "name": "getTokenDetails",
      "outputs": [
        {
          "components": [
            {
              "internalType": "uint256",
              "name": "songId",
              "type": "uint256"
            },
            {
              "internalType": "enum SongLicense.LicenseType",
              "name": "licenseType",
              "type": "uint8"
            }
          ],
          "internalType": "struct SongLicense.LicensingInfo[]",
          "name": "",
          "type": "tuple[]"
        }
      ],
      "stateMutability": "view",
      "type": "function"
    },
    {
      "inputs": [
        {
          "internalType": "address",
          "name": "user",
          "type": "address"
        }
      ],
      "name": "getUserLicenses",
      "outputs": [
        {
          "components": [
            {
              "internalType": "uint256",
              "name": "songId",
              "type": "uint256"
            },
            {
              "internalType": "enum SongLicense.LicenseType",
              "name": "licenseType",
              "type": "uint8"
            }
          ],
          "internalType": "struct SongLicense.LicensingInfo[]",
          "name": "",
          "type": "tuple[]"
        }
      ],
      "stateMutability": "view",
      "type": "function"
    },
    {
      "inputs": [
        {
          "internalType": "address",
          "name": "owner",
          "type": "address"
        },
        {
          "internalType": "address",
          "name": "operator",
          "type": "address"
        }
      ],
      "name": "isApprovedForAll",
      "outputs": [
        {
          "internalType": "bool",
          "name": "",
          "type": "bool"
        }
      ],
      "stateMutability": "view",
      "type": "function"
    },
    {
      "inputs": [
        {
          "internalType": "address",
          "name": "recipient",
          "type": "address"
        },
        {
          "internalType": "uint256",
          "name": "songId",
          "type": "uint256"
        },
        {
          "internalType": "uint256",
          "name": "licenseType",
          "type": "uint256"
        }
      ],
      "name": "mintNFT",
      "outputs": [
        {
          "internalType": "uint256",
          "name": "",
          "type": "uint256"
        }
      ],
      "stateMutability": "payable",
      "type": "function"
    },
    {
      "inputs": [],
      "name": "name",
      "outputs": [
        {
          "internalType": "string",
          "name": "",
          "type": "string"
        }
      ],
      "stateMutability": "view",
      "type": "function"
    },
    {
      "inputs": [],
      "name": "owner",
      "outputs": [
        {
          "internalType": "address",
          "name": "",
          "type": "address"
        }
      ],
      "stateMutability": "view",
      "type": "function"
    },
    {
      "inputs": [
        {
          "internalType": "uint256",
          "name": "tokenId",
          "type": "uint256"
        }
      ],
      "name": "ownerOf",
      "outputs": [
        {
          "internalType": "address",
          "name": "",
          "type": "address"
        }
      ],
      "stateMutability": "view",
      "type": "function"
    },
    {
      "inputs": [],
      "name": "renounceOwnership",
      "outputs": [],
      "stateMutability": "nonpayable",
      "type": "function"
    },
    {
      "inputs": [
        {
          "internalType": "address",
          "name": "from",
          "type": "address"
        },
        {
          "internalType": "address",
          "name": "to",
          "type": "address"
        },
        {
          "internalType": "uint256",
          "name": "tokenId",
          "type": "uint256"
        }
      ],
      "name": "safeTransferFrom",
      "outputs": [],
      "stateMutability": "nonpayable",
      "type": "function"
    },
    {
      "inputs": [
        {
          "internalType": "address",
          "name": "from",
          "type": "address"
        },
        {
          "internalType": "address",
          "name": "to",
          "type": "address"
        },
        {
          "internalType": "uint256",
          "name": "tokenId",
          "type": "uint256"
        },
        {
          "internalType": "bytes",
          "name": "data",
          "type": "bytes"
        }
      ],
      "name": "safeTransferFrom",
      "outputs": [],
      "stateMutability": "nonpayable",
      "type": "function"
    },
    {
      "inputs": [
        {
          "internalType": "address",
          "name": "operator",
          "type": "address"
        },
        {
          "internalType": "bool",
          "name": "approved",
          "type": "bool"
        }
      ],
      "name": "setApprovalForAll",
      "outputs": [],
      "stateMutability": "nonpayable",
      "type": "function"
    },
    {
      "inputs": [
        {
          "internalType": "bytes4",
          "name": "interfaceId",
          "type": "bytes4"
        }
      ],
      "name": "supportsInterface",
      "outputs": [
        {
          "internalType": "bool",
          "name": "",
          "type": "bool"
        }
      ],
      "stateMutability": "view",
      "type": "function"
    },
    {
      "inputs": [],
      "name": "symbol",
      "outputs": [
        {
          "internalType": "string",
          "name": "",
          "type": "string"
        }
      ],
      "stateMutability": "view",
      "type": "function"
    },
    {
      "inputs": [
        {
          "internalType": "uint256",
          "name": "tokenId",
          "type": "uint256"
        }
      ],
      "name": "tokenURI",
      "outputs": [
        {
          "internalType": "string",
          "name": "",
          "type": "string"
        }
      ],
      "stateMutability": "view",
      "type": "function"
    },
    {
      "inputs": [
        {
          "internalType": "address",
          "name": "from",
          "type": "address"
        },
        {
          "internalType": "address",
          "name": "to",
          "type": "address"
        },
        {
          "internalType": "uint256",
          "name": "tokenId",
          "type": "uint256"
        }
      ],
      "name": "transferFrom",
      "outputs": [],
      "stateMutability": "nonpayable",
      "type": "function"
    },
    {
      "inputs": [
        {
          "internalType": "address",
          "name": "newOwner",
          "type": "address"
        }
      ],
      "name": "transferOwnership",
      "outputs": [],
      "stateMutability": "nonpayable",
      "type": "function"
    },
    {
      "inputs": [
        {
          "internalType": "uint256",
          "name": "songId",
          "type": "uint256"
        },
        {
          "internalType": "address",
          "name": "owner",
          "type": "address"
        },
        {
          "internalType": "enum SongLicense.LicenseType",
          "name": "license",
          "type": "uint8"
        }
      ],
      "name": "verifyLicenseOwnership",
      "outputs": [
        {
          "internalType": "bool",
          "name": "ok",
          "type": "bool"
        }
      ],
      "stateMutability": "view",
      "type": "function"
    }
  ],
  "bytecode": "0x60806040523480156200001157600080fd5b5060405162003e8638038062003e86833981810160405281019062000037919062000269565b6040518060400160405280600b81526020017f536f6e674c6963656e73650000000000000000000000000000000000000000008152506040518060400160405280600381526020017f4e465400000000000000000000000000000000000000000000000000000000008152508160009081620000b4919062000515565b508060019081620000c6919062000515565b505050620000e9620000dd6200013160201b60201c565b6200013960201b60201c565b80600a60006101000a81548173ffffffffffffffffffffffffffffffffffffffff021916908373ffffffffffffffffffffffffffffffffffffffff16021790555050620005fc565b600033905090565b6000600660009054906101000a900473ffffffffffffffffffffffffffffffffffffffff16905081600660006101000a81548173ffffffffffffffffffffffffffffffffffffffff021916908373ffffffffffffffffffffffffffffffffffffffff1602179055508173ffffffffffffffffffffffffffffffffffffffff168173ffffffffffffffffffffffffffffffffffffffff167f8be0079c531659141344cd1fd0a4f28419497f9722a3daafe3b4186f6b6457e060405160405180910390a35050565b600080fd5b600073ffffffffffffffffffffffffffffffffffffffff82169050919050565b6000620002318262000204565b9050919050565b620002438162000224565b81146200024f57600080fd5b50565b600081519050620002638162000238565b92915050565b600060208284031215620002825762000281620001ff565b5b6000620002928482850162000252565b91505092915050565b600081519050919050565b7f4e487b7100000000000000000000000000000000000000000000000000000000600052604160045260246000fd5b7f4e487b7100000000000000000000000000000000000000000000000000000000600052602260045260246000fd5b600060028204905060018216806200031d57607f821691505b602082108103620003335762000332620002d5565b5b50919050565b60008190508160005260206000209050919050565b60006020601f8301049050919050565b600082821b905092915050565b6000600883026200039d7fffffffffffffffffffffffffffffffffffffffffffffffffffffffffffffffff826200035e565b620003a986836200035e565b95508019841693508086168417925050509392505050565b6000819050919050565b6000819050919050565b6000620003f6620003f0620003ea84620003c1565b620003cb565b620003c1565b9050919050565b6000819050919050565b6200041283620003d5565b6200042a6200042182620003fd565b8484546200036b565b825550505050565b600090565b6200044162000432565b6200044e81848462000407565b505050565b5b8181101562000476576200046a60008262000437565b60018101905062000454565b5050565b601f821115620004c5576200048f8162000339565b6200049a846200034e565b81016020851015620004aa578190505b620004c2620004b9856200034e565b83018262000453565b50505b505050565b600082821c905092915050565b6000620004ea60001984600802620004ca565b1980831691505092915050565b6000620005058383620004d7565b9150826002028217905092915050565b62000520826200029b565b67ffffffffffffffff8111156200053c576200053b620002a6565b5b62000548825462000304565b620005558282856200047a565b600060209050601f8311600181146200058d576000841562000578578287015190505b620005848582620004f7565b865550620005f4565b601f1984166200059d8662000339565b60005b82811015620005c757848901518255600182019150602085019450602081019050620005a0565b86831015620005e75784890151620005e3601f891682620004d7565b8355505b6001600288020188555050505b505050505050565b61387a806200060c6000396000f3fe60806040526004361061011f5760003560e01c8063715018a6116100a0578063b88d4fde11610064578063b88d4fde146103fe578063c1e0372814610427578063c87b56dd14610464578063e985e9c5146104a1578063f2fde38b146104de5761011f565b8063715018a61461032b57806375a106c3146103425780638da5cb5b1461037f57806395d89b41146103aa578063a22cb465146103d55761011f565b806323b872dd116100e757806323b872dd1461022f57806342842e0e146102585780635a9d10a2146102815780636352211e146102b157806370a08231146102ee5761011f565b806301ffc9a71461012457806305eb12051461016157806306fdde031461019e578063081812fc146101c9578063095ea7b314610206575b600080fd5b34801561013057600080fd5b5061014b600480360381019061014691906124c5565b610507565b604051610158919061250d565b60405180910390f35b34801561016d57600080fd5b50610188600480360381019061018391906125e1565b6105e9565b604051610195919061250d565b60405180910390f35b3480156101aa57600080fd5b506101b3610773565b6040516101c091906126c4565b60405180910390f35b3480156101d557600080fd5b506101f060048036038101906101eb91906126e6565b610805565b6040516101fd9190612722565b60405180910390f35b34801561021257600080fd5b5061022d6004803603810190610228919061273d565b61084b565b005b34801561023b57600080fd5b506102566004803603810190610251919061277d565b610962565b005b34801561026457600080fd5b5061027f600480360381019061027a919061277d565b6109c2565b005b61029b600480360381019061029691906127d0565b6109e2565b6040516102a89190612832565b60405180910390f35b3480156102bd57600080fd5b506102d860048036038101906102d391906126e6565b610d38565b6040516102e59190612722565b60405180910390f35b3480156102fa57600080fd5b506103156004803603810190610310919061284d565b610dbe565b6040516103229190612832565b60405180910390f35b34801561033757600080fd5b50610340610e75565b005b34801561034e57600080fd5b506103696004803603810190610364919061284d565b610e89565b60405161037691906129de565b60405180910390f35b34801561038b57600080fd5b50610394610f6c565b6040516103a19190612722565b60405180910390f35b3480156103b657600080fd5b506103bf610f96565b6040516103cc91906126c4565b60405180910390f35b3480156103e157600080fd5b506103fc60048036038101906103f79190612a2c565b611028565b005b34801561040a57600080fd5b5061042560048036038101906104209190612ba1565b61103e565b005b34801561043357600080fd5b5061044e600480360381019061044991906126e6565b6110a0565b60405161045b91906129de565b60405180910390f35b34801561047057600080fd5b5061048b600480360381019061048691906126e6565b611157565b60405161049891906126c4565b60405180910390f35b3480156104ad57600080fd5b506104c860048036038101906104c39190612c24565b6111bf565b6040516104d5919061250d565b60405180910390f35b3480156104ea57600080fd5b506105056004803603810190610500919061284d565b611253565b005b60007f80ac58cd000000000000000000000000000000000000000000000000000000007bffffffffffffffffffffffffffffffffffffffffffffffffffffffff1916827bffffffffffffffffffffffffffffffffffffffffffffffffffffffff191614806105d257507f5b5e139f000000000000000000000000000000000000000000000000000000007bffffffffffffffffffffffffffffffffffffffffffffffffffffffff1916827bffffffffffffffffffffffffffffffffffffffffffffffffffffffff1916145b806105e257506105e1826112d6565b5b9050919050565b600080600860008573ffffffffffffffffffffffffffffffffffffffff1673ffffffffffffffffffffffffffffffffffffffff168152602001908152602001600020805480602002602001604051908101604052809291908181526020016000905b828210156106c25783829060005260206000209060020201604051806040016040529081600082015481526020016001820160009054906101000a900460ff16600281111561069d5761069c6128b5565b5b60028111156106af576106ae6128b5565b5b815250508152602001906001019061064b565b50505050905060005b815181101561076557858282815181106106e8576106e7612c64565b5b602002602001015160000151148015610742575083600281111561070f5761070e6128b5565b5b82828151811061072257610721612c64565b5b60200260200101516020015160028111156107405761073f6128b5565b5b145b156107525760019250505061076c565b808061075d90612cc2565b9150506106cb565b5060009150505b9392505050565b60606000805461078290612d39565b80601f01602080910402602001604051908101604052809291908181526020018280546107ae90612d39565b80156107fb5780601f106107d0576101008083540402835291602001916107fb565b820191906000526020600020905b8154815290600101906020018083116107de57829003601f168201915b5050505050905090565b600061081082611340565b6004600083815260200190815260200160002060009054906101000a900473ffffffffffffffffffffffffffffffffffffffff169050919050565b600061085682610d38565b90508073ffffffffffffffffffffffffffffffffffffffff168373ffffffffffffffffffffffffffffffffffffffff16036108c6576040517f08c379a00000000000000000000000000000000000000000000000000000000081526004016108bd90612ddc565b60405180910390fd5b8073ffffffffffffffffffffffffffffffffffffffff166108e561138b565b73ffffffffffffffffffffffffffffffffffffffff16148061091457506109138161090e61138b565b6111bf565b5b610953576040517f08c379a000000000000000000000000000000000000000000000000000000000815260040161094a90612e6e565b60405180910390fd5b61095d8383611393565b505050565b61097361096d61138b565b8261144c565b6109b2576040517f08c379a00000000000000000000000000000000000000000000000000000000081526004016109a990612f00565b60405180910390fd5b6109bd8383836114e1565b505050565b6109dd8383836040518060200160405280600081525061103e565b505050565b6000808260028111156109f8576109f76128b5565b5b9050610a0484826117da565b610a43576040517f08c379a0000000000000000000000000000000000000000000000000000000008152600401610a3a90612f92565b60405180910390fd5b6000610a4f858361193d565b905060008103610a94576040517f08c379a0000000000000000000000000000000000000000000000000000000008152600401610a8b90612ffe565b60405180910390fd5b80341015610ad7576040517f08c379a0000000000000000000000000000000000000000000000000000000008152600401610ace9061306a565b60405180910390fd5b6000600a60009054906101000a900473ffffffffffffffffffffffffffffffffffffffff1673ffffffffffffffffffffffffffffffffffffffff1663a5cd761f876040518263ffffffff1660e01b8152600401610b349190612832565b602060405180830381865afa158015610b51573d6000803e3d6000fd5b505050506040513d601f19601f82011682018060405250810190610b75919061309f565b90508073ffffffffffffffffffffffffffffffffffffffff166108fc349081150290604051600060405180830381858888f19350505050158015610bbd573d6000803e3d6000fd5b506000610bca6009611aa0565b9050610bd68882611aae565b610be06009611ccb565b60006040518060400160405280898152602001866002811115610c0657610c056128b5565b5b8152509050600760008981526020019081526020016000208190806001815401808255809150506001900390600052602060002090600202016000909190919091506000820151816000015560208201518160010160006101000a81548160ff02191690836002811115610c7d57610c7c6128b5565b5b02179055505050600860008a73ffffffffffffffffffffffffffffffffffffffff1673ffffffffffffffffffffffffffffffffffffffff1681526020019081526020016000208190806001815401808255809150506001900390600052602060002090600202016000909190919091506000820151816000015560208201518160010160006101000a81548160ff02191690836002811115610d2257610d216128b5565b5b0217905550505081955050505050509392505050565b600080610d4483611ce1565b9050600073ffffffffffffffffffffffffffffffffffffffff168173ffffffffffffffffffffffffffffffffffffffff1603610db5576040517f08c379a0000000000000000000000000000000000000000000000000000000008152600401610dac90613118565b60405180910390fd5b80915050919050565b60008073ffffffffffffffffffffffffffffffffffffffff168273ffffffffffffffffffffffffffffffffffffffff1603610e2e576040517f08c379a0000000000000000000000000000000000000000000000000000000008152600401610e25906131aa565b60405180910390fd5b600360008373ffffffffffffffffffffffffffffffffffffffff1673ffffffffffffffffffffffffffffffffffffffff168152602001908152602001600020549050919050565b610e7d611d1e565b610e876000611d9c565b565b6060600860008373ffffffffffffffffffffffffffffffffffffffff1673ffffffffffffffffffffffffffffffffffffffff168152602001908152602001600020805480602002602001604051908101604052809291908181526020016000905b82821015610f615783829060005260206000209060020201604051806040016040529081600082015481526020016001820160009054906101000a900460ff166002811115610f3c57610f3b6128b5565b5b6002811115610f4e57610f4d6128b5565b5b8152505081526020019060010190610eea565b505050509050919050565b6000600660009054906101000a900473ffffffffffffffffffffffffffffffffffffffff16905090565b606060018054610fa590612d39565b80601f0160208091040260200160405190810160405280929190818152602001828054610fd190612d39565b801561101e5780601f10610ff35761010080835404028352916020019161101e565b820191906000526020600020905b81548152906001019060200180831161100157829003601f168201915b5050505050905090565b61103a61103361138b565b8383611e62565b5050565b61104f61104961138b565b8361144c565b61108e576040517f08c379a000000000000000000000000000000000000000000000000000000000815260040161108590612f00565b60405180910390fd5b61109a84848484611fce565b50505050565b606060076000838152602001908152602001600020805480602002602001604051908101604052809291908181526020016000905b8282101561114c5783829060005260206000209060020201604051806040016040529081600082015481526020016001820160009054906101000a900460ff166002811115611127576111266128b5565b5b6002811115611139576111386128b5565b5b81525050815260200190600101906110d5565b505050509050919050565b606061116282611340565b600061116c61202a565b9050600081511161118c57604051806020016040528060008152506111b7565b8061119684612041565b6040516020016111a7929190613206565b6040516020818303038152906040525b915050919050565b6000600560008473ffffffffffffffffffffffffffffffffffffffff1673ffffffffffffffffffffffffffffffffffffffff16815260200190815260200160002060008373ffffffffffffffffffffffffffffffffffffffff1673ffffffffffffffffffffffffffffffffffffffff16815260200190815260200160002060009054906101000a900460ff16905092915050565b61125b611d1e565b600073ffffffffffffffffffffffffffffffffffffffff168173ffffffffffffffffffffffffffffffffffffffff16036112ca576040517f08c379a00000000000000000000000000000000000000000000000000000000081526004016112c19061329c565b60405180910390fd5b6112d381611d9c565b50565b60007f01ffc9a7000000000000000000000000000000000000000000000000000000007bffffffffffffffffffffffffffffffffffffffffffffffffffffffff1916827bffffffffffffffffffffffffffffffffffffffffffffffffffffffff1916149050919050565b6113498161210f565b611388576040517f08c379a000000000000000000000000000000000000000000000000000000000815260040161137f90613118565b60405180910390fd5b50565b600033905090565b816004600083815260200190815260200160002060006101000a81548173ffffffffffffffffffffffffffffffffffffffff021916908373ffffffffffffffffffffffffffffffffffffffff160217905550808273ffffffffffffffffffffffffffffffffffffffff1661140683610d38565b73ffffffffffffffffffffffffffffffffffffffff167f8c5be1e5ebec7d5bd14f71427d1e84f3dd0314c0f7b2291e5b200ac8c7c3b92560405160405180910390a45050565b60008061145883610d38565b90508073ffffffffffffffffffffffffffffffffffffffff168473ffffffffffffffffffffffffffffffffffffffff16148061149a575061149981856111bf565b5b806114d857508373ffffffffffffffffffffffffffffffffffffffff166114c084610805565b73ffffffffffffffffffffffffffffffffffffffff16145b91505092915050565b8273ffffffffffffffffffffffffffffffffffffffff1661150182610d38565b73ffffffffffffffffffffffffffffffffffffffff1614611557576040517f08c379a000000000000000000000000000000000000000000000000000000000815260040161154e9061332e565b60405180910390fd5b600073ffffffffffffffffffffffffffffffffffffffff168273ffffffffffffffffffffffffffffffffffffffff16036115c6576040517f08c379a00000000000000000000000000000000000000000000000000000000081526004016115bd906133c0565b60405180910390fd5b6115d38383836001612150565b8273ffffffffffffffffffffffffffffffffffffffff166115f382610d38565b73ffffffffffffffffffffffffffffffffffffffff1614611649576040517f08c379a00000000000000000000000000000000000000000000000000000000081526004016116409061332e565b60405180910390fd5b6004600082815260200190815260200160002060006101000a81549073ffffffffffffffffffffffffffffffffffffffff02191690556001600360008573ffffffffffffffffffffffffffffffffffffffff1673ffffffffffffffffffffffffffffffffffffffff168152602001908152602001600020600082825403925050819055506001600360008473ffffffffffffffffffffffffffffffffffffffff1673ffffffffffffffffffffffffffffffffffffffff16815260200190815260200160002060008282540192505081905550816002600083815260200190815260200160002060006101000a81548173ffffffffffffffffffffffffffffffffffffffff021916908373ffffffffffffffffffffffffffffffffffffffff160217905550808273ffffffffffffffffffffffffffffffffffffffff168473ffffffffffffffffffffffffffffffffffffffff167fddf252ad1be2c89b69c2b068fc378daa952ba7f163c4a11628f55a4df523b3ef60405160405180910390a46117d58383836001612156565b505050565b600080600a60009054906101000a900473ffffffffffffffffffffffffffffffffffffffff1673ffffffffffffffffffffffffffffffffffffffff16631f4429aa856040518263ffffffff1660e01b81526004016118389190612832565b60c060405180830381865afa158015611855573d6000803e3d6000fd5b505050506040513d601f19601f8201168201806040525081019061187991906134c3565b90506000600281111561188f5761188e6128b5565b5b8360028111156118a2576118a16128b5565b5b036118b857806020015160000151915050611937565b600160028111156118cc576118cb6128b5565b5b8360028111156118df576118de6128b5565b5b036118f557806000015160000151915050611937565b600280811115611908576119076128b5565b5b83600281111561191b5761191a6128b5565b5b0361193157806040015160000151915050611937565b60009150505b92915050565b600080600a60009054906101000a900473ffffffffffffffffffffffffffffffffffffffff1673ffffffffffffffffffffffffffffffffffffffff16631f4429aa856040518263ffffffff1660e01b815260040161199b9190612832565b60c060405180830381865afa1580156119b8573d6000803e3d6000fd5b505050506040513d601f19601f820116820180604052508101906119dc91906134c3565b9050600060028111156119f2576119f16128b5565b5b836002811115611a0557611a046128b5565b5b03611a1b57806020015160200151915050611a9a565b60016002811115611a2f57611a2e6128b5565b5b836002811115611a4257611a416128b5565b5b03611a5857806000015160200151915050611a9a565b600280811115611a6b57611a6a6128b5565b5b836002811115611a7e57611a7d6128b5565b5b03611a9457806040015160200151915050611a9a565b60009150505b92915050565b600081600001549050919050565b600073ffffffffffffffffffffffffffffffffffffffff168273ffffffffffffffffffffffffffffffffffffffff1603611b1d576040517f08c379a0000000000000000000000000000000000000000000000000000000008152600401611b149061353c565b60405180910390fd5b611b268161210f565b15611b66576040517f08c379a0000000000000000000000000000000000000000000000000000000008152600401611b5d906135a8565b60405180910390fd5b611b74600083836001612150565b611b7d8161210f565b15611bbd576040517f08c379a0000000000000000000000000000000000000000000000000000000008152600401611bb4906135a8565b60405180910390fd5b6001600360008473ffffffffffffffffffffffffffffffffffffffff1673ffffffffffffffffffffffffffffffffffffffff16815260200190815260200160002060008282540192505081905550816002600083815260200190815260200160002060006101000a81548173ffffffffffffffffffffffffffffffffffffffff021916908373ffffffffffffffffffffffffffffffffffffffff160217905550808273ffffffffffffffffffffffffffffffffffffffff16600073ffffffffffffffffffffffffffffffffffffffff167fddf252ad1be2c89b69c2b068fc378daa952ba7f163c4a11628f55a4df523b3ef60405160405180910390a4611cc7600083836001612156565b5050565b6001816000016000828254019250508190555050565b60006002600083815260200190815260200160002060009054906101000a900473ffffffffffffffffffffffffffffffffffffffff169050919050565b611d2661138b565b73ffffffffffffffffffffffffffffffffffffffff16611d44610f6c565b73ffffffffffffffffffffffffffffffffffffffff1614611d9a576040517f08c379a0000000000000000000000000000000000000000000000000000000008152600401611d9190613614565b60405180910390fd5b565b6000600660009054906101000a900473ffffffffffffffffffffffffffffffffffffffff16905081600660006101000a81548173ffffffffffffffffffffffffffffffffffffffff021916908373ffffffffffffffffffffffffffffffffffffffff1602179055508173ffffffffffffffffffffffffffffffffffffffff168173ffffffffffffffffffffffffffffffffffffffff167f8be0079c531659141344cd1fd0a4f28419497f9722a3daafe3b4186f6b6457e060405160405180910390a35050565b8173ffffffffffffffffffffffffffffffffffffffff168373ffffffffffffffffffffffffffffffffffffffff1603611ed0576040517f08c379a0000000000000000000000000000000000000000000000000000000008152600401611ec790613680565b60405180910390fd5b80600560008573ffffffffffffffffffffffffffffffffffffffff1673ffffffffffffffffffffffffffffffffffffffff16815260200190815260200160002060008473ffffffffffffffffffffffffffffffffffffffff1673ffffffffffffffffffffffffffffffffffffffff16815260200190815260200160002060006101000a81548160ff0219169083151502179055508173ffffffffffffffffffffffffffffffffffffffff168373ffffffffffffffffffffffffffffffffffffffff167f17307eab39ab6107e8899845ad3d59bd9653f200f220920489ca2b5937696c3183604051611fc1919061250d565b60405180910390a3505050565b611fd98484846114e1565b611fe58484848461215c565b612024576040517f08c379a000000000000000000000000000000000000000000000000000000000815260040161201b90613712565b60405180910390fd5b50505050565b606060405180602001604052806000815250905090565b606060006001612050846122e3565b01905060008167ffffffffffffffff81111561206f5761206e612a76565b5b6040519080825280601f01601f1916602001820160405280156120a15781602001600182028036833780820191505090505b509050600082602001820190505b600115612104578080600190039150507f3031323334353637383961626364656600000000000000000000000000000000600a86061a8153600a85816120f8576120f7613732565b5b049450600085036120af575b819350505050919050565b60008073ffffffffffffffffffffffffffffffffffffffff1661213183611ce1565b73ffffffffffffffffffffffffffffffffffffffff1614159050919050565b50505050565b50505050565b600061217d8473ffffffffffffffffffffffffffffffffffffffff16612436565b156122d6578373ffffffffffffffffffffffffffffffffffffffff1663150b7a026121a661138b565b8786866040518563ffffffff1660e01b81526004016121c894939291906137b6565b6020604051808303816000875af192505050801561220457506040513d601f19601f820116820180604052508101906122019190613817565b60015b612286573d8060008114612234576040519150601f19603f3d011682016040523d82523d6000602084013e612239565b606091505b50600081510361227e576040517f08c379a000000000000000000000000000000000000000000000000000000000815260040161227590613712565b60405180910390fd5b805181602001fd5b63150b7a0260e01b7bffffffffffffffffffffffffffffffffffffffffffffffffffffffff1916817bffffffffffffffffffffffffffffffffffffffffffffffffffffffff1916149150506122db565b600190505b949350505050565b600080600090507a184f03e93ff9f4daa797ed6e38ed64bf6a1f0100000000000000008310612341577a184f03e93ff9f4daa797ed6e38ed64bf6a1f010000000000000000838161233757612336613732565b5b0492506040810190505b6d04ee2d6d415b85acef8100000000831061237e576d04ee2d6d415b85acef8100000000838161237457612373613732565b5b0492506020810190505b662386f26fc1000083106123ad57662386f26fc1000083816123a3576123a2613732565b5b0492506010810190505b6305f5e10083106123d6576305f5e10083816123cc576123cb613732565b5b0492506008810190505b61271083106123fb5761271083816123f1576123f0613732565b5b0492506004810190505b6064831061241e576064838161241457612413613732565b5b0492506002810190505b600a831061242d576001810190505b80915050919050565b6000808273ffffffffffffffffffffffffffffffffffffffff163b119050919050565b6000604051905090565b600080fd5b600080fd5b60007fffffffff0000000000000000000000000000000000000000000000000000000082169050919050565b6124a28161246d565b81146124ad57600080fd5b50565b6000813590506124bf81612499565b92915050565b6000602082840312156124db576124da612463565b5b60006124e9848285016124b0565b91505092915050565b60008115159050919050565b612507816124f2565b82525050565b600060208201905061252260008301846124fe565b92915050565b6000819050919050565b61253b81612528565b811461254657600080fd5b50565b60008135905061255881612532565b92915050565b600073ffffffffffffffffffffffffffffffffffffffff82169050919050565b60006125898261255e565b9050919050565b6125998161257e565b81146125a457600080fd5b50565b6000813590506125b681612590565b92915050565b600381106125c957600080fd5b50565b6000813590506125db816125bc565b92915050565b6000806000606084860312156125fa576125f9612463565b5b600061260886828701612549565b9350506020612619868287016125a7565b925050604061262a868287016125cc565b9150509250925092565b600081519050919050565b600082825260208201905092915050565b60005b8381101561266e578082015181840152602081019050612653565b60008484015250505050565b6000601f19601f8301169050919050565b600061269682612634565b6126a0818561263f565b93506126b0818560208601612650565b6126b98161267a565b840191505092915050565b600060208201905081810360008301526126de818461268b565b905092915050565b6000602082840312156126fc576126fb612463565b5b600061270a84828501612549565b91505092915050565b61271c8161257e565b82525050565b60006020820190506127376000830184612713565b92915050565b6000806040838503121561275457612753612463565b5b6000612762858286016125a7565b925050602061277385828601612549565b9150509250929050565b60008060006060848603121561279657612795612463565b5b60006127a4868287016125a7565b93505060206127b5868287016125a7565b92505060406127c686828701612549565b9150509250925092565b6000806000606084860312156127e9576127e8612463565b5b60006127f7868287016125a7565b935050602061280886828701612549565b925050604061281986828701612549565b9150509250925092565b61282c81612528565b82525050565b60006020820190506128476000830184612823565b92915050565b60006020828403121561286357612862612463565b5b6000612871848285016125a7565b91505092915050565b600081519050919050565b600082825260208201905092915050565b6000819050602082019050919050565b6128af81612528565b82525050565b7f4e487b7100000000000000000000000000000000000000000000000000000000600052602160045260246000fd5b600381106128f5576128f46128b5565b5b50565b6000819050612906826128e4565b919050565b6000612916826128f8565b9050919050565b6129268161290b565b82525050565b60408201600082015161294260008501826128a6565b506020820151612955602085018261291d565b50505050565b6000612967838361292c565b60408301905092915050565b6000602082019050919050565b600061298b8261287a565b6129958185612885565b93506129a083612896565b8060005b838110156129d15781516129b8888261295b565b97506129c383612973565b9250506001810190506129a4565b5085935050505092915050565b600060208201905081810360008301526129f88184612980565b905092915050565b612a09816124f2565b8114612a1457600080fd5b50565b600081359050612a2681612a00565b92915050565b60008060408385031215612a4357612a42612463565b5b6000612a51858286016125a7565b9250506020612a6285828601612a17565b9150509250929050565b600080fd5b600080fd5b7f4e487b7100000000000000000000000000000000000000000000000000000000600052604160045260246000fd5b612aae8261267a565b810181811067ffffffffffffffff82111715612acd57612acc612a76565b5b80604052505050565b6000612ae0612459565b9050612aec8282612aa5565b919050565b600067ffffffffffffffff821115612b0c57612b0b612a76565b5b612b158261267a565b9050602081019050919050565b82818337600083830152505050565b6000612b44612b3f84612af1565b612ad6565b905082815260208101848484011115612b6057612b5f612a71565b5b612b6b848285612b22565b509392505050565b600082601f830112612b8857612b87612a6c565b5b8135612b98848260208601612b31565b91505092915050565b60008060008060808587031215612bbb57612bba612463565b5b6000612bc9878288016125a7565b9450506020612bda878288016125a7565b9350506040612beb87828801612549565b925050606085013567ffffffffffffffff811115612c0c57612c0b612468565b5b612c1887828801612b73565b91505092959194509250565b60008060408385031215612c3b57612c3a612463565b5b6000612c49858286016125a7565b9250506020612c5a858286016125a7565b9150509250929050565b7f4e487b7100000000000000000000000000000000000000000000000000000000600052603260045260246000fd5b7f4e487b7100000000000000000000000000000000000000000000000000000000600052601160045260246000fd5b6000612ccd82612528565b91507fffffffffffffffffffffffffffffffffffffffffffffffffffffffffffffffff8203612cff57612cfe612c93565b5b600182019050919050565b7f4e487b7100000000000000000000000000000000000000000000000000000000600052602260045260246000fd5b60006002820490506001821680612d5157607f821691505b602082108103612d6457612d63612d0a565b5b50919050565b7f4552433732313a20617070726f76616c20746f2063757272656e74206f776e6560008201527f7200000000000000000000000000000000000000000000000000000000000000602082015250565b6000612dc660218361263f565b9150612dd182612d6a565b604082019050919050565b60006020820190508181036000830152612df581612db9565b9050919050565b7f4552433732313a20617070726f76652063616c6c6572206973206e6f7420746f60008201527f6b656e206f776e6572206f7220617070726f76656420666f7220616c6c000000602082015250565b6000612e58603d8361263f565b9150612e6382612dfc565b604082019050919050565b60006020820190508181036000830152612e8781612e4b565b9050919050565b7f4552433732313a2063616c6c6572206973206e6f7420746f6b656e206f776e6560008201527f72206f7220617070726f76656400000000000000000000000000000000000000602082015250565b6000612eea602d8361263f565b9150612ef582612e8e565b604082019050919050565b60006020820190508181036000830152612f1981612edd565b9050919050565b7f476976656e206c6963656e73652074797065206973206e6f7420617661696c6160008201527f626c6520666f72207468697320736f6e67210000000000000000000000000000602082015250565b6000612f7c60328361263f565b9150612f8782612f20565b604082019050919050565b60006020820190508181036000830152612fab81612f6f565b9050919050565b7f496e76616c696420707269636500000000000000000000000000000000000000600082015250565b6000612fe8600d8361263f565b9150612ff382612fb2565b602082019050919050565b6000602082019050818103600083015261301781612fdb565b9050919050565b7f4e6f7420656e6f7567682045746865722073656e742100000000000000000000600082015250565b600061305460168361263f565b915061305f8261301e565b602082019050919050565b6000602082019050818103600083015261308381613047565b9050919050565b60008151905061309981612590565b92915050565b6000602082840312156130b5576130b4612463565b5b60006130c38482850161308a565b91505092915050565b7f4552433732313a20696e76616c696420746f6b656e2049440000000000000000600082015250565b600061310260188361263f565b915061310d826130cc565b602082019050919050565b60006020820190508181036000830152613131816130f5565b9050919050565b7f4552433732313a2061646472657373207a65726f206973206e6f74206120766160008201527f6c6964206f776e65720000000000000000000000000000000000000000000000602082015250565b600061319460298361263f565b915061319f82613138565b604082019050919050565b600060208201905081810360008301526131c381613187565b9050919050565b600081905092915050565b60006131e082612634565b6131ea81856131ca565b93506131fa818560208601612650565b80840191505092915050565b600061321282856131d5565b915061321e82846131d5565b91508190509392505050565b7f4f776e61626c653a206e6577206f776e657220697320746865207a65726f206160008201527f6464726573730000000000000000000000000000000000000000000000000000602082015250565b600061328660268361263f565b91506132918261322a565b604082019050919050565b600060208201905081810360008301526132b581613279565b9050919050565b7f4552433732313a207472616e736665722066726f6d20696e636f72726563742060008201527f6f776e6572000000000000000000000000000000000000000000000000000000602082015250565b600061331860258361263f565b9150613323826132bc565b604082019050919050565b600060208201905081810360008301526133478161330b565b9050919050565b7f4552433732313a207472616e7366657220746f20746865207a65726f2061646460008201527f7265737300000000000000000000000000000000000000000000000000000000602082015250565b60006133aa60248361263f565b91506133b58261334e565b604082019050919050565b600060208201905081810360008301526133d98161339d565b9050919050565b600080fd5b6000815190506133f481612a00565b92915050565b60008151905061340981612532565b92915050565b600060408284031215613425576134246133e0565b5b61342f6040612ad6565b9050600061343f848285016133e5565b6000830152506020613453848285016133fa565b60208301525092915050565b600060c08284031215613475576134746133e0565b5b61347f6060612ad6565b9050600061348f8482850161340f565b60008301525060406134a38482850161340f565b60208301525060806134b78482850161340f565b60408301525092915050565b600060c082840312156134d9576134d8612463565b5b60006134e78482850161345f565b91505092915050565b7f4552433732313a206d696e7420746f20746865207a65726f2061646472657373600082015250565b600061352660208361263f565b9150613531826134f0565b602082019050919050565b6000602082019050818103600083015261355581613519565b9050919050565b7f4552433732313a20746f6b656e20616c7265616479206d696e74656400000000600082015250565b6000613592601c8361263f565b915061359d8261355c565b602082019050919050565b600060208201905081810360008301526135c181613585565b9050919050565b7f4f776e61626c653a2063616c6c6572206973206e6f7420746865206f776e6572600082015250565b60006135fe60208361263f565b9150613609826135c8565b602082019050919050565b6000602082019050818103600083015261362d816135f1565b9050919050565b7f4552433732313a20617070726f766520746f2063616c6c657200000000000000600082015250565b600061366a60198361263f565b915061367582613634565b602082019050919050565b600060208201905081810360008301526136998161365d565b9050919050565b7f4552433732313a207472616e7366657220746f206e6f6e20455243373231526560008201527f63656976657220696d706c656d656e7465720000000000000000000000000000602082015250565b60006136fc60328361263f565b9150613707826136a0565b604082019050919050565b6000602082019050818103600083015261372b816136ef565b9050919050565b7f4e487b7100000000000000000000000000000000000000000000000000000000600052601260045260246000fd5b600081519050919050565b600082825260208201905092915050565b600061378882613761565b613792818561376c565b93506137a2818560208601612650565b6137ab8161267a565b840191505092915050565b60006080820190506137cb6000830187612713565b6137d86020830186612713565b6137e56040830185612823565b81810360608301526137f7818461377d565b905095945050505050565b60008151905061381181612499565b92915050565b60006020828403121561382d5761382c612463565b5b600061383b84828501613802565b9150509291505056fea2646970667358221220e9726319edae643ff5fe46fe52eb48b07561a28244e821c27ecb11cca3eb075064736f6c63430008120033",
  "linkReferences": {},
  "deployedLinkReferences": {}
}