{
  "_format": "hh-sol-artifact-1",
  "contractName": "SongNFT",
  "sourceName": "contracts/SongNFT.sol",
  "abi": [
    {
      "inputs": [],
      "stateMutability": "nonpayable",
      "type": "constructor"
    },
    {
      "anonymous": false,
      "inputs": [
        {
          "indexed": true,
          "internalType": "address",
          "name": "owner",
          "type": "address"
        },
        {
          "indexed": true,
          "internalType": "address",
          "name": "approved",
          "type": "address"
        },
        {
          "indexed": true,
          "internalType": "uint256",
          "name": "tokenId",
          "type": "uint256"
        }
      ],
      "name": "Approval",
      "type": "event"
    },
    {
      "anonymous": false,
      "inputs": [
        {
          "indexed": true,
          "internalType": "address",
          "name": "owner",
          "type": "address"
        },
        {
          "indexed": true,
          "internalType": "address",
          "name": "operator",
          "type": "address"
        },
        {
          "indexed": false,
          "internalType": "bool",
          "name": "approved",
          "type": "bool"
        }
      ],
      "name": "ApprovalForAll",
      "type": "event"
    },
    {
      "anonymous": false,
      "inputs": [
        {
          "indexed": true,
          "internalType": "address",
          "name": "previousOwner",
          "type": "address"
        },
        {
          "indexed": true,
          "internalType": "address",
          "name": "newOwner",
          "type": "address"
        }
      ],
      "name": "OwnershipTransferred",
      "type": "event"
    },
    {
      "anonymous": false,
      "inputs": [
        {
          "indexed": true,
          "internalType": "address",
          "name": "from",
          "type": "address"
        },
        {
          "indexed": true,
          "internalType": "address",
          "name": "to",
          "type": "address"
        },
        {
          "indexed": true,
          "internalType": "uint256",
          "name": "tokenId",
          "type": "uint256"
        }
      ],
      "name": "Transfer",
      "type": "event"
    },
    {
      "inputs": [
        {
          "internalType": "address",
          "name": "to",
          "type": "address"
        },
        {
          "internalType": "uint256",
          "name": "tokenId",
          "type": "uint256"
        }
      ],
      "name": "approve",
      "outputs": [],
      "stateMutability": "nonpayable",
      "type": "function"
    },
    {
      "inputs": [
        {
          "internalType": "address",
          "name": "owner",
          "type": "address"
        }
      ],
      "name": "balanceOf",
      "outputs": [
        {
          "internalType": "uint256",
          "name": "",
          "type": "uint256"
        }
      ],
      "stateMutability": "view",
      "type": "function"
    },
    {
      "inputs": [
        {
          "internalType": "uint256",
          "name": "tokenId",
          "type": "uint256"
        }
      ],
      "name": "buyNFT",
      "outputs": [],
      "stateMutability": "payable",
      "type": "function"
    },
    {
      "inputs": [
        {
          "internalType": "uint256",
          "name": "tokenId",
          "type": "uint256"
        }
      ],
      "name": "getApproved",
      "outputs": [
        {
          "internalType": "address",
          "name": "",
          "type": "address"
        }
      ],
      "stateMutability": "view",
      "type": "function"
    },
    {
      "inputs": [
        {
          "internalType": "uint256",
          "name": "tokenId",
          "type": "uint256"
        }
      ],
      "name": "getLicensingOptions",
      "outputs": [
        {
          "components": [
            {
              "components": [
                {
                  "internalType": "bool",
                  "name": "isAvailable",
                  "type": "bool"
                },
                {
                  "internalType": "uint256",
                  "name": "price",
                  "type": "uint256"
                }
              ],
              "internalType": "struct SongNFT.LicenseInfo",
              "name": "Private",
              "type": "tuple"
            },
            {
              "components": [
                {
                  "internalType": "bool",
                  "name": "isAvailable",
                  "type": "bool"
                },
                {
                  "internalType": "uint256",
                  "name": "price",
                  "type": "uint256"
                }
              ],
              "internalType": "struct SongNFT.LicenseInfo",
              "name": "Public",
              "type": "tuple"
            },
            {
              "components": [
                {
                  "internalType": "bool",
                  "name": "isAvailable",
                  "type": "bool"
                },
                {
                  "internalType": "uint256",
                  "name": "price",
                  "type": "uint256"
                }
              ],
              "internalType": "struct SongNFT.LicenseInfo",
              "name": "Modify",
              "type": "tuple"
            }
          ],
          "internalType": "struct SongNFT.LicenseAvailability",
          "name": "",
          "type": "tuple"
        }
      ],
      "stateMutability": "view",
      "type": "function"
    },
    {
      "inputs": [
        {
          "internalType": "uint256",
          "name": "tokenId",
          "type": "uint256"
        }
      ],
      "name": "getTokenDetails",
      "outputs": [
        {
          "components": [
            {
              "internalType": "uint256",
              "name": "id",
              "type": "uint256"
            },
            {
              "internalType": "string",
              "name": "ipfsURI",
              "type": "string"
            },
            {
              "internalType": "uint256",
              "name": "price",
              "type": "uint256"
            },
            {
              "components": [
                {
                  "components": [
                    {
                      "internalType": "bool",
                      "name": "isAvailable",
                      "type": "bool"
                    },
                    {
                      "internalType": "uint256",
                      "name": "price",
                      "type": "uint256"
                    }
                  ],
                  "internalType": "struct SongNFT.LicenseInfo",
                  "name": "Private",
                  "type": "tuple"
                },
                {
                  "components": [
                    {
                      "internalType": "bool",
                      "name": "isAvailable",
                      "type": "bool"
                    },
                    {
                      "internalType": "uint256",
                      "name": "price",
                      "type": "uint256"
                    }
                  ],
                  "internalType": "struct SongNFT.LicenseInfo",
                  "name": "Public",
                  "type": "tuple"
                },
                {
                  "components": [
                    {
                      "internalType": "bool",
                      "name": "isAvailable",
                      "type": "bool"
                    },
                    {
                      "internalType": "uint256",
                      "name": "price",
                      "type": "uint256"
                    }
                  ],
                  "internalType": "struct SongNFT.LicenseInfo",
                  "name": "Modify",
                  "type": "tuple"
                }
              ],
              "internalType": "struct SongNFT.LicenseAvailability",
              "name": "licensingOptions",
              "type": "tuple"
            }
          ],
          "internalType": "struct SongNFT.SongNFTStruct",
          "name": "",
          "type": "tuple"
        }
      ],
      "stateMutability": "view",
      "type": "function"
    },
    {
      "inputs": [
        {
          "internalType": "address",
          "name": "owner",
          "type": "address"
        },
        {
          "internalType": "address",
          "name": "operator",
          "type": "address"
        }
      ],
      "name": "isApprovedForAll",
      "outputs": [
        {
          "internalType": "bool",
          "name": "",
          "type": "bool"
        }
      ],
      "stateMutability": "view",
      "type": "function"
    },
    {
      "inputs": [
        {
          "internalType": "address",
          "name": "recipient",
          "type": "address"
        },
        {
          "internalType": "uint256",
          "name": "tokenId",
          "type": "uint256"
        },
        {
          "internalType": "string",
          "name": "tokenURI",
          "type": "string"
        },
        {
          "internalType": "uint256",
          "name": "price",
          "type": "uint256"
        }
      ],
      "name": "mintNFT",
      "outputs": [
        {
          "internalType": "uint256",
          "name": "",
          "type": "uint256"
        }
      ],
      "stateMutability": "nonpayable",
      "type": "function"
    },
    {
      "inputs": [],
      "name": "name",
      "outputs": [
        {
          "internalType": "string",
          "name": "",
          "type": "string"
        }
      ],
      "stateMutability": "view",
      "type": "function"
    },
    {
      "inputs": [],
      "name": "owner",
      "outputs": [
        {
          "internalType": "address",
          "name": "",
          "type": "address"
        }
      ],
      "stateMutability": "view",
      "type": "function"
    },
    {
      "inputs": [
        {
          "internalType": "uint256",
          "name": "tokenId",
          "type": "uint256"
        }
      ],
      "name": "ownerOf",
      "outputs": [
        {
          "internalType": "address",
          "name": "",
          "type": "address"
        }
      ],
      "stateMutability": "view",
      "type": "function"
    },
    {
      "inputs": [],
      "name": "renounceOwnership",
      "outputs": [],
      "stateMutability": "nonpayable",
      "type": "function"
    },
    {
      "inputs": [
        {
          "internalType": "address",
          "name": "from",
          "type": "address"
        },
        {
          "internalType": "address",
          "name": "to",
          "type": "address"
        },
        {
          "internalType": "uint256",
          "name": "tokenId",
          "type": "uint256"
        }
      ],
      "name": "safeTransferFrom",
      "outputs": [],
      "stateMutability": "nonpayable",
      "type": "function"
    },
    {
      "inputs": [
        {
          "internalType": "address",
          "name": "from",
          "type": "address"
        },
        {
          "internalType": "address",
          "name": "to",
          "type": "address"
        },
        {
          "internalType": "uint256",
          "name": "tokenId",
          "type": "uint256"
        },
        {
          "internalType": "bytes",
          "name": "data",
          "type": "bytes"
        }
      ],
      "name": "safeTransferFrom",
      "outputs": [],
      "stateMutability": "nonpayable",
      "type": "function"
    },
    {
      "inputs": [
        {
          "internalType": "address",
          "name": "operator",
          "type": "address"
        },
        {
          "internalType": "bool",
          "name": "approved",
          "type": "bool"
        }
      ],
      "name": "setApprovalForAll",
      "outputs": [],
      "stateMutability": "nonpayable",
      "type": "function"
    },
    {
      "inputs": [
        {
          "internalType": "uint256",
          "name": "tokenId",
          "type": "uint256"
        },
        {
          "internalType": "uint256",
          "name": "price",
          "type": "uint256"
        }
      ],
      "name": "setPrice",
      "outputs": [],
      "stateMutability": "nonpayable",
      "type": "function"
    },
    {
      "inputs": [
        {
          "internalType": "bytes4",
          "name": "interfaceId",
          "type": "bytes4"
        }
      ],
      "name": "supportsInterface",
      "outputs": [
        {
          "internalType": "bool",
          "name": "",
          "type": "bool"
        }
      ],
      "stateMutability": "view",
      "type": "function"
    },
    {
      "inputs": [],
      "name": "symbol",
      "outputs": [
        {
          "internalType": "string",
          "name": "",
          "type": "string"
        }
      ],
      "stateMutability": "view",
      "type": "function"
    },
    {
      "inputs": [
        {
          "internalType": "uint256",
          "name": "tokenId",
          "type": "uint256"
        }
      ],
      "name": "tokenURI",
      "outputs": [
        {
          "internalType": "string",
          "name": "",
          "type": "string"
        }
      ],
      "stateMutability": "view",
      "type": "function"
    },
    {
      "inputs": [
        {
          "internalType": "uint256",
          "name": "tokenId",
          "type": "uint256"
        },
        {
          "internalType": "address",
          "name": "buyer",
          "type": "address"
        }
      ],
      "name": "transfer",
      "outputs": [],
      "stateMutability": "nonpayable",
      "type": "function"
    },
    {
      "inputs": [
        {
          "internalType": "address",
          "name": "from",
          "type": "address"
        },
        {
          "internalType": "address",
          "name": "to",
          "type": "address"
        },
        {
          "internalType": "uint256",
          "name": "tokenId",
          "type": "uint256"
        }
      ],
      "name": "transferFrom",
      "outputs": [],
      "stateMutability": "nonpayable",
      "type": "function"
    },
    {
      "inputs": [
        {
          "internalType": "address",
          "name": "newOwner",
          "type": "address"
        }
      ],
      "name": "transferOwnership",
      "outputs": [],
      "stateMutability": "nonpayable",
      "type": "function"
    }
  ],
  "bytecode": "0x60806040523480156200001157600080fd5b506040518060400160405280600781526020017f536f6e674e4654000000000000000000000000000000000000000000000000008152506040518060400160405280600381526020017f4e4654000000000000000000000000000000000000000000000000000000000081525081600090816200008f919062000412565b508060019081620000a1919062000412565b505050620000c4620000b8620000ca60201b60201c565b620000d260201b60201c565b620004f9565b600033905090565b6000600760009054906101000a900473ffffffffffffffffffffffffffffffffffffffff16905081600760006101000a81548173ffffffffffffffffffffffffffffffffffffffff021916908373ffffffffffffffffffffffffffffffffffffffff1602179055508173ffffffffffffffffffffffffffffffffffffffff168173ffffffffffffffffffffffffffffffffffffffff167f8be0079c531659141344cd1fd0a4f28419497f9722a3daafe3b4186f6b6457e060405160405180910390a35050565b600081519050919050565b7f4e487b7100000000000000000000000000000000000000000000000000000000600052604160045260246000fd5b7f4e487b7100000000000000000000000000000000000000000000000000000000600052602260045260246000fd5b600060028204905060018216806200021a57607f821691505b60208210810362000230576200022f620001d2565b5b50919050565b60008190508160005260206000209050919050565b60006020601f8301049050919050565b600082821b905092915050565b6000600883026200029a7fffffffffffffffffffffffffffffffffffffffffffffffffffffffffffffffff826200025b565b620002a686836200025b565b95508019841693508086168417925050509392505050565b6000819050919050565b6000819050919050565b6000620002f3620002ed620002e784620002be565b620002c8565b620002be565b9050919050565b6000819050919050565b6200030f83620002d2565b620003276200031e82620002fa565b84845462000268565b825550505050565b600090565b6200033e6200032f565b6200034b81848462000304565b505050565b5b8181101562000373576200036760008262000334565b60018101905062000351565b5050565b601f821115620003c2576200038c8162000236565b62000397846200024b565b81016020851015620003a7578190505b620003bf620003b6856200024b565b83018262000350565b50505b505050565b600082821c905092915050565b6000620003e760001984600802620003c7565b1980831691505092915050565b6000620004028383620003d4565b9150826002028217905092915050565b6200041d8262000198565b67ffffffffffffffff811115620004395762000438620001a3565b5b62000445825462000201565b6200045282828562000377565b600060209050601f8311600181146200048a576000841562000475578287015190505b620004818582620003f4565b865550620004f1565b601f1984166200049a8662000236565b60005b82811015620004c4578489015182556001820191506020850194506020810190506200049d565b86831015620004e45784890151620004e0601f891682620003d4565b8355505b6001600288020188555050505b505050505050565b613a2980620005096000396000f3fe6080604052600436106101355760003560e01c8063715018a6116100ab578063b88d4fde1161006f578063b88d4fde14610429578063c1e0372814610452578063c87b56dd1461048f578063e985e9c5146104cc578063f2fde38b14610509578063f7d975771461053257610135565b8063715018a61461036a5780638da5cb5b1461038157806395d89b41146103ac578063a22cb465146103d7578063b7760c8f1461040057610135565b806323b872dd116100fd57806323b872dd1461024557806342842e0e1461026e57806351ed82881461029757806359537445146102b35780636352211e146102f057806370a082311461032d57610135565b806301ffc9a71461013a57806306fdde0314610177578063081812fc146101a2578063095ea7b3146101df5780631f4429aa14610208575b600080fd5b34801561014657600080fd5b50610161600480360381019061015c91906123bb565b61055b565b60405161016e9190612403565b60405180910390f35b34801561018357600080fd5b5061018c61063d565b60405161019991906124ae565b60405180910390f35b3480156101ae57600080fd5b506101c960048036038101906101c49190612506565b6106cf565b6040516101d69190612574565b60405180910390f35b3480156101eb57600080fd5b50610206600480360381019061020191906125bb565b610715565b005b34801561021457600080fd5b5061022f600480360381019061022a9190612506565b61082c565b60405161023c919061268a565b60405180910390f35b34801561025157600080fd5b5061026c600480360381019061026791906126a5565b61090d565b005b34801561027a57600080fd5b50610295600480360381019061029091906126a5565b61096d565b005b6102b160048036038101906102ac9190612506565b61098d565b005b3480156102bf57600080fd5b506102da60048036038101906102d5919061282d565b610abd565b6040516102e791906128bf565b60405180910390f35b3480156102fc57600080fd5b5061031760048036038101906103129190612506565b610c31565b6040516103249190612574565b60405180910390f35b34801561033957600080fd5b50610354600480360381019061034f91906128da565b610cb7565b60405161036191906128bf565b60405180910390f35b34801561037657600080fd5b5061037f610d6e565b005b34801561038d57600080fd5b50610396610d82565b6040516103a39190612574565b60405180910390f35b3480156103b857600080fd5b506103c1610dac565b6040516103ce91906124ae565b60405180910390f35b3480156103e357600080fd5b506103fe60048036038101906103f99190612933565b610e3e565b005b34801561040c57600080fd5b5061042760048036038101906104229190612973565b610e54565b005b34801561043557600080fd5b50610450600480360381019061044b9190612a54565b610eac565b005b34801561045e57600080fd5b5061047960048036038101906104749190612506565b610f0e565b6040516104869190612bc7565b60405180910390f35b34801561049b57600080fd5b506104b660048036038101906104b19190612506565b6110a0565b6040516104c391906124ae565b60405180910390f35b3480156104d857600080fd5b506104f360048036038101906104ee9190612be9565b6111b2565b6040516105009190612403565b60405180910390f35b34801561051557600080fd5b50610530600480360381019061052b91906128da565b611246565b005b34801561053e57600080fd5b5061055960048036038101906105549190612c29565b6112c9565b005b60007f80ac58cd000000000000000000000000000000000000000000000000000000007bffffffffffffffffffffffffffffffffffffffffffffffffffffffff1916827bffffffffffffffffffffffffffffffffffffffffffffffffffffffff1916148061062657507f5b5e139f000000000000000000000000000000000000000000000000000000007bffffffffffffffffffffffffffffffffffffffffffffffffffffffff1916827bffffffffffffffffffffffffffffffffffffffffffffffffffffffff1916145b80610636575061063582611364565b5b9050919050565b60606000805461064c90612c98565b80601f016020809104026020016040519081016040528092919081815260200182805461067890612c98565b80156106c55780601f1061069a576101008083540402835291602001916106c5565b820191906000526020600020905b8154815290600101906020018083116106a857829003601f168201915b5050505050905090565b60006106da826113ce565b6004600083815260200190815260200160002060009054906101000a900473ffffffffffffffffffffffffffffffffffffffff169050919050565b600061072082610c31565b90508073ffffffffffffffffffffffffffffffffffffffff168373ffffffffffffffffffffffffffffffffffffffff1603610790576040517f08c379a000000000000000000000000000000000000000000000000000000000815260040161078790612d3b565b60405180910390fd5b8073ffffffffffffffffffffffffffffffffffffffff166107af611419565b73ffffffffffffffffffffffffffffffffffffffff1614806107de57506107dd816107d8611419565b6111b2565b5b61081d576040517f08c379a000000000000000000000000000000000000000000000000000000000815260040161081490612dcd565b60405180910390fd5b6108278383611421565b505050565b6108346122d2565b600060086000848152602001908152602001600020600301604051806060016040529081600082016040518060400160405290816000820160009054906101000a900460ff161515151581526020016001820154815250508152602001600282016040518060400160405290816000820160009054906101000a900460ff161515151581526020016001820154815250508152602001600482016040518060400160405290816000820160009054906101000a900460ff1615151515815260200160018201548152505081525050905080915050919050565b61091e610918611419565b826114da565b61095d576040517f08c379a000000000000000000000000000000000000000000000000000000000815260040161095490612e5f565b60405180910390fd5b61096883838361156f565b505050565b61098883838360405180602001604052806000815250610eac565b505050565b600060086000838152602001908152602001600020905060006109af83610c31565b905081600201543410156109f8576040517f08c379a00000000000000000000000000000000000000000000000000000000081526004016109ef90612ecb565b60405180910390fd5b8073ffffffffffffffffffffffffffffffffffffffff163373ffffffffffffffffffffffffffffffffffffffff1603610a66576040517f08c379a0000000000000000000000000000000000000000000000000000000008152600401610a5d90612f37565b60405180910390fd5b610a7181338561156f565b8073ffffffffffffffffffffffffffffffffffffffff166108fc349081150290604051600060405180830381858888f19350505050158015610ab7573d6000803e3d6000fd5b50505050565b6000610ac7611868565b610ad185856118e6565b610adb8484611b03565b600060086000868152602001908152602001600020905084816000018190555083816001019081610b0c9190613103565b5082816002018190555060006040518060600160405280604051806040016040528060011515815260200160018152508152602001604051806040016040528060011515815260200160028152508152602001604051806040016040528060011515815260200160038152508152509050808260030160008201518160000160008201518160000160006101000a81548160ff02191690831515021790555060208201518160010155505060208201518160020160008201518160000160006101000a81548160ff02191690831515021790555060208201518160010155505060408201518160040160008201518160000160006101000a81548160ff0219169083151502179055506020820151816001015550509050508592505050949350505050565b600080610c3d83611b70565b9050600073ffffffffffffffffffffffffffffffffffffffff168173ffffffffffffffffffffffffffffffffffffffff1603610cae576040517f08c379a0000000000000000000000000000000000000000000000000000000008152600401610ca590613221565b60405180910390fd5b80915050919050565b60008073ffffffffffffffffffffffffffffffffffffffff168273ffffffffffffffffffffffffffffffffffffffff1603610d27576040517f08c379a0000000000000000000000000000000000000000000000000000000008152600401610d1e906132b3565b60405180910390fd5b600360008373ffffffffffffffffffffffffffffffffffffffff1673ffffffffffffffffffffffffffffffffffffffff168152602001908152602001600020549050919050565b610d76611868565b610d806000611bad565b565b6000600760009054906101000a900473ffffffffffffffffffffffffffffffffffffffff16905090565b606060018054610dbb90612c98565b80601f0160208091040260200160405190810160405280929190818152602001828054610de790612c98565b8015610e345780601f10610e0957610100808354040283529160200191610e34565b820191906000526020600020905b815481529060010190602001808311610e1757829003601f168201915b5050505050905090565b610e50610e49611419565b8383611c73565b5050565b610e5e33836114da565b610e9d576040517f08c379a0000000000000000000000000000000000000000000000000000000008152600401610e9490613345565b60405180910390fd5b610ea833828461156f565b5050565b610ebd610eb7611419565b836114da565b610efc576040517f08c379a0000000000000000000000000000000000000000000000000000000008152600401610ef390612e5f565b60405180910390fd5b610f0884848484611ddf565b50505050565b610f16612305565b6008600083815260200190815260200160002060405180608001604052908160008201548152602001600182018054610f4e90612c98565b80601f0160208091040260200160405190810160405280929190818152602001828054610f7a90612c98565b8015610fc75780601f10610f9c57610100808354040283529160200191610fc7565b820191906000526020600020905b815481529060010190602001808311610faa57829003601f168201915b505050505081526020016002820154815260200160038201604051806060016040529081600082016040518060400160405290816000820160009054906101000a900460ff161515151581526020016001820154815250508152602001600282016040518060400160405290816000820160009054906101000a900460ff161515151581526020016001820154815250508152602001600482016040518060400160405290816000820160009054906101000a900460ff1615151515815260200160018201548152505081525050815250509050919050565b60606110ab826113ce565b60006006600084815260200190815260200160002080546110cb90612c98565b80601f01602080910402602001604051908101604052809291908181526020018280546110f790612c98565b80156111445780601f1061111957610100808354040283529160200191611144565b820191906000526020600020905b81548152906001019060200180831161112757829003601f168201915b505050505090506000611155611e3b565b9050600081510361116a5781925050506111ad565b60008251111561119f5780826040516020016111879291906133a1565b604051602081830303815290604052925050506111ad565b6111a884611e52565b925050505b919050565b6000600560008473ffffffffffffffffffffffffffffffffffffffff1673ffffffffffffffffffffffffffffffffffffffff16815260200190815260200160002060008373ffffffffffffffffffffffffffffffffffffffff1673ffffffffffffffffffffffffffffffffffffffff16815260200190815260200160002060009054906101000a900460ff16905092915050565b61124e611868565b600073ffffffffffffffffffffffffffffffffffffffff168173ffffffffffffffffffffffffffffffffffffffff16036112bd576040517f08c379a00000000000000000000000000000000000000000000000000000000081526004016112b490613437565b60405180910390fd5b6112c681611bad565b50565b3373ffffffffffffffffffffffffffffffffffffffff166112e983610c31565b73ffffffffffffffffffffffffffffffffffffffff161461133f576040517f08c379a0000000000000000000000000000000000000000000000000000000008152600401611336906134c9565b60405180910390fd5b6000600860008481526020019081526020016000209050818160020181905550505050565b60007f01ffc9a7000000000000000000000000000000000000000000000000000000007bffffffffffffffffffffffffffffffffffffffffffffffffffffffff1916827bffffffffffffffffffffffffffffffffffffffffffffffffffffffff1916149050919050565b6113d781611eba565b611416576040517f08c379a000000000000000000000000000000000000000000000000000000000815260040161140d90613221565b60405180910390fd5b50565b600033905090565b816004600083815260200190815260200160002060006101000a81548173ffffffffffffffffffffffffffffffffffffffff021916908373ffffffffffffffffffffffffffffffffffffffff160217905550808273ffffffffffffffffffffffffffffffffffffffff1661149483610c31565b73ffffffffffffffffffffffffffffffffffffffff167f8c5be1e5ebec7d5bd14f71427d1e84f3dd0314c0f7b2291e5b200ac8c7c3b92560405160405180910390a45050565b6000806114e683610c31565b90508073ffffffffffffffffffffffffffffffffffffffff168473ffffffffffffffffffffffffffffffffffffffff161480611528575061152781856111b2565b5b8061156657508373ffffffffffffffffffffffffffffffffffffffff1661154e846106cf565b73ffffffffffffffffffffffffffffffffffffffff16145b91505092915050565b8273ffffffffffffffffffffffffffffffffffffffff1661158f82610c31565b73ffffffffffffffffffffffffffffffffffffffff16146115e5576040517f08c379a00000000000000000000000000000000000000000000000000000000081526004016115dc9061355b565b60405180910390fd5b600073ffffffffffffffffffffffffffffffffffffffff168273ffffffffffffffffffffffffffffffffffffffff1603611654576040517f08c379a000000000000000000000000000000000000000000000000000000000815260040161164b906135ed565b60405180910390fd5b6116618383836001611efb565b8273ffffffffffffffffffffffffffffffffffffffff1661168182610c31565b73ffffffffffffffffffffffffffffffffffffffff16146116d7576040517f08c379a00000000000000000000000000000000000000000000000000000000081526004016116ce9061355b565b60405180910390fd5b6004600082815260200190815260200160002060006101000a81549073ffffffffffffffffffffffffffffffffffffffff02191690556001600360008573ffffffffffffffffffffffffffffffffffffffff1673ffffffffffffffffffffffffffffffffffffffff168152602001908152602001600020600082825403925050819055506001600360008473ffffffffffffffffffffffffffffffffffffffff1673ffffffffffffffffffffffffffffffffffffffff16815260200190815260200160002060008282540192505081905550816002600083815260200190815260200160002060006101000a81548173ffffffffffffffffffffffffffffffffffffffff021916908373ffffffffffffffffffffffffffffffffffffffff160217905550808273ffffffffffffffffffffffffffffffffffffffff168473ffffffffffffffffffffffffffffffffffffffff167fddf252ad1be2c89b69c2b068fc378daa952ba7f163c4a11628f55a4df523b3ef60405160405180910390a46118638383836001611f01565b505050565b611870611419565b73ffffffffffffffffffffffffffffffffffffffff1661188e610d82565b73ffffffffffffffffffffffffffffffffffffffff16146118e4576040517f08c379a00000000000000000000000000000000000000000000000000000000081526004016118db90613659565b60405180910390fd5b565b600073ffffffffffffffffffffffffffffffffffffffff168273ffffffffffffffffffffffffffffffffffffffff1603611955576040517f08c379a000000000000000000000000000000000000000000000000000000000815260040161194c906136c5565b60405180910390fd5b61195e81611eba565b1561199e576040517f08c379a000000000000000000000000000000000000000000000000000000000815260040161199590613731565b60405180910390fd5b6119ac600083836001611efb565b6119b581611eba565b156119f5576040517f08c379a00000000000000000000000000000000000000000000000000000000081526004016119ec90613731565b60405180910390fd5b6001600360008473ffffffffffffffffffffffffffffffffffffffff1673ffffffffffffffffffffffffffffffffffffffff16815260200190815260200160002060008282540192505081905550816002600083815260200190815260200160002060006101000a81548173ffffffffffffffffffffffffffffffffffffffff021916908373ffffffffffffffffffffffffffffffffffffffff160217905550808273ffffffffffffffffffffffffffffffffffffffff16600073ffffffffffffffffffffffffffffffffffffffff167fddf252ad1be2c89b69c2b068fc378daa952ba7f163c4a11628f55a4df523b3ef60405160405180910390a4611aff600083836001611f01565b5050565b611b0c82611eba565b611b4b576040517f08c379a0000000000000000000000000000000000000000000000000000000008152600401611b42906137c3565b60405180910390fd5b80600660008481526020019081526020016000209081611b6b9190613103565b505050565b60006002600083815260200190815260200160002060009054906101000a900473ffffffffffffffffffffffffffffffffffffffff169050919050565b6000600760009054906101000a900473ffffffffffffffffffffffffffffffffffffffff16905081600760006101000a81548173ffffffffffffffffffffffffffffffffffffffff021916908373ffffffffffffffffffffffffffffffffffffffff1602179055508173ffffffffffffffffffffffffffffffffffffffff168173ffffffffffffffffffffffffffffffffffffffff167f8be0079c531659141344cd1fd0a4f28419497f9722a3daafe3b4186f6b6457e060405160405180910390a35050565b8173ffffffffffffffffffffffffffffffffffffffff168373ffffffffffffffffffffffffffffffffffffffff1603611ce1576040517f08c379a0000000000000000000000000000000000000000000000000000000008152600401611cd89061382f565b60405180910390fd5b80600560008573ffffffffffffffffffffffffffffffffffffffff1673ffffffffffffffffffffffffffffffffffffffff16815260200190815260200160002060008473ffffffffffffffffffffffffffffffffffffffff1673ffffffffffffffffffffffffffffffffffffffff16815260200190815260200160002060006101000a81548160ff0219169083151502179055508173ffffffffffffffffffffffffffffffffffffffff168373ffffffffffffffffffffffffffffffffffffffff167f17307eab39ab6107e8899845ad3d59bd9653f200f220920489ca2b5937696c3183604051611dd29190612403565b60405180910390a3505050565b611dea84848461156f565b611df684848484611f07565b611e35576040517f08c379a0000000000000000000000000000000000000000000000000000000008152600401611e2c906138c1565b60405180910390fd5b50505050565b606060405180602001604052806000815250905090565b6060611e5d826113ce565b6000611e67611e3b565b90506000815111611e875760405180602001604052806000815250611eb2565b80611e918461208e565b604051602001611ea29291906133a1565b6040516020818303038152906040525b915050919050565b60008073ffffffffffffffffffffffffffffffffffffffff16611edc83611b70565b73ffffffffffffffffffffffffffffffffffffffff1614159050919050565b50505050565b50505050565b6000611f288473ffffffffffffffffffffffffffffffffffffffff1661215c565b15612081578373ffffffffffffffffffffffffffffffffffffffff1663150b7a02611f51611419565b8786866040518563ffffffff1660e01b8152600401611f739493929190613936565b6020604051808303816000875af1925050508015611faf57506040513d601f19601f82011682018060405250810190611fac9190613997565b60015b612031573d8060008114611fdf576040519150601f19603f3d011682016040523d82523d6000602084013e611fe4565b606091505b506000815103612029576040517f08c379a0000000000000000000000000000000000000000000000000000000008152600401612020906138c1565b60405180910390fd5b805181602001fd5b63150b7a0260e01b7bffffffffffffffffffffffffffffffffffffffffffffffffffffffff1916817bffffffffffffffffffffffffffffffffffffffffffffffffffffffff191614915050612086565b600190505b949350505050565b60606000600161209d8461217f565b01905060008167ffffffffffffffff8111156120bc576120bb612702565b5b6040519080825280601f01601f1916602001820160405280156120ee5781602001600182028036833780820191505090505b509050600082602001820190505b600115612151578080600190039150507f3031323334353637383961626364656600000000000000000000000000000000600a86061a8153600a8581612145576121446139c4565b5b049450600085036120fc575b819350505050919050565b6000808273ffffffffffffffffffffffffffffffffffffffff163b119050919050565b600080600090507a184f03e93ff9f4daa797ed6e38ed64bf6a1f01000000000000000083106121dd577a184f03e93ff9f4daa797ed6e38ed64bf6a1f01000000000000000083816121d3576121d26139c4565b5b0492506040810190505b6d04ee2d6d415b85acef8100000000831061221a576d04ee2d6d415b85acef810000000083816122105761220f6139c4565b5b0492506020810190505b662386f26fc10000831061224957662386f26fc10000838161223f5761223e6139c4565b5b0492506010810190505b6305f5e1008310612272576305f5e1008381612268576122676139c4565b5b0492506008810190505b612710831061229757612710838161228d5761228c6139c4565b5b0492506004810190505b606483106122ba57606483816122b0576122af6139c4565b5b0492506002810190505b600a83106122c9576001810190505b80915050919050565b60405180606001604052806122e5612333565b81526020016122f2612333565b81526020016122ff612333565b81525090565b604051806080016040528060008152602001606081526020016000815260200161232d6122d2565b81525090565b6040518060400160405280600015158152602001600081525090565b6000604051905090565b600080fd5b600080fd5b60007fffffffff0000000000000000000000000000000000000000000000000000000082169050919050565b61239881612363565b81146123a357600080fd5b50565b6000813590506123b58161238f565b92915050565b6000602082840312156123d1576123d0612359565b5b60006123df848285016123a6565b91505092915050565b60008115159050919050565b6123fd816123e8565b82525050565b600060208201905061241860008301846123f4565b92915050565b600081519050919050565b600082825260208201905092915050565b60005b8381101561245857808201518184015260208101905061243d565b60008484015250505050565b6000601f19601f8301169050919050565b60006124808261241e565b61248a8185612429565b935061249a81856020860161243a565b6124a381612464565b840191505092915050565b600060208201905081810360008301526124c88184612475565b905092915050565b6000819050919050565b6124e3816124d0565b81146124ee57600080fd5b50565b600081359050612500816124da565b92915050565b60006020828403121561251c5761251b612359565b5b600061252a848285016124f1565b91505092915050565b600073ffffffffffffffffffffffffffffffffffffffff82169050919050565b600061255e82612533565b9050919050565b61256e81612553565b82525050565b60006020820190506125896000830184612565565b92915050565b61259881612553565b81146125a357600080fd5b50565b6000813590506125b58161258f565b92915050565b600080604083850312156125d2576125d1612359565b5b60006125e0858286016125a6565b92505060206125f1858286016124f1565b9150509250929050565b612604816123e8565b82525050565b612613816124d0565b82525050565b60408201600082015161262f60008501826125fb565b506020820151612642602085018261260a565b50505050565b60c08201600082015161265e6000850182612619565b5060208201516126716040850182612619565b5060408201516126846080850182612619565b50505050565b600060c08201905061269f6000830184612648565b92915050565b6000806000606084860312156126be576126bd612359565b5b60006126cc868287016125a6565b93505060206126dd868287016125a6565b92505060406126ee868287016124f1565b9150509250925092565b600080fd5b600080fd5b7f4e487b7100000000000000000000000000000000000000000000000000000000600052604160045260246000fd5b61273a82612464565b810181811067ffffffffffffffff8211171561275957612758612702565b5b80604052505050565b600061276c61234f565b90506127788282612731565b919050565b600067ffffffffffffffff82111561279857612797612702565b5b6127a182612464565b9050602081019050919050565b82818337600083830152505050565b60006127d06127cb8461277d565b612762565b9050828152602081018484840111156127ec576127eb6126fd565b5b6127f78482856127ae565b509392505050565b600082601f830112612814576128136126f8565b5b81356128248482602086016127bd565b91505092915050565b6000806000806080858703121561284757612846612359565b5b6000612855878288016125a6565b9450506020612866878288016124f1565b935050604085013567ffffffffffffffff8111156128875761288661235e565b5b612893878288016127ff565b92505060606128a4878288016124f1565b91505092959194509250565b6128b9816124d0565b82525050565b60006020820190506128d460008301846128b0565b92915050565b6000602082840312156128f0576128ef612359565b5b60006128fe848285016125a6565b91505092915050565b612910816123e8565b811461291b57600080fd5b50565b60008135905061292d81612907565b92915050565b6000806040838503121561294a57612949612359565b5b6000612958858286016125a6565b92505060206129698582860161291e565b9150509250929050565b6000806040838503121561298a57612989612359565b5b6000612998858286016124f1565b92505060206129a9858286016125a6565b9150509250929050565b600067ffffffffffffffff8211156129ce576129cd612702565b5b6129d782612464565b9050602081019050919050565b60006129f76129f2846129b3565b612762565b905082815260208101848484011115612a1357612a126126fd565b5b612a1e8482856127ae565b509392505050565b600082601f830112612a3b57612a3a6126f8565b5b8135612a4b8482602086016129e4565b91505092915050565b60008060008060808587031215612a6e57612a6d612359565b5b6000612a7c878288016125a6565b9450506020612a8d878288016125a6565b9350506040612a9e878288016124f1565b925050606085013567ffffffffffffffff811115612abf57612abe61235e565b5b612acb87828801612a26565b91505092959194509250565b600082825260208201905092915050565b6000612af38261241e565b612afd8185612ad7565b9350612b0d81856020860161243a565b612b1681612464565b840191505092915050565b60c082016000820151612b376000850182612619565b506020820151612b4a6040850182612619565b506040820151612b5d6080850182612619565b50505050565b600061012083016000830151612b7c600086018261260a565b5060208301518482036020860152612b948282612ae8565b9150506040830151612ba9604086018261260a565b506060830151612bbc6060860182612b21565b508091505092915050565b60006020820190508181036000830152612be18184612b63565b905092915050565b60008060408385031215612c0057612bff612359565b5b6000612c0e858286016125a6565b9250506020612c1f858286016125a6565b9150509250929050565b60008060408385031215612c4057612c3f612359565b5b6000612c4e858286016124f1565b9250506020612c5f858286016124f1565b9150509250929050565b7f4e487b7100000000000000000000000000000000000000000000000000000000600052602260045260246000fd5b60006002820490506001821680612cb057607f821691505b602082108103612cc357612cc2612c69565b5b50919050565b7f4552433732313a20617070726f76616c20746f2063757272656e74206f776e6560008201527f7200000000000000000000000000000000000000000000000000000000000000602082015250565b6000612d25602183612429565b9150612d3082612cc9565b604082019050919050565b60006020820190508181036000830152612d5481612d18565b9050919050565b7f4552433732313a20617070726f76652063616c6c6572206973206e6f7420746f60008201527f6b656e206f776e6572206f7220617070726f76656420666f7220616c6c000000602082015250565b6000612db7603d83612429565b9150612dc282612d5b565b604082019050919050565b60006020820190508181036000830152612de681612daa565b9050919050565b7f4552433732313a2063616c6c6572206973206e6f7420746f6b656e206f776e6560008201527f72206f7220617070726f76656400000000000000000000000000000000000000602082015250565b6000612e49602d83612429565b9150612e5482612ded565b604082019050919050565b60006020820190508181036000830152612e7881612e3c565b9050919050565b7f4e6f7420656e6f7567682045746865722073656e742100000000000000000000600082015250565b6000612eb5601683612429565b9150612ec082612e7f565b602082019050919050565b60006020820190508181036000830152612ee481612ea8565b9050919050565b7f43616c6c657220616c7265616479206f776e732074686973204e465421000000600082015250565b6000612f21601d83612429565b9150612f2c82612eeb565b602082019050919050565b60006020820190508181036000830152612f5081612f14565b9050919050565b60008190508160005260206000209050919050565b60006020601f8301049050919050565b600082821b905092915050565b600060088302612fb97fffffffffffffffffffffffffffffffffffffffffffffffffffffffffffffffff82612f7c565b612fc38683612f7c565b95508019841693508086168417925050509392505050565b6000819050919050565b6000613000612ffb612ff6846124d0565b612fdb565b6124d0565b9050919050565b6000819050919050565b61301a83612fe5565b61302e61302682613007565b848454612f89565b825550505050565b600090565b613043613036565b61304e818484613011565b505050565b5b818110156130725761306760008261303b565b600181019050613054565b5050565b601f8211156130b75761308881612f57565b61309184612f6c565b810160208510156130a0578190505b6130b46130ac85612f6c565b830182613053565b50505b505050565b600082821c905092915050565b60006130da600019846008026130bc565b1980831691505092915050565b60006130f383836130c9565b9150826002028217905092915050565b61310c8261241e565b67ffffffffffffffff81111561312557613124612702565b5b61312f8254612c98565b61313a828285613076565b600060209050601f83116001811461316d576000841561315b578287015190505b61316585826130e7565b8655506131cd565b601f19841661317b86612f57565b60005b828110156131a35784890151825560018201915060208501945060208101905061317e565b868310156131c057848901516131bc601f8916826130c9565b8355505b6001600288020188555050505b505050505050565b7f4552433732313a20696e76616c696420746f6b656e2049440000000000000000600082015250565b600061320b601883612429565b9150613216826131d5565b602082019050919050565b6000602082019050818103600083015261323a816131fe565b9050919050565b7f4552433732313a2061646472657373207a65726f206973206e6f74206120766160008201527f6c6964206f776e65720000000000000000000000000000000000000000000000602082015250565b600061329d602983612429565b91506132a882613241565b604082019050919050565b600060208201905081810360008301526132cc81613290565b9050919050565b7f5472616e73666572206d75737420626520696e697469616c697a65642062792060008201527f6f776e6572210000000000000000000000000000000000000000000000000000602082015250565b600061332f602683612429565b915061333a826132d3565b604082019050919050565b6000602082019050818103600083015261335e81613322565b9050919050565b600081905092915050565b600061337b8261241e565b6133858185613365565b935061339581856020860161243a565b80840191505092915050565b60006133ad8285613370565b91506133b98284613370565b91508190509392505050565b7f4f776e61626c653a206e6577206f776e657220697320746865207a65726f206160008201527f6464726573730000000000000000000000000000000000000000000000000000602082015250565b6000613421602683612429565b915061342c826133c5565b604082019050919050565b6000602082019050818103600083015261345081613414565b9050919050565b7f5072696365732063616e206f6e6c79206265206368616e67656420627920746f60008201527f6b656e206f776e65722100000000000000000000000000000000000000000000602082015250565b60006134b3602a83612429565b91506134be82613457565b604082019050919050565b600060208201905081810360008301526134e2816134a6565b9050919050565b7f4552433732313a207472616e736665722066726f6d20696e636f72726563742060008201527f6f776e6572000000000000000000000000000000000000000000000000000000602082015250565b6000613545602583612429565b9150613550826134e9565b604082019050919050565b6000602082019050818103600083015261357481613538565b9050919050565b7f4552433732313a207472616e7366657220746f20746865207a65726f2061646460008201527f7265737300000000000000000000000000000000000000000000000000000000602082015250565b60006135d7602483612429565b91506135e28261357b565b604082019050919050565b60006020820190508181036000830152613606816135ca565b9050919050565b7f4f776e61626c653a2063616c6c6572206973206e6f7420746865206f776e6572600082015250565b6000613643602083612429565b915061364e8261360d565b602082019050919050565b6000602082019050818103600083015261367281613636565b9050919050565b7f4552433732313a206d696e7420746f20746865207a65726f2061646472657373600082015250565b60006136af602083612429565b91506136ba82613679565b602082019050919050565b600060208201905081810360008301526136de816136a2565b9050919050565b7f4552433732313a20746f6b656e20616c7265616479206d696e74656400000000600082015250565b600061371b601c83612429565b9150613726826136e5565b602082019050919050565b6000602082019050818103600083015261374a8161370e565b9050919050565b7f45524337323155524953746f726167653a2055524920736574206f66206e6f6e60008201527f6578697374656e7420746f6b656e000000000000000000000000000000000000602082015250565b60006137ad602e83612429565b91506137b882613751565b604082019050919050565b600060208201905081810360008301526137dc816137a0565b9050919050565b7f4552433732313a20617070726f766520746f2063616c6c657200000000000000600082015250565b6000613819601983612429565b9150613824826137e3565b602082019050919050565b600060208201905081810360008301526138488161380c565b9050919050565b7f4552433732313a207472616e7366657220746f206e6f6e20455243373231526560008201527f63656976657220696d706c656d656e7465720000000000000000000000000000602082015250565b60006138ab603283612429565b91506138b68261384f565b604082019050919050565b600060208201905081810360008301526138da8161389e565b9050919050565b600081519050919050565b600082825260208201905092915050565b6000613908826138e1565b61391281856138ec565b935061392281856020860161243a565b61392b81612464565b840191505092915050565b600060808201905061394b6000830187612565565b6139586020830186612565565b61396560408301856128b0565b818103606083015261397781846138fd565b905095945050505050565b6000815190506139918161238f565b92915050565b6000602082840312156139ad576139ac612359565b5b60006139bb84828501613982565b91505092915050565b7f4e487b7100000000000000000000000000000000000000000000000000000000600052601260045260246000fdfea2646970667358221220a71eb277cee20b3bd299c5e19c7b158f318a962cf90e9c6e47a561a73398877a64736f6c63430008120033",
  "linkReferences": {},
  "deployedLinkReferences": {}
}