{
  "_format": "hh-sol-artifact-1",
  "contractName": "SongNFT",
  "sourceName": "contracts/SongNFT.sol",
  "abi": [
    {
      "inputs": [],
      "stateMutability": "nonpayable",
      "type": "constructor"
    },
    {
      "anonymous": false,
      "inputs": [
        {
          "indexed": true,
          "internalType": "address",
          "name": "owner",
          "type": "address"
        },
        {
          "indexed": true,
          "internalType": "address",
          "name": "approved",
          "type": "address"
        },
        {
          "indexed": true,
          "internalType": "uint256",
          "name": "tokenId",
          "type": "uint256"
        }
      ],
      "name": "Approval",
      "type": "event"
    },
    {
      "anonymous": false,
      "inputs": [
        {
          "indexed": true,
          "internalType": "address",
          "name": "owner",
          "type": "address"
        },
        {
          "indexed": true,
          "internalType": "address",
          "name": "operator",
          "type": "address"
        },
        {
          "indexed": false,
          "internalType": "bool",
          "name": "approved",
          "type": "bool"
        }
      ],
      "name": "ApprovalForAll",
      "type": "event"
    },
    {
      "anonymous": false,
      "inputs": [
        {
          "indexed": true,
          "internalType": "address",
          "name": "previousOwner",
          "type": "address"
        },
        {
          "indexed": true,
          "internalType": "address",
          "name": "newOwner",
          "type": "address"
        }
      ],
      "name": "OwnershipTransferred",
      "type": "event"
    },
    {
      "anonymous": false,
      "inputs": [
        {
          "indexed": true,
          "internalType": "address",
          "name": "from",
          "type": "address"
        },
        {
          "indexed": true,
          "internalType": "address",
          "name": "to",
          "type": "address"
        },
        {
          "indexed": true,
          "internalType": "uint256",
          "name": "tokenId",
          "type": "uint256"
        }
      ],
      "name": "Transfer",
      "type": "event"
    },
    {
      "inputs": [
        {
          "internalType": "address",
          "name": "to",
          "type": "address"
        },
        {
          "internalType": "uint256",
          "name": "tokenId",
          "type": "uint256"
        }
      ],
      "name": "approve",
      "outputs": [],
      "stateMutability": "nonpayable",
      "type": "function"
    },
    {
      "inputs": [
        {
          "internalType": "address",
          "name": "owner",
          "type": "address"
        }
      ],
      "name": "balanceOf",
      "outputs": [
        {
          "internalType": "uint256",
          "name": "",
          "type": "uint256"
        }
      ],
      "stateMutability": "view",
      "type": "function"
    },
    {
      "inputs": [
        {
          "internalType": "uint256",
          "name": "tokenId",
          "type": "uint256"
        }
      ],
      "name": "buyNFT",
      "outputs": [],
      "stateMutability": "payable",
      "type": "function"
    },
    {
      "inputs": [
        {
          "internalType": "uint256",
          "name": "tokenId",
          "type": "uint256"
        }
      ],
      "name": "getApproved",
      "outputs": [
        {
          "internalType": "address",
          "name": "",
          "type": "address"
        }
      ],
      "stateMutability": "view",
      "type": "function"
    },
    {
      "inputs": [
        {
          "internalType": "uint256",
          "name": "tokenId",
          "type": "uint256"
        }
      ],
      "name": "getLicensingOptions",
      "outputs": [
        {
          "components": [
            {
              "components": [
                {
                  "internalType": "bool",
                  "name": "isAvailable",
                  "type": "bool"
                },
                {
                  "internalType": "uint256",
                  "name": "price",
                  "type": "uint256"
                }
              ],
              "internalType": "struct LicenseInfo",
              "name": "Private",
              "type": "tuple"
            },
            {
              "components": [
                {
                  "internalType": "bool",
                  "name": "isAvailable",
                  "type": "bool"
                },
                {
                  "internalType": "uint256",
                  "name": "price",
                  "type": "uint256"
                }
              ],
              "internalType": "struct LicenseInfo",
              "name": "Public",
              "type": "tuple"
            },
            {
              "components": [
                {
                  "internalType": "bool",
                  "name": "isAvailable",
                  "type": "bool"
                },
                {
                  "internalType": "uint256",
                  "name": "price",
                  "type": "uint256"
                }
              ],
              "internalType": "struct LicenseInfo",
              "name": "Modify",
              "type": "tuple"
            }
          ],
          "internalType": "struct LicenseAvailability",
          "name": "",
          "type": "tuple"
        }
      ],
      "stateMutability": "view",
      "type": "function"
    },
    {
      "inputs": [
        {
          "internalType": "uint256",
          "name": "tokenId",
          "type": "uint256"
        }
      ],
      "name": "getTokenDetails",
      "outputs": [
        {
          "components": [
            {
              "internalType": "uint256",
              "name": "id",
              "type": "uint256"
            },
            {
              "internalType": "string",
              "name": "ipfsURI",
              "type": "string"
            },
            {
              "internalType": "uint256",
              "name": "price",
              "type": "uint256"
            },
            {
              "components": [
                {
                  "components": [
                    {
                      "internalType": "bool",
                      "name": "isAvailable",
                      "type": "bool"
                    },
                    {
                      "internalType": "uint256",
                      "name": "price",
                      "type": "uint256"
                    }
                  ],
                  "internalType": "struct LicenseInfo",
                  "name": "Private",
                  "type": "tuple"
                },
                {
                  "components": [
                    {
                      "internalType": "bool",
                      "name": "isAvailable",
                      "type": "bool"
                    },
                    {
                      "internalType": "uint256",
                      "name": "price",
                      "type": "uint256"
                    }
                  ],
                  "internalType": "struct LicenseInfo",
                  "name": "Public",
                  "type": "tuple"
                },
                {
                  "components": [
                    {
                      "internalType": "bool",
                      "name": "isAvailable",
                      "type": "bool"
                    },
                    {
                      "internalType": "uint256",
                      "name": "price",
                      "type": "uint256"
                    }
                  ],
                  "internalType": "struct LicenseInfo",
                  "name": "Modify",
                  "type": "tuple"
                }
              ],
              "internalType": "struct LicenseAvailability",
              "name": "licensingOptions",
              "type": "tuple"
            }
          ],
          "internalType": "struct SongNFT.SongNFTStruct",
          "name": "",
          "type": "tuple"
        }
      ],
      "stateMutability": "view",
      "type": "function"
    },
    {
      "inputs": [
        {
          "internalType": "uint256",
          "name": "tokenId",
          "type": "uint256"
        }
      ],
      "name": "getTokenOwner",
      "outputs": [
        {
          "internalType": "address",
          "name": "",
          "type": "address"
        }
      ],
      "stateMutability": "view",
      "type": "function"
    },
    {
      "inputs": [
        {
          "internalType": "address",
          "name": "owner",
          "type": "address"
        },
        {
          "internalType": "address",
          "name": "operator",
          "type": "address"
        }
      ],
      "name": "isApprovedForAll",
      "outputs": [
        {
          "internalType": "bool",
          "name": "",
          "type": "bool"
        }
      ],
      "stateMutability": "view",
      "type": "function"
    },
    {
      "inputs": [
        {
          "internalType": "address",
          "name": "recipient",
          "type": "address"
        },
        {
          "internalType": "uint256",
          "name": "tokenId",
          "type": "uint256"
        },
        {
          "internalType": "string",
          "name": "tokenURI",
          "type": "string"
        },
        {
          "internalType": "uint256",
          "name": "price",
          "type": "uint256"
        }
      ],
      "name": "mintNFT",
      "outputs": [
        {
          "internalType": "uint256",
          "name": "",
          "type": "uint256"
        }
      ],
      "stateMutability": "nonpayable",
      "type": "function"
    },
    {
      "inputs": [],
      "name": "name",
      "outputs": [
        {
          "internalType": "string",
          "name": "",
          "type": "string"
        }
      ],
      "stateMutability": "view",
      "type": "function"
    },
    {
      "inputs": [],
      "name": "owner",
      "outputs": [
        {
          "internalType": "address",
          "name": "",
          "type": "address"
        }
      ],
      "stateMutability": "view",
      "type": "function"
    },
    {
      "inputs": [
        {
          "internalType": "uint256",
          "name": "tokenId",
          "type": "uint256"
        }
      ],
      "name": "ownerOf",
      "outputs": [
        {
          "internalType": "address",
          "name": "",
          "type": "address"
        }
      ],
      "stateMutability": "view",
      "type": "function"
    },
    {
      "inputs": [],
      "name": "renounceOwnership",
      "outputs": [],
      "stateMutability": "nonpayable",
      "type": "function"
    },
    {
      "inputs": [
        {
          "internalType": "address",
          "name": "from",
          "type": "address"
        },
        {
          "internalType": "address",
          "name": "to",
          "type": "address"
        },
        {
          "internalType": "uint256",
          "name": "tokenId",
          "type": "uint256"
        }
      ],
      "name": "safeTransferFrom",
      "outputs": [],
      "stateMutability": "nonpayable",
      "type": "function"
    },
    {
      "inputs": [
        {
          "internalType": "address",
          "name": "from",
          "type": "address"
        },
        {
          "internalType": "address",
          "name": "to",
          "type": "address"
        },
        {
          "internalType": "uint256",
          "name": "tokenId",
          "type": "uint256"
        },
        {
          "internalType": "bytes",
          "name": "data",
          "type": "bytes"
        }
      ],
      "name": "safeTransferFrom",
      "outputs": [],
      "stateMutability": "nonpayable",
      "type": "function"
    },
    {
      "inputs": [
        {
          "internalType": "address",
          "name": "operator",
          "type": "address"
        },
        {
          "internalType": "bool",
          "name": "approved",
          "type": "bool"
        }
      ],
      "name": "setApprovalForAll",
      "outputs": [],
      "stateMutability": "nonpayable",
      "type": "function"
    },
    {
      "inputs": [
        {
          "internalType": "uint256",
          "name": "tokenId",
          "type": "uint256"
        },
        {
          "internalType": "uint256",
          "name": "price",
          "type": "uint256"
        }
      ],
      "name": "setPrice",
      "outputs": [],
      "stateMutability": "nonpayable",
      "type": "function"
    },
    {
      "inputs": [
        {
          "internalType": "bytes4",
          "name": "interfaceId",
          "type": "bytes4"
        }
      ],
      "name": "supportsInterface",
      "outputs": [
        {
          "internalType": "bool",
          "name": "",
          "type": "bool"
        }
      ],
      "stateMutability": "view",
      "type": "function"
    },
    {
      "inputs": [],
      "name": "symbol",
      "outputs": [
        {
          "internalType": "string",
          "name": "",
          "type": "string"
        }
      ],
      "stateMutability": "view",
      "type": "function"
    },
    {
      "inputs": [
        {
          "internalType": "uint256",
          "name": "tokenId",
          "type": "uint256"
        }
      ],
      "name": "tokenURI",
      "outputs": [
        {
          "internalType": "string",
          "name": "",
          "type": "string"
        }
      ],
      "stateMutability": "view",
      "type": "function"
    },
    {
      "inputs": [
        {
          "internalType": "uint256",
          "name": "tokenId",
          "type": "uint256"
        },
        {
          "internalType": "address",
          "name": "buyer",
          "type": "address"
        }
      ],
      "name": "transfer",
      "outputs": [],
      "stateMutability": "nonpayable",
      "type": "function"
    },
    {
      "inputs": [
        {
          "internalType": "address",
          "name": "from",
          "type": "address"
        },
        {
          "internalType": "address",
          "name": "to",
          "type": "address"
        },
        {
          "internalType": "uint256",
          "name": "tokenId",
          "type": "uint256"
        }
      ],
      "name": "transferFrom",
      "outputs": [],
      "stateMutability": "nonpayable",
      "type": "function"
    },
    {
      "inputs": [
        {
          "internalType": "address",
          "name": "newOwner",
          "type": "address"
        }
      ],
      "name": "transferOwnership",
      "outputs": [],
      "stateMutability": "nonpayable",
      "type": "function"
    }
  ],
  "bytecode": "0x60806040523480156200001157600080fd5b506040518060400160405280600781526020017f536f6e674e4654000000000000000000000000000000000000000000000000008152506040518060400160405280600381526020017f4e4654000000000000000000000000000000000000000000000000000000000081525081600090816200008f919062000412565b508060019081620000a1919062000412565b505050620000c4620000b8620000ca60201b60201c565b620000d260201b60201c565b620004f9565b600033905090565b6000600760009054906101000a900473ffffffffffffffffffffffffffffffffffffffff16905081600760006101000a81548173ffffffffffffffffffffffffffffffffffffffff021916908373ffffffffffffffffffffffffffffffffffffffff1602179055508173ffffffffffffffffffffffffffffffffffffffff168173ffffffffffffffffffffffffffffffffffffffff167f8be0079c531659141344cd1fd0a4f28419497f9722a3daafe3b4186f6b6457e060405160405180910390a35050565b600081519050919050565b7f4e487b7100000000000000000000000000000000000000000000000000000000600052604160045260246000fd5b7f4e487b7100000000000000000000000000000000000000000000000000000000600052602260045260246000fd5b600060028204905060018216806200021a57607f821691505b60208210810362000230576200022f620001d2565b5b50919050565b60008190508160005260206000209050919050565b60006020601f8301049050919050565b600082821b905092915050565b6000600883026200029a7fffffffffffffffffffffffffffffffffffffffffffffffffffffffffffffffff826200025b565b620002a686836200025b565b95508019841693508086168417925050509392505050565b6000819050919050565b6000819050919050565b6000620002f3620002ed620002e784620002be565b620002c8565b620002be565b9050919050565b6000819050919050565b6200030f83620002d2565b620003276200031e82620002fa565b84845462000268565b825550505050565b600090565b6200033e6200032f565b6200034b81848462000304565b505050565b5b8181101562000373576200036760008262000334565b60018101905062000351565b5050565b601f821115620003c2576200038c8162000236565b62000397846200024b565b81016020851015620003a7578190505b620003bf620003b6856200024b565b83018262000350565b50505b505050565b600082821c905092915050565b6000620003e760001984600802620003c7565b1980831691505092915050565b6000620004028383620003d4565b9150826002028217905092915050565b6200041d8262000198565b67ffffffffffffffff811115620004395762000438620001a3565b5b62000445825462000201565b6200045282828562000377565b600060209050601f8311600181146200048a576000841562000475578287015190505b620004818582620003f4565b865550620004f1565b601f1984166200049a8662000236565b60005b82811015620004c4578489015182556001820191506020850194506020810190506200049d565b86831015620004e45784890151620004e0601f891682620003d4565b8355505b6001600288020188555050505b505050505050565b613a8380620005096000396000f3fe6080604052600436106101405760003560e01c8063715018a6116100b6578063b88d4fde1161006f578063b88d4fde14610471578063c1e037281461049a578063c87b56dd146104d7578063e985e9c514610514578063f2fde38b14610551578063f7d975771461057a57610140565b8063715018a6146103755780638da5cb5b1461038c57806395d89b41146103b7578063a22cb465146103e2578063a5cd761f1461040b578063b7760c8f1461044857610140565b806323b872dd1161010857806323b872dd1461025057806342842e0e1461027957806351ed8288146102a257806359537445146102be5780636352211e146102fb57806370a082311461033857610140565b806301ffc9a71461014557806306fdde0314610182578063081812fc146101ad578063095ea7b3146101ea5780631f4429aa14610213575b600080fd5b34801561015157600080fd5b5061016c60048036038101906101679190612415565b6105a3565b604051610179919061245d565b60405180910390f35b34801561018e57600080fd5b50610197610685565b6040516101a49190612508565b60405180910390f35b3480156101b957600080fd5b506101d460048036038101906101cf9190612560565b610717565b6040516101e191906125ce565b60405180910390f35b3480156101f657600080fd5b50610211600480360381019061020c9190612615565b61075d565b005b34801561021f57600080fd5b5061023a60048036038101906102359190612560565b610874565b60405161024791906126e4565b60405180910390f35b34801561025c57600080fd5b50610277600480360381019061027291906126ff565b610955565b005b34801561028557600080fd5b506102a0600480360381019061029b91906126ff565b6109b5565b005b6102bc60048036038101906102b79190612560565b6109d5565b005b3480156102ca57600080fd5b506102e560048036038101906102e09190612887565b610b05565b6040516102f29190612919565b60405180910390f35b34801561030757600080fd5b50610322600480360381019061031d9190612560565b610c79565b60405161032f91906125ce565b60405180910390f35b34801561034457600080fd5b5061035f600480360381019061035a9190612934565b610cff565b60405161036c9190612919565b60405180910390f35b34801561038157600080fd5b5061038a610db6565b005b34801561039857600080fd5b506103a1610dca565b6040516103ae91906125ce565b60405180910390f35b3480156103c357600080fd5b506103cc610df4565b6040516103d99190612508565b60405180910390f35b3480156103ee57600080fd5b506104096004803603810190610404919061298d565b610e86565b005b34801561041757600080fd5b50610432600480360381019061042d9190612560565b610e9c565b60405161043f91906125ce565b60405180910390f35b34801561045457600080fd5b5061046f600480360381019061046a91906129cd565b610eae565b005b34801561047d57600080fd5b5061049860048036038101906104939190612aae565b610f06565b005b3480156104a657600080fd5b506104c160048036038101906104bc9190612560565b610f68565b6040516104ce9190612c21565b60405180910390f35b3480156104e357600080fd5b506104fe60048036038101906104f99190612560565b6110fa565b60405161050b9190612508565b60405180910390f35b34801561052057600080fd5b5061053b60048036038101906105369190612c43565b61120c565b604051610548919061245d565b60405180910390f35b34801561055d57600080fd5b5061057860048036038101906105739190612934565b6112a0565b005b34801561058657600080fd5b506105a1600480360381019061059c9190612c83565b611323565b005b60007f80ac58cd000000000000000000000000000000000000000000000000000000007bffffffffffffffffffffffffffffffffffffffffffffffffffffffff1916827bffffffffffffffffffffffffffffffffffffffffffffffffffffffff1916148061066e57507f5b5e139f000000000000000000000000000000000000000000000000000000007bffffffffffffffffffffffffffffffffffffffffffffffffffffffff1916827bffffffffffffffffffffffffffffffffffffffffffffffffffffffff1916145b8061067e575061067d826113be565b5b9050919050565b60606000805461069490612cf2565b80601f01602080910402602001604051908101604052809291908181526020018280546106c090612cf2565b801561070d5780601f106106e25761010080835404028352916020019161070d565b820191906000526020600020905b8154815290600101906020018083116106f057829003601f168201915b5050505050905090565b600061072282611428565b6004600083815260200190815260200160002060009054906101000a900473ffffffffffffffffffffffffffffffffffffffff169050919050565b600061076882610c79565b90508073ffffffffffffffffffffffffffffffffffffffff168373ffffffffffffffffffffffffffffffffffffffff16036107d8576040517f08c379a00000000000000000000000000000000000000000000000000000000081526004016107cf90612d95565b60405180910390fd5b8073ffffffffffffffffffffffffffffffffffffffff166107f7611473565b73ffffffffffffffffffffffffffffffffffffffff161480610826575061082581610820611473565b61120c565b5b610865576040517f08c379a000000000000000000000000000000000000000000000000000000000815260040161085c90612e27565b60405180910390fd5b61086f838361147b565b505050565b61087c61232c565b600060086000848152602001908152602001600020600301604051806060016040529081600082016040518060400160405290816000820160009054906101000a900460ff161515151581526020016001820154815250508152602001600282016040518060400160405290816000820160009054906101000a900460ff161515151581526020016001820154815250508152602001600482016040518060400160405290816000820160009054906101000a900460ff1615151515815260200160018201548152505081525050905080915050919050565b610966610960611473565b82611534565b6109a5576040517f08c379a000000000000000000000000000000000000000000000000000000000815260040161099c90612eb9565b60405180910390fd5b6109b08383836115c9565b505050565b6109d083838360405180602001604052806000815250610f06565b505050565b600060086000838152602001908152602001600020905060006109f783610c79565b90508160020154341015610a40576040517f08c379a0000000000000000000000000000000000000000000000000000000008152600401610a3790612f25565b60405180910390fd5b8073ffffffffffffffffffffffffffffffffffffffff163373ffffffffffffffffffffffffffffffffffffffff1603610aae576040517f08c379a0000000000000000000000000000000000000000000000000000000008152600401610aa590612f91565b60405180910390fd5b610ab98133856115c9565b8073ffffffffffffffffffffffffffffffffffffffff166108fc349081150290604051600060405180830381858888f19350505050158015610aff573d6000803e3d6000fd5b50505050565b6000610b0f6118c2565b610b198585611940565b610b238484611b5d565b600060086000868152602001908152602001600020905084816000018190555083816001019081610b54919061315d565b5082816002018190555060006040518060600160405280604051806040016040528060011515815260200160018152508152602001604051806040016040528060011515815260200160028152508152602001604051806040016040528060011515815260200160038152508152509050808260030160008201518160000160008201518160000160006101000a81548160ff02191690831515021790555060208201518160010155505060208201518160020160008201518160000160006101000a81548160ff02191690831515021790555060208201518160010155505060408201518160040160008201518160000160006101000a81548160ff0219169083151502179055506020820151816001015550509050508592505050949350505050565b600080610c8583611bca565b9050600073ffffffffffffffffffffffffffffffffffffffff168173ffffffffffffffffffffffffffffffffffffffff1603610cf6576040517f08c379a0000000000000000000000000000000000000000000000000000000008152600401610ced9061327b565b60405180910390fd5b80915050919050565b60008073ffffffffffffffffffffffffffffffffffffffff168273ffffffffffffffffffffffffffffffffffffffff1603610d6f576040517f08c379a0000000000000000000000000000000000000000000000000000000008152600401610d669061330d565b60405180910390fd5b600360008373ffffffffffffffffffffffffffffffffffffffff1673ffffffffffffffffffffffffffffffffffffffff168152602001908152602001600020549050919050565b610dbe6118c2565b610dc86000611c07565b565b6000600760009054906101000a900473ffffffffffffffffffffffffffffffffffffffff16905090565b606060018054610e0390612cf2565b80601f0160208091040260200160405190810160405280929190818152602001828054610e2f90612cf2565b8015610e7c5780601f10610e5157610100808354040283529160200191610e7c565b820191906000526020600020905b815481529060010190602001808311610e5f57829003601f168201915b5050505050905090565b610e98610e91611473565b8383611ccd565b5050565b6000610ea782610c79565b9050919050565b610eb83383611534565b610ef7576040517f08c379a0000000000000000000000000000000000000000000000000000000008152600401610eee9061339f565b60405180910390fd5b610f023382846115c9565b5050565b610f17610f11611473565b83611534565b610f56576040517f08c379a0000000000000000000000000000000000000000000000000000000008152600401610f4d90612eb9565b60405180910390fd5b610f6284848484611e39565b50505050565b610f7061235f565b6008600083815260200190815260200160002060405180608001604052908160008201548152602001600182018054610fa890612cf2565b80601f0160208091040260200160405190810160405280929190818152602001828054610fd490612cf2565b80156110215780601f10610ff657610100808354040283529160200191611021565b820191906000526020600020905b81548152906001019060200180831161100457829003601f168201915b505050505081526020016002820154815260200160038201604051806060016040529081600082016040518060400160405290816000820160009054906101000a900460ff161515151581526020016001820154815250508152602001600282016040518060400160405290816000820160009054906101000a900460ff161515151581526020016001820154815250508152602001600482016040518060400160405290816000820160009054906101000a900460ff1615151515815260200160018201548152505081525050815250509050919050565b606061110582611428565b600060066000848152602001908152602001600020805461112590612cf2565b80601f016020809104026020016040519081016040528092919081815260200182805461115190612cf2565b801561119e5780601f106111735761010080835404028352916020019161119e565b820191906000526020600020905b81548152906001019060200180831161118157829003601f168201915b5050505050905060006111af611e95565b905060008151036111c4578192505050611207565b6000825111156111f95780826040516020016111e19291906133fb565b60405160208183030381529060405292505050611207565b61120284611eac565b925050505b919050565b6000600560008473ffffffffffffffffffffffffffffffffffffffff1673ffffffffffffffffffffffffffffffffffffffff16815260200190815260200160002060008373ffffffffffffffffffffffffffffffffffffffff1673ffffffffffffffffffffffffffffffffffffffff16815260200190815260200160002060009054906101000a900460ff16905092915050565b6112a86118c2565b600073ffffffffffffffffffffffffffffffffffffffff168173ffffffffffffffffffffffffffffffffffffffff1603611317576040517f08c379a000000000000000000000000000000000000000000000000000000000815260040161130e90613491565b60405180910390fd5b61132081611c07565b50565b3373ffffffffffffffffffffffffffffffffffffffff1661134383610c79565b73ffffffffffffffffffffffffffffffffffffffff1614611399576040517f08c379a000000000000000000000000000000000000000000000000000000000815260040161139090613523565b60405180910390fd5b6000600860008481526020019081526020016000209050818160020181905550505050565b60007f01ffc9a7000000000000000000000000000000000000000000000000000000007bffffffffffffffffffffffffffffffffffffffffffffffffffffffff1916827bffffffffffffffffffffffffffffffffffffffffffffffffffffffff1916149050919050565b61143181611f14565b611470576040517f08c379a00000000000000000000000000000000000000000000000000000000081526004016114679061327b565b60405180910390fd5b50565b600033905090565b816004600083815260200190815260200160002060006101000a81548173ffffffffffffffffffffffffffffffffffffffff021916908373ffffffffffffffffffffffffffffffffffffffff160217905550808273ffffffffffffffffffffffffffffffffffffffff166114ee83610c79565b73ffffffffffffffffffffffffffffffffffffffff167f8c5be1e5ebec7d5bd14f71427d1e84f3dd0314c0f7b2291e5b200ac8c7c3b92560405160405180910390a45050565b60008061154083610c79565b90508073ffffffffffffffffffffffffffffffffffffffff168473ffffffffffffffffffffffffffffffffffffffff1614806115825750611581818561120c565b5b806115c057508373ffffffffffffffffffffffffffffffffffffffff166115a884610717565b73ffffffffffffffffffffffffffffffffffffffff16145b91505092915050565b8273ffffffffffffffffffffffffffffffffffffffff166115e982610c79565b73ffffffffffffffffffffffffffffffffffffffff161461163f576040517f08c379a0000000000000000000000000000000000000000000000000000000008152600401611636906135b5565b60405180910390fd5b600073ffffffffffffffffffffffffffffffffffffffff168273ffffffffffffffffffffffffffffffffffffffff16036116ae576040517f08c379a00000000000000000000000000000000000000000000000000000000081526004016116a590613647565b60405180910390fd5b6116bb8383836001611f55565b8273ffffffffffffffffffffffffffffffffffffffff166116db82610c79565b73ffffffffffffffffffffffffffffffffffffffff1614611731576040517f08c379a0000000000000000000000000000000000000000000000000000000008152600401611728906135b5565b60405180910390fd5b6004600082815260200190815260200160002060006101000a81549073ffffffffffffffffffffffffffffffffffffffff02191690556001600360008573ffffffffffffffffffffffffffffffffffffffff1673ffffffffffffffffffffffffffffffffffffffff168152602001908152602001600020600082825403925050819055506001600360008473ffffffffffffffffffffffffffffffffffffffff1673ffffffffffffffffffffffffffffffffffffffff16815260200190815260200160002060008282540192505081905550816002600083815260200190815260200160002060006101000a81548173ffffffffffffffffffffffffffffffffffffffff021916908373ffffffffffffffffffffffffffffffffffffffff160217905550808273ffffffffffffffffffffffffffffffffffffffff168473ffffffffffffffffffffffffffffffffffffffff167fddf252ad1be2c89b69c2b068fc378daa952ba7f163c4a11628f55a4df523b3ef60405160405180910390a46118bd8383836001611f5b565b505050565b6118ca611473565b73ffffffffffffffffffffffffffffffffffffffff166118e8610dca565b73ffffffffffffffffffffffffffffffffffffffff161461193e576040517f08c379a0000000000000000000000000000000000000000000000000000000008152600401611935906136b3565b60405180910390fd5b565b600073ffffffffffffffffffffffffffffffffffffffff168273ffffffffffffffffffffffffffffffffffffffff16036119af576040517f08c379a00000000000000000000000000000000000000000000000000000000081526004016119a69061371f565b60405180910390fd5b6119b881611f14565b156119f8576040517f08c379a00000000000000000000000000000000000000000000000000000000081526004016119ef9061378b565b60405180910390fd5b611a06600083836001611f55565b611a0f81611f14565b15611a4f576040517f08c379a0000000000000000000000000000000000000000000000000000000008152600401611a469061378b565b60405180910390fd5b6001600360008473ffffffffffffffffffffffffffffffffffffffff1673ffffffffffffffffffffffffffffffffffffffff16815260200190815260200160002060008282540192505081905550816002600083815260200190815260200160002060006101000a81548173ffffffffffffffffffffffffffffffffffffffff021916908373ffffffffffffffffffffffffffffffffffffffff160217905550808273ffffffffffffffffffffffffffffffffffffffff16600073ffffffffffffffffffffffffffffffffffffffff167fddf252ad1be2c89b69c2b068fc378daa952ba7f163c4a11628f55a4df523b3ef60405160405180910390a4611b59600083836001611f5b565b5050565b611b6682611f14565b611ba5576040517f08c379a0000000000000000000000000000000000000000000000000000000008152600401611b9c9061381d565b60405180910390fd5b80600660008481526020019081526020016000209081611bc5919061315d565b505050565b60006002600083815260200190815260200160002060009054906101000a900473ffffffffffffffffffffffffffffffffffffffff169050919050565b6000600760009054906101000a900473ffffffffffffffffffffffffffffffffffffffff16905081600760006101000a81548173ffffffffffffffffffffffffffffffffffffffff021916908373ffffffffffffffffffffffffffffffffffffffff1602179055508173ffffffffffffffffffffffffffffffffffffffff168173ffffffffffffffffffffffffffffffffffffffff167f8be0079c531659141344cd1fd0a4f28419497f9722a3daafe3b4186f6b6457e060405160405180910390a35050565b8173ffffffffffffffffffffffffffffffffffffffff168373ffffffffffffffffffffffffffffffffffffffff1603611d3b576040517f08c379a0000000000000000000000000000000000000000000000000000000008152600401611d3290613889565b60405180910390fd5b80600560008573ffffffffffffffffffffffffffffffffffffffff1673ffffffffffffffffffffffffffffffffffffffff16815260200190815260200160002060008473ffffffffffffffffffffffffffffffffffffffff1673ffffffffffffffffffffffffffffffffffffffff16815260200190815260200160002060006101000a81548160ff0219169083151502179055508173ffffffffffffffffffffffffffffffffffffffff168373ffffffffffffffffffffffffffffffffffffffff167f17307eab39ab6107e8899845ad3d59bd9653f200f220920489ca2b5937696c3183604051611e2c919061245d565b60405180910390a3505050565b611e448484846115c9565b611e5084848484611f61565b611e8f576040517f08c379a0000000000000000000000000000000000000000000000000000000008152600401611e869061391b565b60405180910390fd5b50505050565b606060405180602001604052806000815250905090565b6060611eb782611428565b6000611ec1611e95565b90506000815111611ee15760405180602001604052806000815250611f0c565b80611eeb846120e8565b604051602001611efc9291906133fb565b6040516020818303038152906040525b915050919050565b60008073ffffffffffffffffffffffffffffffffffffffff16611f3683611bca565b73ffffffffffffffffffffffffffffffffffffffff1614159050919050565b50505050565b50505050565b6000611f828473ffffffffffffffffffffffffffffffffffffffff166121b6565b156120db578373ffffffffffffffffffffffffffffffffffffffff1663150b7a02611fab611473565b8786866040518563ffffffff1660e01b8152600401611fcd9493929190613990565b6020604051808303816000875af192505050801561200957506040513d601f19601f8201168201806040525081019061200691906139f1565b60015b61208b573d8060008114612039576040519150601f19603f3d011682016040523d82523d6000602084013e61203e565b606091505b506000815103612083576040517f08c379a000000000000000000000000000000000000000000000000000000000815260040161207a9061391b565b60405180910390fd5b805181602001fd5b63150b7a0260e01b7bffffffffffffffffffffffffffffffffffffffffffffffffffffffff1916817bffffffffffffffffffffffffffffffffffffffffffffffffffffffff1916149150506120e0565b600190505b949350505050565b6060600060016120f7846121d9565b01905060008167ffffffffffffffff8111156121165761211561275c565b5b6040519080825280601f01601f1916602001820160405280156121485781602001600182028036833780820191505090505b509050600082602001820190505b6001156121ab578080600190039150507f3031323334353637383961626364656600000000000000000000000000000000600a86061a8153600a858161219f5761219e613a1e565b5b04945060008503612156575b819350505050919050565b6000808273ffffffffffffffffffffffffffffffffffffffff163b119050919050565b600080600090507a184f03e93ff9f4daa797ed6e38ed64bf6a1f0100000000000000008310612237577a184f03e93ff9f4daa797ed6e38ed64bf6a1f010000000000000000838161222d5761222c613a1e565b5b0492506040810190505b6d04ee2d6d415b85acef81000000008310612274576d04ee2d6d415b85acef8100000000838161226a57612269613a1e565b5b0492506020810190505b662386f26fc1000083106122a357662386f26fc10000838161229957612298613a1e565b5b0492506010810190505b6305f5e10083106122cc576305f5e10083816122c2576122c1613a1e565b5b0492506008810190505b61271083106122f15761271083816122e7576122e6613a1e565b5b0492506004810190505b60648310612314576064838161230a57612309613a1e565b5b0492506002810190505b600a8310612323576001810190505b80915050919050565b604051806060016040528061233f61238d565b815260200161234c61238d565b815260200161235961238d565b81525090565b604051806080016040528060008152602001606081526020016000815260200161238761232c565b81525090565b6040518060400160405280600015158152602001600081525090565b6000604051905090565b600080fd5b600080fd5b60007fffffffff0000000000000000000000000000000000000000000000000000000082169050919050565b6123f2816123bd565b81146123fd57600080fd5b50565b60008135905061240f816123e9565b92915050565b60006020828403121561242b5761242a6123b3565b5b600061243984828501612400565b91505092915050565b60008115159050919050565b61245781612442565b82525050565b6000602082019050612472600083018461244e565b92915050565b600081519050919050565b600082825260208201905092915050565b60005b838110156124b2578082015181840152602081019050612497565b60008484015250505050565b6000601f19601f8301169050919050565b60006124da82612478565b6124e48185612483565b93506124f4818560208601612494565b6124fd816124be565b840191505092915050565b6000602082019050818103600083015261252281846124cf565b905092915050565b6000819050919050565b61253d8161252a565b811461254857600080fd5b50565b60008135905061255a81612534565b92915050565b600060208284031215612576576125756123b3565b5b60006125848482850161254b565b91505092915050565b600073ffffffffffffffffffffffffffffffffffffffff82169050919050565b60006125b88261258d565b9050919050565b6125c8816125ad565b82525050565b60006020820190506125e360008301846125bf565b92915050565b6125f2816125ad565b81146125fd57600080fd5b50565b60008135905061260f816125e9565b92915050565b6000806040838503121561262c5761262b6123b3565b5b600061263a85828601612600565b925050602061264b8582860161254b565b9150509250929050565b61265e81612442565b82525050565b61266d8161252a565b82525050565b6040820160008201516126896000850182612655565b50602082015161269c6020850182612664565b50505050565b60c0820160008201516126b86000850182612673565b5060208201516126cb6040850182612673565b5060408201516126de6080850182612673565b50505050565b600060c0820190506126f960008301846126a2565b92915050565b600080600060608486031215612718576127176123b3565b5b600061272686828701612600565b935050602061273786828701612600565b92505060406127488682870161254b565b9150509250925092565b600080fd5b600080fd5b7f4e487b7100000000000000000000000000000000000000000000000000000000600052604160045260246000fd5b612794826124be565b810181811067ffffffffffffffff821117156127b3576127b261275c565b5b80604052505050565b60006127c66123a9565b90506127d2828261278b565b919050565b600067ffffffffffffffff8211156127f2576127f161275c565b5b6127fb826124be565b9050602081019050919050565b82818337600083830152505050565b600061282a612825846127d7565b6127bc565b90508281526020810184848401111561284657612845612757565b5b612851848285612808565b509392505050565b600082601f83011261286e5761286d612752565b5b813561287e848260208601612817565b91505092915050565b600080600080608085870312156128a1576128a06123b3565b5b60006128af87828801612600565b94505060206128c08782880161254b565b935050604085013567ffffffffffffffff8111156128e1576128e06123b8565b5b6128ed87828801612859565b92505060606128fe8782880161254b565b91505092959194509250565b6129138161252a565b82525050565b600060208201905061292e600083018461290a565b92915050565b60006020828403121561294a576129496123b3565b5b600061295884828501612600565b91505092915050565b61296a81612442565b811461297557600080fd5b50565b60008135905061298781612961565b92915050565b600080604083850312156129a4576129a36123b3565b5b60006129b285828601612600565b92505060206129c385828601612978565b9150509250929050565b600080604083850312156129e4576129e36123b3565b5b60006129f28582860161254b565b9250506020612a0385828601612600565b9150509250929050565b600067ffffffffffffffff821115612a2857612a2761275c565b5b612a31826124be565b9050602081019050919050565b6000612a51612a4c84612a0d565b6127bc565b905082815260208101848484011115612a6d57612a6c612757565b5b612a78848285612808565b509392505050565b600082601f830112612a9557612a94612752565b5b8135612aa5848260208601612a3e565b91505092915050565b60008060008060808587031215612ac857612ac76123b3565b5b6000612ad687828801612600565b9450506020612ae787828801612600565b9350506040612af88782880161254b565b925050606085013567ffffffffffffffff811115612b1957612b186123b8565b5b612b2587828801612a80565b91505092959194509250565b600082825260208201905092915050565b6000612b4d82612478565b612b578185612b31565b9350612b67818560208601612494565b612b70816124be565b840191505092915050565b60c082016000820151612b916000850182612673565b506020820151612ba46040850182612673565b506040820151612bb76080850182612673565b50505050565b600061012083016000830151612bd66000860182612664565b5060208301518482036020860152612bee8282612b42565b9150506040830151612c036040860182612664565b506060830151612c166060860182612b7b565b508091505092915050565b60006020820190508181036000830152612c3b8184612bbd565b905092915050565b60008060408385031215612c5a57612c596123b3565b5b6000612c6885828601612600565b9250506020612c7985828601612600565b9150509250929050565b60008060408385031215612c9a57612c996123b3565b5b6000612ca88582860161254b565b9250506020612cb98582860161254b565b9150509250929050565b7f4e487b7100000000000000000000000000000000000000000000000000000000600052602260045260246000fd5b60006002820490506001821680612d0a57607f821691505b602082108103612d1d57612d1c612cc3565b5b50919050565b7f4552433732313a20617070726f76616c20746f2063757272656e74206f776e6560008201527f7200000000000000000000000000000000000000000000000000000000000000602082015250565b6000612d7f602183612483565b9150612d8a82612d23565b604082019050919050565b60006020820190508181036000830152612dae81612d72565b9050919050565b7f4552433732313a20617070726f76652063616c6c6572206973206e6f7420746f60008201527f6b656e206f776e6572206f7220617070726f76656420666f7220616c6c000000602082015250565b6000612e11603d83612483565b9150612e1c82612db5565b604082019050919050565b60006020820190508181036000830152612e4081612e04565b9050919050565b7f4552433732313a2063616c6c6572206973206e6f7420746f6b656e206f776e6560008201527f72206f7220617070726f76656400000000000000000000000000000000000000602082015250565b6000612ea3602d83612483565b9150612eae82612e47565b604082019050919050565b60006020820190508181036000830152612ed281612e96565b9050919050565b7f4e6f7420656e6f7567682045746865722073656e742100000000000000000000600082015250565b6000612f0f601683612483565b9150612f1a82612ed9565b602082019050919050565b60006020820190508181036000830152612f3e81612f02565b9050919050565b7f43616c6c657220616c7265616479206f776e732074686973204e465421000000600082015250565b6000612f7b601d83612483565b9150612f8682612f45565b602082019050919050565b60006020820190508181036000830152612faa81612f6e565b9050919050565b60008190508160005260206000209050919050565b60006020601f8301049050919050565b600082821b905092915050565b6000600883026130137fffffffffffffffffffffffffffffffffffffffffffffffffffffffffffffffff82612fd6565b61301d8683612fd6565b95508019841693508086168417925050509392505050565b6000819050919050565b600061305a6130556130508461252a565b613035565b61252a565b9050919050565b6000819050919050565b6130748361303f565b61308861308082613061565b848454612fe3565b825550505050565b600090565b61309d613090565b6130a881848461306b565b505050565b5b818110156130cc576130c1600082613095565b6001810190506130ae565b5050565b601f821115613111576130e281612fb1565b6130eb84612fc6565b810160208510156130fa578190505b61310e61310685612fc6565b8301826130ad565b50505b505050565b600082821c905092915050565b600061313460001984600802613116565b1980831691505092915050565b600061314d8383613123565b9150826002028217905092915050565b61316682612478565b67ffffffffffffffff81111561317f5761317e61275c565b5b6131898254612cf2565b6131948282856130d0565b600060209050601f8311600181146131c757600084156131b5578287015190505b6131bf8582613141565b865550613227565b601f1984166131d586612fb1565b60005b828110156131fd578489015182556001820191506020850194506020810190506131d8565b8683101561321a5784890151613216601f891682613123565b8355505b6001600288020188555050505b505050505050565b7f4552433732313a20696e76616c696420746f6b656e2049440000000000000000600082015250565b6000613265601883612483565b91506132708261322f565b602082019050919050565b6000602082019050818103600083015261329481613258565b9050919050565b7f4552433732313a2061646472657373207a65726f206973206e6f74206120766160008201527f6c6964206f776e65720000000000000000000000000000000000000000000000602082015250565b60006132f7602983612483565b91506133028261329b565b604082019050919050565b60006020820190508181036000830152613326816132ea565b9050919050565b7f5472616e73666572206d75737420626520696e697469616c697a65642062792060008201527f6f776e6572210000000000000000000000000000000000000000000000000000602082015250565b6000613389602683612483565b91506133948261332d565b604082019050919050565b600060208201905081810360008301526133b88161337c565b9050919050565b600081905092915050565b60006133d582612478565b6133df81856133bf565b93506133ef818560208601612494565b80840191505092915050565b600061340782856133ca565b915061341382846133ca565b91508190509392505050565b7f4f776e61626c653a206e6577206f776e657220697320746865207a65726f206160008201527f6464726573730000000000000000000000000000000000000000000000000000602082015250565b600061347b602683612483565b91506134868261341f565b604082019050919050565b600060208201905081810360008301526134aa8161346e565b9050919050565b7f5072696365732063616e206f6e6c79206265206368616e67656420627920746f60008201527f6b656e206f776e65722100000000000000000000000000000000000000000000602082015250565b600061350d602a83612483565b9150613518826134b1565b604082019050919050565b6000602082019050818103600083015261353c81613500565b9050919050565b7f4552433732313a207472616e736665722066726f6d20696e636f72726563742060008201527f6f776e6572000000000000000000000000000000000000000000000000000000602082015250565b600061359f602583612483565b91506135aa82613543565b604082019050919050565b600060208201905081810360008301526135ce81613592565b9050919050565b7f4552433732313a207472616e7366657220746f20746865207a65726f2061646460008201527f7265737300000000000000000000000000000000000000000000000000000000602082015250565b6000613631602483612483565b915061363c826135d5565b604082019050919050565b6000602082019050818103600083015261366081613624565b9050919050565b7f4f776e61626c653a2063616c6c6572206973206e6f7420746865206f776e6572600082015250565b600061369d602083612483565b91506136a882613667565b602082019050919050565b600060208201905081810360008301526136cc81613690565b9050919050565b7f4552433732313a206d696e7420746f20746865207a65726f2061646472657373600082015250565b6000613709602083612483565b9150613714826136d3565b602082019050919050565b60006020820190508181036000830152613738816136fc565b9050919050565b7f4552433732313a20746f6b656e20616c7265616479206d696e74656400000000600082015250565b6000613775601c83612483565b91506137808261373f565b602082019050919050565b600060208201905081810360008301526137a481613768565b9050919050565b7f45524337323155524953746f726167653a2055524920736574206f66206e6f6e60008201527f6578697374656e7420746f6b656e000000000000000000000000000000000000602082015250565b6000613807602e83612483565b9150613812826137ab565b604082019050919050565b60006020820190508181036000830152613836816137fa565b9050919050565b7f4552433732313a20617070726f766520746f2063616c6c657200000000000000600082015250565b6000613873601983612483565b915061387e8261383d565b602082019050919050565b600060208201905081810360008301526138a281613866565b9050919050565b7f4552433732313a207472616e7366657220746f206e6f6e20455243373231526560008201527f63656976657220696d706c656d656e7465720000000000000000000000000000602082015250565b6000613905603283612483565b9150613910826138a9565b604082019050919050565b60006020820190508181036000830152613934816138f8565b9050919050565b600081519050919050565b600082825260208201905092915050565b60006139628261393b565b61396c8185613946565b935061397c818560208601612494565b613985816124be565b840191505092915050565b60006080820190506139a560008301876125bf565b6139b260208301866125bf565b6139bf604083018561290a565b81810360608301526139d18184613957565b905095945050505050565b6000815190506139eb816123e9565b92915050565b600060208284031215613a0757613a066123b3565b5b6000613a15848285016139dc565b91505092915050565b7f4e487b7100000000000000000000000000000000000000000000000000000000600052601260045260246000fdfea264697066735822122059909ee6074f84463782b116d3f15a1232c6d236d92c47d042f8fa76b22b9d6964736f6c63430008120033",
  "linkReferences": {},
  "deployedLinkReferences": {}
}