{
  "_format": "hh-sol-artifact-1",
  "contractName": "SongNFT",
  "sourceName": "contracts/SongNFT.sol",
  "abi": [
    {
      "inputs": [],
      "stateMutability": "nonpayable",
      "type": "constructor"
    },
    {
      "anonymous": false,
      "inputs": [
        {
          "indexed": true,
          "internalType": "address",
          "name": "owner",
          "type": "address"
        },
        {
          "indexed": true,
          "internalType": "address",
          "name": "approved",
          "type": "address"
        },
        {
          "indexed": true,
          "internalType": "uint256",
          "name": "tokenId",
          "type": "uint256"
        }
      ],
      "name": "Approval",
      "type": "event"
    },
    {
      "anonymous": false,
      "inputs": [
        {
          "indexed": true,
          "internalType": "address",
          "name": "owner",
          "type": "address"
        },
        {
          "indexed": true,
          "internalType": "address",
          "name": "operator",
          "type": "address"
        },
        {
          "indexed": false,
          "internalType": "bool",
          "name": "approved",
          "type": "bool"
        }
      ],
      "name": "ApprovalForAll",
      "type": "event"
    },
    {
      "anonymous": false,
      "inputs": [
        {
          "indexed": true,
          "internalType": "address",
          "name": "previousOwner",
          "type": "address"
        },
        {
          "indexed": true,
          "internalType": "address",
          "name": "newOwner",
          "type": "address"
        }
      ],
      "name": "OwnershipTransferred",
      "type": "event"
    },
    {
      "anonymous": false,
      "inputs": [
        {
          "indexed": true,
          "internalType": "address",
          "name": "from",
          "type": "address"
        },
        {
          "indexed": true,
          "internalType": "address",
          "name": "to",
          "type": "address"
        },
        {
          "indexed": true,
          "internalType": "uint256",
          "name": "tokenId",
          "type": "uint256"
        }
      ],
      "name": "Transfer",
      "type": "event"
    },
    {
      "inputs": [
        {
          "internalType": "address",
          "name": "to",
          "type": "address"
        },
        {
          "internalType": "uint256",
          "name": "tokenId",
          "type": "uint256"
        }
      ],
      "name": "approve",
      "outputs": [],
      "stateMutability": "nonpayable",
      "type": "function"
    },
    {
      "inputs": [
        {
          "internalType": "address",
          "name": "owner",
          "type": "address"
        }
      ],
      "name": "balanceOf",
      "outputs": [
        {
          "internalType": "uint256",
          "name": "",
          "type": "uint256"
        }
      ],
      "stateMutability": "view",
      "type": "function"
    },
    {
      "inputs": [
        {
          "internalType": "uint256",
          "name": "tokenId",
          "type": "uint256"
        }
      ],
      "name": "buyNFT",
      "outputs": [],
      "stateMutability": "payable",
      "type": "function"
    },
    {
      "inputs": [
        {
          "internalType": "uint256",
          "name": "tokenId",
          "type": "uint256"
        }
      ],
      "name": "getApproved",
      "outputs": [
        {
          "internalType": "address",
          "name": "",
          "type": "address"
        }
      ],
      "stateMutability": "view",
      "type": "function"
    },
    {
      "inputs": [
        {
          "internalType": "uint256",
          "name": "tokenId",
          "type": "uint256"
        }
      ],
      "name": "getLicensingOptions",
      "outputs": [
        {
          "components": [
            {
              "components": [
                {
                  "internalType": "bool",
                  "name": "isAvailable",
                  "type": "bool"
                },
                {
                  "internalType": "uint256",
                  "name": "price",
                  "type": "uint256"
                }
              ],
              "internalType": "struct LicenseInfo",
              "name": "Private",
              "type": "tuple"
            },
            {
              "components": [
                {
                  "internalType": "bool",
                  "name": "isAvailable",
                  "type": "bool"
                },
                {
                  "internalType": "uint256",
                  "name": "price",
                  "type": "uint256"
                }
              ],
              "internalType": "struct LicenseInfo",
              "name": "Public",
              "type": "tuple"
            },
            {
              "components": [
                {
                  "internalType": "bool",
                  "name": "isAvailable",
                  "type": "bool"
                },
                {
                  "internalType": "uint256",
                  "name": "price",
                  "type": "uint256"
                }
              ],
              "internalType": "struct LicenseInfo",
              "name": "Modify",
              "type": "tuple"
            }
          ],
          "internalType": "struct LicenseAvailability",
          "name": "",
          "type": "tuple"
        }
      ],
      "stateMutability": "view",
      "type": "function"
    },
    {
      "inputs": [
        {
          "internalType": "uint256",
          "name": "tokenId",
          "type": "uint256"
        }
      ],
      "name": "getTokenDetails",
      "outputs": [
        {
          "components": [
            {
              "internalType": "uint256",
              "name": "id",
              "type": "uint256"
            },
            {
              "internalType": "string",
              "name": "ipfsURI",
              "type": "string"
            },
            {
              "internalType": "uint256",
              "name": "price",
              "type": "uint256"
            },
            {
              "components": [
                {
                  "components": [
                    {
                      "internalType": "bool",
                      "name": "isAvailable",
                      "type": "bool"
                    },
                    {
                      "internalType": "uint256",
                      "name": "price",
                      "type": "uint256"
                    }
                  ],
                  "internalType": "struct LicenseInfo",
                  "name": "Private",
                  "type": "tuple"
                },
                {
                  "components": [
                    {
                      "internalType": "bool",
                      "name": "isAvailable",
                      "type": "bool"
                    },
                    {
                      "internalType": "uint256",
                      "name": "price",
                      "type": "uint256"
                    }
                  ],
                  "internalType": "struct LicenseInfo",
                  "name": "Public",
                  "type": "tuple"
                },
                {
                  "components": [
                    {
                      "internalType": "bool",
                      "name": "isAvailable",
                      "type": "bool"
                    },
                    {
                      "internalType": "uint256",
                      "name": "price",
                      "type": "uint256"
                    }
                  ],
                  "internalType": "struct LicenseInfo",
                  "name": "Modify",
                  "type": "tuple"
                }
              ],
              "internalType": "struct LicenseAvailability",
              "name": "licensingOptions",
              "type": "tuple"
            }
          ],
          "internalType": "struct SongNFT.SongNFTStruct",
          "name": "",
          "type": "tuple"
        }
      ],
      "stateMutability": "view",
      "type": "function"
    },
    {
      "inputs": [
        {
          "internalType": "uint256",
          "name": "tokenId",
          "type": "uint256"
        }
      ],
      "name": "getTokenOwner",
      "outputs": [
        {
          "internalType": "address",
          "name": "",
          "type": "address"
        }
      ],
      "stateMutability": "view",
      "type": "function"
    },
    {
      "inputs": [
        {
          "internalType": "address",
          "name": "owner",
          "type": "address"
        },
        {
          "internalType": "address",
          "name": "operator",
          "type": "address"
        }
      ],
      "name": "isApprovedForAll",
      "outputs": [
        {
          "internalType": "bool",
          "name": "",
          "type": "bool"
        }
      ],
      "stateMutability": "view",
      "type": "function"
    },
    {
      "inputs": [
        {
          "internalType": "address",
          "name": "recipient",
          "type": "address"
        },
        {
          "internalType": "uint256",
          "name": "tokenId",
          "type": "uint256"
        },
        {
          "internalType": "string",
          "name": "tokenURI",
          "type": "string"
        },
        {
          "internalType": "uint256",
          "name": "price",
          "type": "uint256"
        },
        {
          "components": [
            {
              "internalType": "int256",
              "name": "PrivatePrice",
              "type": "int256"
            },
            {
              "internalType": "int256",
              "name": "PublicPrice",
              "type": "int256"
            },
            {
              "internalType": "int256",
              "name": "ModifyPrice",
              "type": "int256"
            }
          ],
          "internalType": "struct PriceInfo",
          "name": "pricing",
          "type": "tuple"
        }
      ],
      "name": "mintNFT",
      "outputs": [
        {
          "internalType": "uint256",
          "name": "",
          "type": "uint256"
        }
      ],
      "stateMutability": "nonpayable",
      "type": "function"
    },
    {
      "inputs": [],
      "name": "name",
      "outputs": [
        {
          "internalType": "string",
          "name": "",
          "type": "string"
        }
      ],
      "stateMutability": "view",
      "type": "function"
    },
    {
      "inputs": [],
      "name": "owner",
      "outputs": [
        {
          "internalType": "address",
          "name": "",
          "type": "address"
        }
      ],
      "stateMutability": "view",
      "type": "function"
    },
    {
      "inputs": [
        {
          "internalType": "uint256",
          "name": "tokenId",
          "type": "uint256"
        }
      ],
      "name": "ownerOf",
      "outputs": [
        {
          "internalType": "address",
          "name": "",
          "type": "address"
        }
      ],
      "stateMutability": "view",
      "type": "function"
    },
    {
      "inputs": [],
      "name": "renounceOwnership",
      "outputs": [],
      "stateMutability": "nonpayable",
      "type": "function"
    },
    {
      "inputs": [
        {
          "internalType": "address",
          "name": "from",
          "type": "address"
        },
        {
          "internalType": "address",
          "name": "to",
          "type": "address"
        },
        {
          "internalType": "uint256",
          "name": "tokenId",
          "type": "uint256"
        }
      ],
      "name": "safeTransferFrom",
      "outputs": [],
      "stateMutability": "nonpayable",
      "type": "function"
    },
    {
      "inputs": [
        {
          "internalType": "address",
          "name": "from",
          "type": "address"
        },
        {
          "internalType": "address",
          "name": "to",
          "type": "address"
        },
        {
          "internalType": "uint256",
          "name": "tokenId",
          "type": "uint256"
        },
        {
          "internalType": "bytes",
          "name": "data",
          "type": "bytes"
        }
      ],
      "name": "safeTransferFrom",
      "outputs": [],
      "stateMutability": "nonpayable",
      "type": "function"
    },
    {
      "inputs": [
        {
          "internalType": "address",
          "name": "operator",
          "type": "address"
        },
        {
          "internalType": "bool",
          "name": "approved",
          "type": "bool"
        }
      ],
      "name": "setApprovalForAll",
      "outputs": [],
      "stateMutability": "nonpayable",
      "type": "function"
    },
    {
      "inputs": [
        {
          "internalType": "uint256",
          "name": "tokenId",
          "type": "uint256"
        },
        {
          "internalType": "uint256",
          "name": "price",
          "type": "uint256"
        }
      ],
      "name": "setPrice",
      "outputs": [],
      "stateMutability": "nonpayable",
      "type": "function"
    },
    {
      "inputs": [
        {
          "internalType": "bytes4",
          "name": "interfaceId",
          "type": "bytes4"
        }
      ],
      "name": "supportsInterface",
      "outputs": [
        {
          "internalType": "bool",
          "name": "",
          "type": "bool"
        }
      ],
      "stateMutability": "view",
      "type": "function"
    },
    {
      "inputs": [],
      "name": "symbol",
      "outputs": [
        {
          "internalType": "string",
          "name": "",
          "type": "string"
        }
      ],
      "stateMutability": "view",
      "type": "function"
    },
    {
      "inputs": [
        {
          "internalType": "uint256",
          "name": "tokenId",
          "type": "uint256"
        }
      ],
      "name": "tokenURI",
      "outputs": [
        {
          "internalType": "string",
          "name": "",
          "type": "string"
        }
      ],
      "stateMutability": "view",
      "type": "function"
    },
    {
      "inputs": [
        {
          "internalType": "uint256",
          "name": "tokenId",
          "type": "uint256"
        },
        {
          "internalType": "address",
          "name": "buyer",
          "type": "address"
        }
      ],
      "name": "transfer",
      "outputs": [],
      "stateMutability": "nonpayable",
      "type": "function"
    },
    {
      "inputs": [
        {
          "internalType": "address",
          "name": "from",
          "type": "address"
        },
        {
          "internalType": "address",
          "name": "to",
          "type": "address"
        },
        {
          "internalType": "uint256",
          "name": "tokenId",
          "type": "uint256"
        }
      ],
      "name": "transferFrom",
      "outputs": [],
      "stateMutability": "nonpayable",
      "type": "function"
    },
    {
      "inputs": [
        {
          "internalType": "address",
          "name": "newOwner",
          "type": "address"
        }
      ],
      "name": "transferOwnership",
      "outputs": [],
      "stateMutability": "nonpayable",
      "type": "function"
    }
  ],
  "bytecode": "0x60806040523480156200001157600080fd5b506040518060400160405280600781526020017f536f6e674e4654000000000000000000000000000000000000000000000000008152506040518060400160405280600381526020017f4e4654000000000000000000000000000000000000000000000000000000000081525081600090816200008f919062000412565b508060019081620000a1919062000412565b505050620000c4620000b8620000ca60201b60201c565b620000d260201b60201c565b620004f9565b600033905090565b6000600760009054906101000a900473ffffffffffffffffffffffffffffffffffffffff16905081600760006101000a81548173ffffffffffffffffffffffffffffffffffffffff021916908373ffffffffffffffffffffffffffffffffffffffff1602179055508173ffffffffffffffffffffffffffffffffffffffff168173ffffffffffffffffffffffffffffffffffffffff167f8be0079c531659141344cd1fd0a4f28419497f9722a3daafe3b4186f6b6457e060405160405180910390a35050565b600081519050919050565b7f4e487b7100000000000000000000000000000000000000000000000000000000600052604160045260246000fd5b7f4e487b7100000000000000000000000000000000000000000000000000000000600052602260045260246000fd5b600060028204905060018216806200021a57607f821691505b60208210810362000230576200022f620001d2565b5b50919050565b60008190508160005260206000209050919050565b60006020601f8301049050919050565b600082821b905092915050565b6000600883026200029a7fffffffffffffffffffffffffffffffffffffffffffffffffffffffffffffffff826200025b565b620002a686836200025b565b95508019841693508086168417925050509392505050565b6000819050919050565b6000819050919050565b6000620002f3620002ed620002e784620002be565b620002c8565b620002be565b9050919050565b6000819050919050565b6200030f83620002d2565b620003276200031e82620002fa565b84845462000268565b825550505050565b600090565b6200033e6200032f565b6200034b81848462000304565b505050565b5b8181101562000373576200036760008262000334565b60018101905062000351565b5050565b601f821115620003c2576200038c8162000236565b62000397846200024b565b81016020851015620003a7578190505b620003bf620003b6856200024b565b83018262000350565b50505b505050565b600082821c905092915050565b6000620003e760001984600802620003c7565b1980831691505092915050565b6000620004028383620003d4565b9150826002028217905092915050565b6200041d8262000198565b67ffffffffffffffff811115620004395762000438620001a3565b5b62000445825462000201565b6200045282828562000377565b600060209050601f8311600181146200048a576000841562000475578287015190505b620004818582620003f4565b865550620004f1565b601f1984166200049a8662000236565b60005b82811015620004c4578489015182556001820191506020850194506020810190506200049d565b86831015620004e45784890151620004e0601f891682620003d4565b8355505b6001600288020188555050505b505050505050565b613c2f80620005096000396000f3fe6080604052600436106101405760003560e01c8063715018a6116100b6578063b88d4fde1161006f578063b88d4fde14610471578063c1e037281461049a578063c87b56dd146104d7578063e985e9c514610514578063f2fde38b14610551578063f7d975771461057a57610140565b8063715018a6146103755780638da5cb5b1461038c57806395d89b41146103b7578063a22cb465146103e2578063a5cd761f1461040b578063b7760c8f1461044857610140565b806323b872dd1161010857806323b872dd146102505780633aef4d611461027957806342842e0e146102b657806351ed8288146102df5780636352211e146102fb57806370a082311461033857610140565b806301ffc9a71461014557806306fdde0314610182578063081812fc146101ad578063095ea7b3146101ea5780631f4429aa14610213575b600080fd5b34801561015157600080fd5b5061016c60048036038101906101679190612497565b6105a3565b60405161017991906124df565b60405180910390f35b34801561018e57600080fd5b50610197610685565b6040516101a4919061258a565b60405180910390f35b3480156101b957600080fd5b506101d460048036038101906101cf91906125e2565b610717565b6040516101e19190612650565b60405180910390f35b3480156101f657600080fd5b50610211600480360381019061020c9190612697565b61075d565b005b34801561021f57600080fd5b5061023a600480360381019061023591906125e2565b610874565b6040516102479190612766565b60405180910390f35b34801561025c57600080fd5b5061027760048036038101906102729190612781565b610955565b005b34801561028557600080fd5b506102a0600480360381019061029b91906129a8565b6109b5565b6040516102ad9190612a4e565b60405180910390f35b3480156102c257600080fd5b506102dd60048036038101906102d89190612781565b610bab565b005b6102f960048036038101906102f491906125e2565b610bcb565b005b34801561030757600080fd5b50610322600480360381019061031d91906125e2565b610cfb565b60405161032f9190612650565b60405180910390f35b34801561034457600080fd5b5061035f600480360381019061035a9190612a69565b610d81565b60405161036c9190612a4e565b60405180910390f35b34801561038157600080fd5b5061038a610e38565b005b34801561039857600080fd5b506103a1610e4c565b6040516103ae9190612650565b60405180910390f35b3480156103c357600080fd5b506103cc610e76565b6040516103d9919061258a565b60405180910390f35b3480156103ee57600080fd5b5061040960048036038101906104049190612ac2565b610f08565b005b34801561041757600080fd5b50610432600480360381019061042d91906125e2565b610f1e565b60405161043f9190612650565b60405180910390f35b34801561045457600080fd5b5061046f600480360381019061046a9190612b02565b610f30565b005b34801561047d57600080fd5b5061049860048036038101906104939190612be3565b610f88565b005b3480156104a657600080fd5b506104c160048036038101906104bc91906125e2565b610fea565b6040516104ce9190612d56565b60405180910390f35b3480156104e357600080fd5b506104fe60048036038101906104f991906125e2565b61117c565b60405161050b919061258a565b60405180910390f35b34801561052057600080fd5b5061053b60048036038101906105369190612d78565b61128e565b60405161054891906124df565b60405180910390f35b34801561055d57600080fd5b5061057860048036038101906105739190612a69565b611322565b005b34801561058657600080fd5b506105a1600480360381019061059c9190612db8565b6113a5565b005b60007f80ac58cd000000000000000000000000000000000000000000000000000000007bffffffffffffffffffffffffffffffffffffffffffffffffffffffff1916827bffffffffffffffffffffffffffffffffffffffffffffffffffffffff1916148061066e57507f5b5e139f000000000000000000000000000000000000000000000000000000007bffffffffffffffffffffffffffffffffffffffffffffffffffffffff1916827bffffffffffffffffffffffffffffffffffffffffffffffffffffffff1916145b8061067e575061067d82611440565b5b9050919050565b60606000805461069490612e27565b80601f01602080910402602001604051908101604052809291908181526020018280546106c090612e27565b801561070d5780601f106106e25761010080835404028352916020019161070d565b820191906000526020600020905b8154815290600101906020018083116106f057829003601f168201915b5050505050905090565b6000610722826114aa565b6004600083815260200190815260200160002060009054906101000a900473ffffffffffffffffffffffffffffffffffffffff169050919050565b600061076882610cfb565b90508073ffffffffffffffffffffffffffffffffffffffff168373ffffffffffffffffffffffffffffffffffffffff16036107d8576040517f08c379a00000000000000000000000000000000000000000000000000000000081526004016107cf90612eca565b60405180910390fd5b8073ffffffffffffffffffffffffffffffffffffffff166107f76114f5565b73ffffffffffffffffffffffffffffffffffffffff1614806108265750610825816108206114f5565b61128e565b5b610865576040517f08c379a000000000000000000000000000000000000000000000000000000000815260040161085c90612f5c565b60405180910390fd5b61086f83836114fd565b505050565b61087c6123ae565b600060086000848152602001908152602001600020600301604051806060016040529081600082016040518060400160405290816000820160009054906101000a900460ff161515151581526020016001820154815250508152602001600282016040518060400160405290816000820160009054906101000a900460ff161515151581526020016001820154815250508152602001600482016040518060400160405290816000820160009054906101000a900460ff1615151515815260200160018201548152505081525050905080915050919050565b6109666109606114f5565b826115b6565b6109a5576040517f08c379a000000000000000000000000000000000000000000000000000000000815260040161099c90612fee565b60405180910390fd5b6109b083838361164b565b505050565b60006109bf611944565b6109c986866119c2565b6109d38585611bdf565b600060086000878152602001908152602001600020905085816000018190555084816001019081610a0491906131ba565b5083816002018190555060006040518060600160405280604051806040016040528060008860000151121515158152602001600088600001511215610a56578760000151610a51906132bb565b610a5c565b87600001515b8152508152602001604051806040016040528060008860200151121515158152602001600088602001511215610a9f578760200151610a9a906132bb565b610aa5565b87602001515b8152508152602001604051806040016040528060008860400151121515158152602001600088604001511215610ae8578760400151610ae3906132bb565b610aee565b87604001515b8152508152509050808260030160008201518160000160008201518160000160006101000a81548160ff02191690831515021790555060208201518160010155505060208201518160020160008201518160000160006101000a81548160ff02191690831515021790555060208201518160010155505060408201518160040160008201518160000160006101000a81548160ff021916908315150217905550602082015181600101555050905050869250505095945050505050565b610bc683838360405180602001604052806000815250610f88565b505050565b60006008600083815260200190815260200160002090506000610bed83610cfb565b90508160020154341015610c36576040517f08c379a0000000000000000000000000000000000000000000000000000000008152600401610c2d9061334f565b60405180910390fd5b8073ffffffffffffffffffffffffffffffffffffffff163373ffffffffffffffffffffffffffffffffffffffff1603610ca4576040517f08c379a0000000000000000000000000000000000000000000000000000000008152600401610c9b906133bb565b60405180910390fd5b610caf81338561164b565b8073ffffffffffffffffffffffffffffffffffffffff166108fc349081150290604051600060405180830381858888f19350505050158015610cf5573d6000803e3d6000fd5b50505050565b600080610d0783611c4c565b9050600073ffffffffffffffffffffffffffffffffffffffff168173ffffffffffffffffffffffffffffffffffffffff1603610d78576040517f08c379a0000000000000000000000000000000000000000000000000000000008152600401610d6f90613427565b60405180910390fd5b80915050919050565b60008073ffffffffffffffffffffffffffffffffffffffff168273ffffffffffffffffffffffffffffffffffffffff1603610df1576040517f08c379a0000000000000000000000000000000000000000000000000000000008152600401610de8906134b9565b60405180910390fd5b600360008373ffffffffffffffffffffffffffffffffffffffff1673ffffffffffffffffffffffffffffffffffffffff168152602001908152602001600020549050919050565b610e40611944565b610e4a6000611c89565b565b6000600760009054906101000a900473ffffffffffffffffffffffffffffffffffffffff16905090565b606060018054610e8590612e27565b80601f0160208091040260200160405190810160405280929190818152602001828054610eb190612e27565b8015610efe5780601f10610ed357610100808354040283529160200191610efe565b820191906000526020600020905b815481529060010190602001808311610ee157829003601f168201915b5050505050905090565b610f1a610f136114f5565b8383611d4f565b5050565b6000610f2982610cfb565b9050919050565b610f3a33836115b6565b610f79576040517f08c379a0000000000000000000000000000000000000000000000000000000008152600401610f709061354b565b60405180910390fd5b610f8433828461164b565b5050565b610f99610f936114f5565b836115b6565b610fd8576040517f08c379a0000000000000000000000000000000000000000000000000000000008152600401610fcf90612fee565b60405180910390fd5b610fe484848484611ebb565b50505050565b610ff26123e1565b600860008381526020019081526020016000206040518060800160405290816000820154815260200160018201805461102a90612e27565b80601f016020809104026020016040519081016040528092919081815260200182805461105690612e27565b80156110a35780601f10611078576101008083540402835291602001916110a3565b820191906000526020600020905b81548152906001019060200180831161108657829003601f168201915b505050505081526020016002820154815260200160038201604051806060016040529081600082016040518060400160405290816000820160009054906101000a900460ff161515151581526020016001820154815250508152602001600282016040518060400160405290816000820160009054906101000a900460ff161515151581526020016001820154815250508152602001600482016040518060400160405290816000820160009054906101000a900460ff1615151515815260200160018201548152505081525050815250509050919050565b6060611187826114aa565b60006006600084815260200190815260200160002080546111a790612e27565b80601f01602080910402602001604051908101604052809291908181526020018280546111d390612e27565b80156112205780601f106111f557610100808354040283529160200191611220565b820191906000526020600020905b81548152906001019060200180831161120357829003601f168201915b505050505090506000611231611f17565b90506000815103611246578192505050611289565b60008251111561127b5780826040516020016112639291906135a7565b60405160208183030381529060405292505050611289565b61128484611f2e565b925050505b919050565b6000600560008473ffffffffffffffffffffffffffffffffffffffff1673ffffffffffffffffffffffffffffffffffffffff16815260200190815260200160002060008373ffffffffffffffffffffffffffffffffffffffff1673ffffffffffffffffffffffffffffffffffffffff16815260200190815260200160002060009054906101000a900460ff16905092915050565b61132a611944565b600073ffffffffffffffffffffffffffffffffffffffff168173ffffffffffffffffffffffffffffffffffffffff1603611399576040517f08c379a00000000000000000000000000000000000000000000000000000000081526004016113909061363d565b60405180910390fd5b6113a281611c89565b50565b3373ffffffffffffffffffffffffffffffffffffffff166113c583610cfb565b73ffffffffffffffffffffffffffffffffffffffff161461141b576040517f08c379a0000000000000000000000000000000000000000000000000000000008152600401611412906136cf565b60405180910390fd5b6000600860008481526020019081526020016000209050818160020181905550505050565b60007f01ffc9a7000000000000000000000000000000000000000000000000000000007bffffffffffffffffffffffffffffffffffffffffffffffffffffffff1916827bffffffffffffffffffffffffffffffffffffffffffffffffffffffff1916149050919050565b6114b381611f96565b6114f2576040517f08c379a00000000000000000000000000000000000000000000000000000000081526004016114e990613427565b60405180910390fd5b50565b600033905090565b816004600083815260200190815260200160002060006101000a81548173ffffffffffffffffffffffffffffffffffffffff021916908373ffffffffffffffffffffffffffffffffffffffff160217905550808273ffffffffffffffffffffffffffffffffffffffff1661157083610cfb565b73ffffffffffffffffffffffffffffffffffffffff167f8c5be1e5ebec7d5bd14f71427d1e84f3dd0314c0f7b2291e5b200ac8c7c3b92560405160405180910390a45050565b6000806115c283610cfb565b90508073ffffffffffffffffffffffffffffffffffffffff168473ffffffffffffffffffffffffffffffffffffffff1614806116045750611603818561128e565b5b8061164257508373ffffffffffffffffffffffffffffffffffffffff1661162a84610717565b73ffffffffffffffffffffffffffffffffffffffff16145b91505092915050565b8273ffffffffffffffffffffffffffffffffffffffff1661166b82610cfb565b73ffffffffffffffffffffffffffffffffffffffff16146116c1576040517f08c379a00000000000000000000000000000000000000000000000000000000081526004016116b890613761565b60405180910390fd5b600073ffffffffffffffffffffffffffffffffffffffff168273ffffffffffffffffffffffffffffffffffffffff1603611730576040517f08c379a0000000000000000000000000000000000000000000000000000000008152600401611727906137f3565b60405180910390fd5b61173d8383836001611fd7565b8273ffffffffffffffffffffffffffffffffffffffff1661175d82610cfb565b73ffffffffffffffffffffffffffffffffffffffff16146117b3576040517f08c379a00000000000000000000000000000000000000000000000000000000081526004016117aa90613761565b60405180910390fd5b6004600082815260200190815260200160002060006101000a81549073ffffffffffffffffffffffffffffffffffffffff02191690556001600360008573ffffffffffffffffffffffffffffffffffffffff1673ffffffffffffffffffffffffffffffffffffffff168152602001908152602001600020600082825403925050819055506001600360008473ffffffffffffffffffffffffffffffffffffffff1673ffffffffffffffffffffffffffffffffffffffff16815260200190815260200160002060008282540192505081905550816002600083815260200190815260200160002060006101000a81548173ffffffffffffffffffffffffffffffffffffffff021916908373ffffffffffffffffffffffffffffffffffffffff160217905550808273ffffffffffffffffffffffffffffffffffffffff168473ffffffffffffffffffffffffffffffffffffffff167fddf252ad1be2c89b69c2b068fc378daa952ba7f163c4a11628f55a4df523b3ef60405160405180910390a461193f8383836001611fdd565b505050565b61194c6114f5565b73ffffffffffffffffffffffffffffffffffffffff1661196a610e4c565b73ffffffffffffffffffffffffffffffffffffffff16146119c0576040517f08c379a00000000000000000000000000000000000000000000000000000000081526004016119b79061385f565b60405180910390fd5b565b600073ffffffffffffffffffffffffffffffffffffffff168273ffffffffffffffffffffffffffffffffffffffff1603611a31576040517f08c379a0000000000000000000000000000000000000000000000000000000008152600401611a28906138cb565b60405180910390fd5b611a3a81611f96565b15611a7a576040517f08c379a0000000000000000000000000000000000000000000000000000000008152600401611a7190613937565b60405180910390fd5b611a88600083836001611fd7565b611a9181611f96565b15611ad1576040517f08c379a0000000000000000000000000000000000000000000000000000000008152600401611ac890613937565b60405180910390fd5b6001600360008473ffffffffffffffffffffffffffffffffffffffff1673ffffffffffffffffffffffffffffffffffffffff16815260200190815260200160002060008282540192505081905550816002600083815260200190815260200160002060006101000a81548173ffffffffffffffffffffffffffffffffffffffff021916908373ffffffffffffffffffffffffffffffffffffffff160217905550808273ffffffffffffffffffffffffffffffffffffffff16600073ffffffffffffffffffffffffffffffffffffffff167fddf252ad1be2c89b69c2b068fc378daa952ba7f163c4a11628f55a4df523b3ef60405160405180910390a4611bdb600083836001611fdd565b5050565b611be882611f96565b611c27576040517f08c379a0000000000000000000000000000000000000000000000000000000008152600401611c1e906139c9565b60405180910390fd5b80600660008481526020019081526020016000209081611c4791906131ba565b505050565b60006002600083815260200190815260200160002060009054906101000a900473ffffffffffffffffffffffffffffffffffffffff169050919050565b6000600760009054906101000a900473ffffffffffffffffffffffffffffffffffffffff16905081600760006101000a81548173ffffffffffffffffffffffffffffffffffffffff021916908373ffffffffffffffffffffffffffffffffffffffff1602179055508173ffffffffffffffffffffffffffffffffffffffff168173ffffffffffffffffffffffffffffffffffffffff167f8be0079c531659141344cd1fd0a4f28419497f9722a3daafe3b4186f6b6457e060405160405180910390a35050565b8173ffffffffffffffffffffffffffffffffffffffff168373ffffffffffffffffffffffffffffffffffffffff1603611dbd576040517f08c379a0000000000000000000000000000000000000000000000000000000008152600401611db490613a35565b60405180910390fd5b80600560008573ffffffffffffffffffffffffffffffffffffffff1673ffffffffffffffffffffffffffffffffffffffff16815260200190815260200160002060008473ffffffffffffffffffffffffffffffffffffffff1673ffffffffffffffffffffffffffffffffffffffff16815260200190815260200160002060006101000a81548160ff0219169083151502179055508173ffffffffffffffffffffffffffffffffffffffff168373ffffffffffffffffffffffffffffffffffffffff167f17307eab39ab6107e8899845ad3d59bd9653f200f220920489ca2b5937696c3183604051611eae91906124df565b60405180910390a3505050565b611ec684848461164b565b611ed284848484611fe3565b611f11576040517f08c379a0000000000000000000000000000000000000000000000000000000008152600401611f0890613ac7565b60405180910390fd5b50505050565b606060405180602001604052806000815250905090565b6060611f39826114aa565b6000611f43611f17565b90506000815111611f635760405180602001604052806000815250611f8e565b80611f6d8461216a565b604051602001611f7e9291906135a7565b6040516020818303038152906040525b915050919050565b60008073ffffffffffffffffffffffffffffffffffffffff16611fb883611c4c565b73ffffffffffffffffffffffffffffffffffffffff1614159050919050565b50505050565b50505050565b60006120048473ffffffffffffffffffffffffffffffffffffffff16612238565b1561215d578373ffffffffffffffffffffffffffffffffffffffff1663150b7a0261202d6114f5565b8786866040518563ffffffff1660e01b815260040161204f9493929190613b3c565b6020604051808303816000875af192505050801561208b57506040513d601f19601f820116820180604052508101906120889190613b9d565b60015b61210d573d80600081146120bb576040519150601f19603f3d011682016040523d82523d6000602084013e6120c0565b606091505b506000815103612105576040517f08c379a00000000000000000000000000000000000000000000000000000000081526004016120fc90613ac7565b60405180910390fd5b805181602001fd5b63150b7a0260e01b7bffffffffffffffffffffffffffffffffffffffffffffffffffffffff1916817bffffffffffffffffffffffffffffffffffffffffffffffffffffffff191614915050612162565b600190505b949350505050565b6060600060016121798461225b565b01905060008167ffffffffffffffff811115612198576121976127de565b5b6040519080825280601f01601f1916602001820160405280156121ca5781602001600182028036833780820191505090505b509050600082602001820190505b60011561222d578080600190039150507f3031323334353637383961626364656600000000000000000000000000000000600a86061a8153600a858161222157612220613bca565b5b049450600085036121d8575b819350505050919050565b6000808273ffffffffffffffffffffffffffffffffffffffff163b119050919050565b600080600090507a184f03e93ff9f4daa797ed6e38ed64bf6a1f01000000000000000083106122b9577a184f03e93ff9f4daa797ed6e38ed64bf6a1f01000000000000000083816122af576122ae613bca565b5b0492506040810190505b6d04ee2d6d415b85acef810000000083106122f6576d04ee2d6d415b85acef810000000083816122ec576122eb613bca565b5b0492506020810190505b662386f26fc10000831061232557662386f26fc10000838161231b5761231a613bca565b5b0492506010810190505b6305f5e100831061234e576305f5e100838161234457612343613bca565b5b0492506008810190505b612710831061237357612710838161236957612368613bca565b5b0492506004810190505b60648310612396576064838161238c5761238b613bca565b5b0492506002810190505b600a83106123a5576001810190505b80915050919050565b60405180606001604052806123c161240f565b81526020016123ce61240f565b81526020016123db61240f565b81525090565b60405180608001604052806000815260200160608152602001600081526020016124096123ae565b81525090565b6040518060400160405280600015158152602001600081525090565b6000604051905090565b600080fd5b600080fd5b60007fffffffff0000000000000000000000000000000000000000000000000000000082169050919050565b6124748161243f565b811461247f57600080fd5b50565b6000813590506124918161246b565b92915050565b6000602082840312156124ad576124ac612435565b5b60006124bb84828501612482565b91505092915050565b60008115159050919050565b6124d9816124c4565b82525050565b60006020820190506124f460008301846124d0565b92915050565b600081519050919050565b600082825260208201905092915050565b60005b83811015612534578082015181840152602081019050612519565b60008484015250505050565b6000601f19601f8301169050919050565b600061255c826124fa565b6125668185612505565b9350612576818560208601612516565b61257f81612540565b840191505092915050565b600060208201905081810360008301526125a48184612551565b905092915050565b6000819050919050565b6125bf816125ac565b81146125ca57600080fd5b50565b6000813590506125dc816125b6565b92915050565b6000602082840312156125f8576125f7612435565b5b6000612606848285016125cd565b91505092915050565b600073ffffffffffffffffffffffffffffffffffffffff82169050919050565b600061263a8261260f565b9050919050565b61264a8161262f565b82525050565b60006020820190506126656000830184612641565b92915050565b6126748161262f565b811461267f57600080fd5b50565b6000813590506126918161266b565b92915050565b600080604083850312156126ae576126ad612435565b5b60006126bc85828601612682565b92505060206126cd858286016125cd565b9150509250929050565b6126e0816124c4565b82525050565b6126ef816125ac565b82525050565b60408201600082015161270b60008501826126d7565b50602082015161271e60208501826126e6565b50505050565b60c08201600082015161273a60008501826126f5565b50602082015161274d60408501826126f5565b50604082015161276060808501826126f5565b50505050565b600060c08201905061277b6000830184612724565b92915050565b60008060006060848603121561279a57612799612435565b5b60006127a886828701612682565b93505060206127b986828701612682565b92505060406127ca868287016125cd565b9150509250925092565b600080fd5b600080fd5b7f4e487b7100000000000000000000000000000000000000000000000000000000600052604160045260246000fd5b61281682612540565b810181811067ffffffffffffffff82111715612835576128346127de565b5b80604052505050565b600061284861242b565b9050612854828261280d565b919050565b600067ffffffffffffffff821115612874576128736127de565b5b61287d82612540565b9050602081019050919050565b82818337600083830152505050565b60006128ac6128a784612859565b61283e565b9050828152602081018484840111156128c8576128c76127d9565b5b6128d384828561288a565b509392505050565b600082601f8301126128f0576128ef6127d4565b5b8135612900848260208601612899565b91505092915050565b600080fd5b6000819050919050565b6129218161290e565b811461292c57600080fd5b50565b60008135905061293e81612918565b92915050565b60006060828403121561295a57612959612909565b5b612964606061283e565b905060006129748482850161292f565b60008301525060206129888482850161292f565b602083015250604061299c8482850161292f565b60408301525092915050565b600080600080600060e086880312156129c4576129c3612435565b5b60006129d288828901612682565b95505060206129e3888289016125cd565b945050604086013567ffffffffffffffff811115612a0457612a0361243a565b5b612a10888289016128db565b9350506060612a21888289016125cd565b9250506080612a3288828901612944565b9150509295509295909350565b612a48816125ac565b82525050565b6000602082019050612a636000830184612a3f565b92915050565b600060208284031215612a7f57612a7e612435565b5b6000612a8d84828501612682565b91505092915050565b612a9f816124c4565b8114612aaa57600080fd5b50565b600081359050612abc81612a96565b92915050565b60008060408385031215612ad957612ad8612435565b5b6000612ae785828601612682565b9250506020612af885828601612aad565b9150509250929050565b60008060408385031215612b1957612b18612435565b5b6000612b27858286016125cd565b9250506020612b3885828601612682565b9150509250929050565b600067ffffffffffffffff821115612b5d57612b5c6127de565b5b612b6682612540565b9050602081019050919050565b6000612b86612b8184612b42565b61283e565b905082815260208101848484011115612ba257612ba16127d9565b5b612bad84828561288a565b509392505050565b600082601f830112612bca57612bc96127d4565b5b8135612bda848260208601612b73565b91505092915050565b60008060008060808587031215612bfd57612bfc612435565b5b6000612c0b87828801612682565b9450506020612c1c87828801612682565b9350506040612c2d878288016125cd565b925050606085013567ffffffffffffffff811115612c4e57612c4d61243a565b5b612c5a87828801612bb5565b91505092959194509250565b600082825260208201905092915050565b6000612c82826124fa565b612c8c8185612c66565b9350612c9c818560208601612516565b612ca581612540565b840191505092915050565b60c082016000820151612cc660008501826126f5565b506020820151612cd960408501826126f5565b506040820151612cec60808501826126f5565b50505050565b600061012083016000830151612d0b60008601826126e6565b5060208301518482036020860152612d238282612c77565b9150506040830151612d3860408601826126e6565b506060830151612d4b6060860182612cb0565b508091505092915050565b60006020820190508181036000830152612d708184612cf2565b905092915050565b60008060408385031215612d8f57612d8e612435565b5b6000612d9d85828601612682565b9250506020612dae85828601612682565b9150509250929050565b60008060408385031215612dcf57612dce612435565b5b6000612ddd858286016125cd565b9250506020612dee858286016125cd565b9150509250929050565b7f4e487b7100000000000000000000000000000000000000000000000000000000600052602260045260246000fd5b60006002820490506001821680612e3f57607f821691505b602082108103612e5257612e51612df8565b5b50919050565b7f4552433732313a20617070726f76616c20746f2063757272656e74206f776e6560008201527f7200000000000000000000000000000000000000000000000000000000000000602082015250565b6000612eb4602183612505565b9150612ebf82612e58565b604082019050919050565b60006020820190508181036000830152612ee381612ea7565b9050919050565b7f4552433732313a20617070726f76652063616c6c6572206973206e6f7420746f60008201527f6b656e206f776e6572206f7220617070726f76656420666f7220616c6c000000602082015250565b6000612f46603d83612505565b9150612f5182612eea565b604082019050919050565b60006020820190508181036000830152612f7581612f39565b9050919050565b7f4552433732313a2063616c6c6572206973206e6f7420746f6b656e206f776e6560008201527f72206f7220617070726f76656400000000000000000000000000000000000000602082015250565b6000612fd8602d83612505565b9150612fe382612f7c565b604082019050919050565b6000602082019050818103600083015261300781612fcb565b9050919050565b60008190508160005260206000209050919050565b60006020601f8301049050919050565b600082821b905092915050565b6000600883026130707fffffffffffffffffffffffffffffffffffffffffffffffffffffffffffffffff82613033565b61307a8683613033565b95508019841693508086168417925050509392505050565b6000819050919050565b60006130b76130b26130ad846125ac565b613092565b6125ac565b9050919050565b6000819050919050565b6130d18361309c565b6130e56130dd826130be565b848454613040565b825550505050565b600090565b6130fa6130ed565b6131058184846130c8565b505050565b5b818110156131295761311e6000826130f2565b60018101905061310b565b5050565b601f82111561316e5761313f8161300e565b61314884613023565b81016020851015613157578190505b61316b61316385613023565b83018261310a565b50505b505050565b600082821c905092915050565b600061319160001984600802613173565b1980831691505092915050565b60006131aa8383613180565b9150826002028217905092915050565b6131c3826124fa565b67ffffffffffffffff8111156131dc576131db6127de565b5b6131e68254612e27565b6131f182828561312d565b600060209050601f8311600181146132245760008415613212578287015190505b61321c858261319e565b865550613284565b601f1984166132328661300e565b60005b8281101561325a57848901518255600182019150602085019450602081019050613235565b868310156132775784890151613273601f891682613180565b8355505b6001600288020188555050505b505050505050565b7f4e487b7100000000000000000000000000000000000000000000000000000000600052601160045260246000fd5b60006132c68261290e565b91507f800000000000000000000000000000000000000000000000000000000000000082036132f8576132f761328c565b5b816000039050919050565b7f4e6f7420656e6f7567682045746865722073656e742100000000000000000000600082015250565b6000613339601683612505565b915061334482613303565b602082019050919050565b600060208201905081810360008301526133688161332c565b9050919050565b7f43616c6c657220616c7265616479206f776e732074686973204e465421000000600082015250565b60006133a5601d83612505565b91506133b08261336f565b602082019050919050565b600060208201905081810360008301526133d481613398565b9050919050565b7f4552433732313a20696e76616c696420746f6b656e2049440000000000000000600082015250565b6000613411601883612505565b915061341c826133db565b602082019050919050565b6000602082019050818103600083015261344081613404565b9050919050565b7f4552433732313a2061646472657373207a65726f206973206e6f74206120766160008201527f6c6964206f776e65720000000000000000000000000000000000000000000000602082015250565b60006134a3602983612505565b91506134ae82613447565b604082019050919050565b600060208201905081810360008301526134d281613496565b9050919050565b7f5472616e73666572206d75737420626520696e697469616c697a65642062792060008201527f6f776e6572210000000000000000000000000000000000000000000000000000602082015250565b6000613535602683612505565b9150613540826134d9565b604082019050919050565b6000602082019050818103600083015261356481613528565b9050919050565b600081905092915050565b6000613581826124fa565b61358b818561356b565b935061359b818560208601612516565b80840191505092915050565b60006135b38285613576565b91506135bf8284613576565b91508190509392505050565b7f4f776e61626c653a206e6577206f776e657220697320746865207a65726f206160008201527f6464726573730000000000000000000000000000000000000000000000000000602082015250565b6000613627602683612505565b9150613632826135cb565b604082019050919050565b600060208201905081810360008301526136568161361a565b9050919050565b7f5072696365732063616e206f6e6c79206265206368616e67656420627920746f60008201527f6b656e206f776e65722100000000000000000000000000000000000000000000602082015250565b60006136b9602a83612505565b91506136c48261365d565b604082019050919050565b600060208201905081810360008301526136e8816136ac565b9050919050565b7f4552433732313a207472616e736665722066726f6d20696e636f72726563742060008201527f6f776e6572000000000000000000000000000000000000000000000000000000602082015250565b600061374b602583612505565b9150613756826136ef565b604082019050919050565b6000602082019050818103600083015261377a8161373e565b9050919050565b7f4552433732313a207472616e7366657220746f20746865207a65726f2061646460008201527f7265737300000000000000000000000000000000000000000000000000000000602082015250565b60006137dd602483612505565b91506137e882613781565b604082019050919050565b6000602082019050818103600083015261380c816137d0565b9050919050565b7f4f776e61626c653a2063616c6c6572206973206e6f7420746865206f776e6572600082015250565b6000613849602083612505565b915061385482613813565b602082019050919050565b600060208201905081810360008301526138788161383c565b9050919050565b7f4552433732313a206d696e7420746f20746865207a65726f2061646472657373600082015250565b60006138b5602083612505565b91506138c08261387f565b602082019050919050565b600060208201905081810360008301526138e4816138a8565b9050919050565b7f4552433732313a20746f6b656e20616c7265616479206d696e74656400000000600082015250565b6000613921601c83612505565b915061392c826138eb565b602082019050919050565b6000602082019050818103600083015261395081613914565b9050919050565b7f45524337323155524953746f726167653a2055524920736574206f66206e6f6e60008201527f6578697374656e7420746f6b656e000000000000000000000000000000000000602082015250565b60006139b3602e83612505565b91506139be82613957565b604082019050919050565b600060208201905081810360008301526139e2816139a6565b9050919050565b7f4552433732313a20617070726f766520746f2063616c6c657200000000000000600082015250565b6000613a1f601983612505565b9150613a2a826139e9565b602082019050919050565b60006020820190508181036000830152613a4e81613a12565b9050919050565b7f4552433732313a207472616e7366657220746f206e6f6e20455243373231526560008201527f63656976657220696d706c656d656e7465720000000000000000000000000000602082015250565b6000613ab1603283612505565b9150613abc82613a55565b604082019050919050565b60006020820190508181036000830152613ae081613aa4565b9050919050565b600081519050919050565b600082825260208201905092915050565b6000613b0e82613ae7565b613b188185613af2565b9350613b28818560208601612516565b613b3181612540565b840191505092915050565b6000608082019050613b516000830187612641565b613b5e6020830186612641565b613b6b6040830185612a3f565b8181036060830152613b7d8184613b03565b905095945050505050565b600081519050613b978161246b565b92915050565b600060208284031215613bb357613bb2612435565b5b6000613bc184828501613b88565b91505092915050565b7f4e487b7100000000000000000000000000000000000000000000000000000000600052601260045260246000fdfea26469706673582212208352a129b467c9360f54382d4f3d68853c2787d9508de18fd9d18afd0768ba4d64736f6c63430008120033",
  "linkReferences": {},
  "deployedLinkReferences": {}
}